{
  "contractName": "Chainclub",
  "abi": [
    {
      "inputs": [
        {
          "internalType": "string",
          "name": "yourFullName",
          "type": "string"
        }
      ],
      "payable": false,
      "stateMutability": "nonpayable",
      "type": "constructor"
    },
    {
      "constant": false,
      "inputs": [
        {
          "internalType": "string",
          "name": "pollSubject",
          "type": "string"
        }
      ],
      "name": "startBooleanPoll",
      "outputs": [],
      "payable": false,
      "stateMutability": "nonpayable",
      "type": "function"
    },
    {
      "constant": false,
      "inputs": [
        {
          "internalType": "string",
          "name": "pollSubject",
          "type": "string"
        },
        {
          "internalType": "uint256",
          "name": "bottomLimit",
          "type": "uint256"
        },
        {
          "internalType": "uint256",
          "name": "topLimit",
          "type": "uint256"
        }
      ],
      "name": "startQuantityPoll",
      "outputs": [],
      "payable": false,
      "stateMutability": "nonpayable",
      "type": "function"
    },
    {
      "constant": false,
      "inputs": [
        {
          "internalType": "string",
          "name": "pollSubject",
          "type": "string"
        },
        {
          "internalType": "string[]",
          "name": "options",
          "type": "string[]"
        }
      ],
      "name": "startOptionsPoll",
      "outputs": [],
      "payable": false,
      "stateMutability": "nonpayable",
      "type": "function"
    },
    {
      "constant": false,
      "inputs": [
        {
          "internalType": "uint256",
          "name": "pollIndex",
          "type": "uint256"
        },
        {
          "internalType": "bool",
          "name": "boolean",
          "type": "bool"
        }
      ],
      "name": "voteOnBooleanPool",
      "outputs": [],
      "payable": false,
      "stateMutability": "nonpayable",
      "type": "function"
    },
    {
      "constant": false,
      "inputs": [
        {
          "internalType": "uint256",
          "name": "pollIndex",
          "type": "uint256"
        },
        {
          "internalType": "uint256",
          "name": "quantity",
          "type": "uint256"
        }
      ],
      "name": "voteOnQuantityPool",
      "outputs": [],
      "payable": false,
      "stateMutability": "nonpayable",
      "type": "function"
    },
    {
      "constant": false,
      "inputs": [
        {
          "internalType": "uint256",
          "name": "pollIndex",
          "type": "uint256"
        },
        {
          "internalType": "uint256",
          "name": "option",
          "type": "uint256"
        }
      ],
      "name": "voteOnOptionPool",
      "outputs": [],
      "payable": false,
      "stateMutability": "nonpayable",
      "type": "function"
    },
    {
      "constant": false,
      "inputs": [
        {
          "internalType": "string",
          "name": "buyerName",
          "type": "string"
        }
      ],
      "name": "buyMembership",
      "outputs": [],
      "payable": true,
      "stateMutability": "payable",
      "type": "function"
    },
    {
      "constant": false,
      "inputs": [],
      "name": "sellMembership",
      "outputs": [],
      "payable": false,
      "stateMutability": "nonpayable",
      "type": "function"
    },
    {
      "constant": true,
      "inputs": [
        {
          "internalType": "uint256",
          "name": "pollIndex",
          "type": "uint256"
        }
      ],
      "name": "getQuantityPollBottomLimit",
      "outputs": [
        {
          "internalType": "uint256",
          "name": "",
          "type": "uint256"
        }
      ],
      "payable": false,
      "stateMutability": "view",
      "type": "function"
    },
    {
      "constant": true,
      "inputs": [
        {
          "internalType": "uint256",
          "name": "pollIndex",
          "type": "uint256"
        }
      ],
      "name": "getQuantityPollTopLimit",
      "outputs": [
        {
          "internalType": "uint256",
          "name": "",
          "type": "uint256"
        }
      ],
      "payable": false,
      "stateMutability": "view",
      "type": "function"
    },
    {
      "constant": true,
      "inputs": [
        {
          "internalType": "uint256",
          "name": "pollIndex",
          "type": "uint256"
        }
      ],
      "name": "getBooleanPoll",
      "outputs": [
        {
          "components": [
            {
              "internalType": "uint256",
              "name": "pollIndex",
              "type": "uint256"
            },
            {
              "internalType": "string",
              "name": "subject",
              "type": "string"
            }
          ],
          "internalType": "struct Chainclub.BooleanPoll",
          "name": "",
          "type": "tuple"
        }
      ],
      "payable": false,
      "stateMutability": "view",
      "type": "function"
    },
    {
      "constant": true,
      "inputs": [
        {
          "internalType": "uint256",
          "name": "pollIndex",
          "type": "uint256"
        }
      ],
      "name": "getQuantityPoll",
      "outputs": [
        {
          "components": [
            {
              "internalType": "uint256",
              "name": "pollIndex",
              "type": "uint256"
            },
            {
              "internalType": "string",
              "name": "subject",
              "type": "string"
            },
            {
              "internalType": "uint256",
              "name": "bottomLimit",
              "type": "uint256"
            },
            {
              "internalType": "uint256",
              "name": "topLimit",
              "type": "uint256"
            }
          ],
          "internalType": "struct Chainclub.QuantityPoll",
          "name": "",
          "type": "tuple"
        }
      ],
      "payable": false,
      "stateMutability": "view",
      "type": "function"
    },
    {
      "constant": true,
      "inputs": [
        {
          "internalType": "uint256",
          "name": "pollIndex",
          "type": "uint256"
        }
      ],
      "name": "getOptionsPoll",
      "outputs": [
        {
          "components": [
            {
              "internalType": "uint256",
              "name": "pollIndex",
              "type": "uint256"
            },
            {
              "internalType": "string",
              "name": "subject",
              "type": "string"
            },
            {
              "internalType": "string[]",
              "name": "options",
              "type": "string[]"
            }
          ],
          "internalType": "struct Chainclub.OptionsPoll",
          "name": "",
          "type": "tuple"
        }
      ],
      "payable": false,
      "stateMutability": "view",
      "type": "function"
    },
    {
      "constant": true,
      "inputs": [
        {
          "internalType": "uint256",
          "name": "pollIndex",
          "type": "uint256"
        }
      ],
      "name": "getBooleanPollVotes",
      "outputs": [
        {
          "components": [
            {
              "internalType": "address",
              "name": "owner",
              "type": "address"
            },
            {
              "internalType": "bool",
              "name": "yesOrNo",
              "type": "bool"
            }
          ],
          "internalType": "struct Chainclub.BooleanVote[]",
          "name": "",
          "type": "tuple[]"
        }
      ],
      "payable": false,
      "stateMutability": "view",
      "type": "function"
    },
    {
      "constant": true,
      "inputs": [
        {
          "internalType": "uint256",
          "name": "pollIndex",
          "type": "uint256"
        }
      ],
      "name": "getQuantityPollVotes",
      "outputs": [
        {
          "components": [
            {
              "internalType": "address",
              "name": "owner",
              "type": "address"
            },
            {
              "internalType": "uint256",
              "name": "quantity",
              "type": "uint256"
            }
          ],
          "internalType": "struct Chainclub.QuantityVote[]",
          "name": "",
          "type": "tuple[]"
        }
      ],
      "payable": false,
      "stateMutability": "view",
      "type": "function"
    },
    {
      "constant": true,
      "inputs": [
        {
          "internalType": "uint256",
          "name": "pollIndex",
          "type": "uint256"
        }
      ],
      "name": "getOptionsPollVotes",
      "outputs": [
        {
          "components": [
            {
              "internalType": "address",
              "name": "owner",
              "type": "address"
            },
            {
              "internalType": "uint256",
              "name": "optionIndex",
              "type": "uint256"
            }
          ],
          "internalType": "struct Chainclub.OptionVote[]",
          "name": "",
          "type": "tuple[]"
        }
      ],
      "payable": false,
      "stateMutability": "view",
      "type": "function"
    },
    {
      "constant": true,
      "inputs": [
        {
          "internalType": "address",
          "name": "memberAddress",
          "type": "address"
        }
      ],
      "name": "getMember",
      "outputs": [
        {
          "components": [
            {
              "internalType": "address payable",
              "name": "wallet",
              "type": "address"
            },
            {
              "internalType": "string",
              "name": "name",
              "type": "string"
            },
            {
              "internalType": "bool",
              "name": "paidLastMonth",
              "type": "bool"
            },
            {
              "internalType": "bool",
              "name": "isSellingMembership",
              "type": "bool"
            }
          ],
          "internalType": "struct Chainclub.Member",
          "name": "",
          "type": "tuple"
        }
      ],
      "payable": false,
      "stateMutability": "view",
      "type": "function"
    },
    {
      "constant": true,
      "inputs": [
        {
          "internalType": "uint256",
          "name": "memberIndex",
          "type": "uint256"
        }
      ],
      "name": "getMember",
      "outputs": [
        {
          "components": [
            {
              "internalType": "address payable",
              "name": "wallet",
              "type": "address"
            },
            {
              "internalType": "string",
              "name": "name",
              "type": "string"
            },
            {
              "internalType": "bool",
              "name": "paidLastMonth",
              "type": "bool"
            },
            {
              "internalType": "bool",
              "name": "isSellingMembership",
              "type": "bool"
            }
          ],
          "internalType": "struct Chainclub.Member",
          "name": "",
          "type": "tuple"
        }
      ],
      "payable": false,
      "stateMutability": "view",
      "type": "function"
    },
    {
      "constant": true,
      "inputs": [],
      "name": "getMembers",
      "outputs": [
        {
          "components": [
            {
              "internalType": "address payable",
              "name": "wallet",
              "type": "address"
            },
            {
              "internalType": "string",
              "name": "name",
              "type": "string"
            },
            {
              "internalType": "bool",
              "name": "paidLastMonth",
              "type": "bool"
            },
            {
              "internalType": "bool",
              "name": "isSellingMembership",
              "type": "bool"
            }
          ],
          "internalType": "struct Chainclub.Member[]",
          "name": "",
          "type": "tuple[]"
        }
      ],
      "payable": false,
      "stateMutability": "view",
      "type": "function"
    },
    {
      "constant": true,
      "inputs": [],
      "name": "getMembershipPrice",
      "outputs": [
        {
          "internalType": "uint256",
          "name": "",
          "type": "uint256"
        }
      ],
      "payable": false,
      "stateMutability": "pure",
      "type": "function"
    },
    {
      "constant": true,
      "inputs": [
        {
          "internalType": "uint256",
          "name": "pollIndex",
          "type": "uint256"
        }
      ],
      "name": "getBooleanPollSubject",
      "outputs": [
        {
          "internalType": "string",
          "name": "",
          "type": "string"
        }
      ],
      "payable": false,
      "stateMutability": "view",
      "type": "function"
    },
    {
      "constant": true,
      "inputs": [
        {
          "internalType": "uint256",
          "name": "pollIndex",
          "type": "uint256"
        }
      ],
      "name": "getQuantityPollSubject",
      "outputs": [
        {
          "internalType": "string",
          "name": "",
          "type": "string"
        }
      ],
      "payable": false,
      "stateMutability": "view",
      "type": "function"
    },
    {
      "constant": true,
      "inputs": [
        {
          "internalType": "uint256",
          "name": "pollIndex",
          "type": "uint256"
        }
      ],
      "name": "getOptionsPollSubject",
      "outputs": [
        {
          "internalType": "string",
          "name": "",
          "type": "string"
        }
      ],
      "payable": false,
      "stateMutability": "view",
      "type": "function"
    },
    {
      "constant": true,
      "inputs": [
        {
          "internalType": "uint256",
          "name": "pollIndex",
          "type": "uint256"
        }
      ],
      "name": "getBooleanPollVotesCount",
      "outputs": [
        {
          "internalType": "uint256",
          "name": "",
          "type": "uint256"
        }
      ],
      "payable": false,
      "stateMutability": "view",
      "type": "function"
    },
    {
      "constant": true,
      "inputs": [
        {
          "internalType": "uint256",
          "name": "pollIndex",
          "type": "uint256"
        }
      ],
      "name": "getQuantityPollVotesCount",
      "outputs": [
        {
          "internalType": "uint256",
          "name": "",
          "type": "uint256"
        }
      ],
      "payable": false,
      "stateMutability": "view",
      "type": "function"
    },
    {
      "constant": true,
      "inputs": [
        {
          "internalType": "uint256",
          "name": "pollIndex",
          "type": "uint256"
        }
      ],
      "name": "getOptionsPollVotesCount",
      "outputs": [
        {
          "internalType": "uint256",
          "name": "",
          "type": "uint256"
        }
      ],
      "payable": false,
      "stateMutability": "view",
      "type": "function"
    }
  ],
  "bytecode": "0x60806040523480156200001157600080fd5b506040516200357c3803806200357c83398181016040526200003791908101906200029c565b336000806101000a81548173ffffffffffffffffffffffffffffffffffffffff021916908373ffffffffffffffffffffffffffffffffffffffff160217905550600160405180608001604052803373ffffffffffffffffffffffffffffffffffffffff168152602001838152602001600115158152602001600015158152509080600181540180825580915050906001820390600052602060002090600302016000909192909190915060008201518160000160006101000a81548173ffffffffffffffffffffffffffffffffffffffff021916908373ffffffffffffffffffffffffffffffffffffffff16021790555060208201518160010190805190602001906200014692919062000191565b5060408201518160020160006101000a81548160ff02191690831515021790555060608201518160020160016101000a81548160ff0219169083151502179055505050505062000372565b828054600181600116156101000203166002900490600052602060002090601f016020900481019282601f10620001d457805160ff191683800117855562000205565b8280016001018555821562000205579182015b8281111562000204578251825591602001919060010190620001e7565b5b50905062000214919062000218565b5090565b6200023d91905b80821115620002395760008160009055506001016200021f565b5090565b90565b600082601f8301126200025257600080fd5b81516200026962000263826200030f565b620002e1565b915080825260208301602083018583830111156200028657600080fd5b620002938382846200033c565b50505092915050565b600060208284031215620002af57600080fd5b600082015167ffffffffffffffff811115620002ca57600080fd5b620002d88482850162000240565b91505092915050565b6000604051905081810181811067ffffffffffffffff821117156200030557600080fd5b8060405250919050565b600067ffffffffffffffff8211156200032757600080fd5b601f19601f8301169050602081019050919050565b60005b838110156200035c5780820151818401526020810190506200033f565b838111156200036c576000848401525b50505050565b6131fa80620003826000396000f3fe6080604052600436106101815760003560e01c8063911c8107116100d1578063b14e4d161161008a578063dd4f33e611610064578063dd4f33e614610609578063e24bb95614610632578063f267efae1461066f578063f2d624071461069857610181565b8063b14e4d1614610566578063ba53e715146105a3578063ce5717f2146105e057610181565b8063911c81071461043057806393671a95146104475780639eab525314610484578063ab3545e5146104af578063ad890567146104ec578063aeceff6b1461052957610181565b80632ada25961161013e57806348b989581161011857806348b989581461038557806352ac34dd146103a15780636aefb518146103ca5780637645154c146103f357610181565b80632ada2596146102ce5780633e0582c21461030b57806344966dc81461034857610181565b80630f43f472146101865780631278076a146101af5780631b65db3d146101da5780631bcd29f81461021757806327e6af071461025457806329791e8e14610291575b600080fd5b34801561019257600080fd5b506101ad60048036036101a89190810190612634565b6106d5565b005b3480156101bb57600080fd5b506101c4610792565b6040516101d19190612e9d565b60405180910390f35b3480156101e657600080fd5b5061020160048036036101fc9190810190612707565b61079e565b60405161020e9190612e9d565b60405180910390f35b34801561022357600080fd5b5061023e60048036036102399190810190612707565b6107be565b60405161024b9190612daf565b60405180910390f35b34801561026057600080fd5b5061027b60048036036102769190810190612707565b610890565b6040516102889190612e9d565b60405180910390f35b34801561029d57600080fd5b506102b860048036036102b39190810190612707565b6108b8565b6040516102c59190612d6b565b60405180910390f35b3480156102da57600080fd5b506102f560048036036102f091908101906125ca565b610997565b6040516103029190612e37565b60405180910390f35b34801561031757600080fd5b50610332600480360361032d9190810190612707565b610b94565b60405161033f9190612e59565b60405180910390f35b34801561035457600080fd5b5061036f600480360361036a9190810190612707565b610d5e565b60405161037c9190612df3565b60405180910390f35b61039f600480360361039a91908101906125f3565b610e1e565b005b3480156103ad57600080fd5b506103c860048036036103c3919081019061276c565b611102565b005b3480156103d657600080fd5b506103f160048036036103ec9190810190612730565b6112de565b005b3480156103ff57600080fd5b5061041a60048036036104159190810190612707565b611475565b6040516104279190612e9d565b60405180910390f35b34801561043c57600080fd5b50610445611495565b005b34801561045357600080fd5b5061046e60048036036104699190810190612707565b611561565b60405161047b9190612df3565b60405180910390f35b34801561049057600080fd5b50610499611621565b6040516104a69190612d8d565b60405180910390f35b3480156104bb57600080fd5b506104d660048036036104d19190810190612707565b6117ae565b6040516104e39190612e37565b60405180910390f35b3480156104f857600080fd5b50610513600480360361050e9190810190612707565b611911565b6040516105209190612e9d565b60405180910390f35b34801561053557600080fd5b50610550600480360361054b9190810190612707565b611939565b60405161055d9190612e9d565b60405180910390f35b34801561057257600080fd5b5061058d60048036036105889190810190612707565b611959565b60405161059a9190612e7b565b60405180910390f35b3480156105af57600080fd5b506105ca60048036036105c59190810190612707565b611a4e565b6040516105d79190612df3565b60405180910390f35b3480156105ec57600080fd5b50610607600480360361060291908101906125f3565b611b0e565b005b34801561061557600080fd5b50610630600480360361062b91908101906126a0565b611ba7565b005b34801561063e57600080fd5b5061065960048036036106549190810190612707565b611c62565b6040516106669190612dd1565b60405180910390f35b34801561067b57600080fd5b506106966004803603610691919081019061276c565b611d34565b005b3480156106a457600080fd5b506106bf60048036036106ba9190810190612707565b611eb7565b6040516106cc9190612e15565b60405180910390f35b816106ef8160405180602001604052806000815250611f98565b156106f957600080fd5b600360405180606001604052806003805490508152602001858152602001848152509080600181540180825580915050906001820390600052602060002090600302016000909192909190915060008201518160000155602082015181600101908051906020019061076c929190612251565b5060408201518160020190805190602001906107899291906122d1565b50505050505050565b6000633b9aca00905090565b600060076000838152602001908152602001600020805490509050919050565b606060066000838152602001908152602001600020805480602002602001604051908101604052809291908181526020016000905b8282101561088557838290600052602060002090600202016040518060400160405290816000820160009054906101000a900473ffffffffffffffffffffffffffffffffffffffff1673ffffffffffffffffffffffffffffffffffffffff1673ffffffffffffffffffffffffffffffffffffffff168152602001600182015481525050815260200190600101906107f3565b505050509050919050565b60006002828154811061089f57fe5b9060005260206000209060040201600301549050919050565b606060076000838152602001908152602001600020805480602002602001604051908101604052809291908181526020016000905b8282101561098c578382906000526020600020016040518060400160405290816000820160009054906101000a900473ffffffffffffffffffffffffffffffffffffffff1673ffffffffffffffffffffffffffffffffffffffff1673ffffffffffffffffffffffffffffffffffffffff1681526020016000820160149054906101000a900460ff161515151581525050815260200190600101906108ed565b505050509050919050565b61099f612331565b60008090505b600180549050811015610b8d578273ffffffffffffffffffffffffffffffffffffffff16600182815481106109d657fe5b906000526020600020906003020160000160009054906101000a900473ffffffffffffffffffffffffffffffffffffffff1673ffffffffffffffffffffffffffffffffffffffff161415610b805760018181548110610a3157fe5b90600052602060002090600302016040518060800160405290816000820160009054906101000a900473ffffffffffffffffffffffffffffffffffffffff1673ffffffffffffffffffffffffffffffffffffffff1673ffffffffffffffffffffffffffffffffffffffff168152602001600182018054600181600116156101000203166002900480601f016020809104026020016040519081016040528092919081815260200182805460018160011615610100020316600290048015610b395780601f10610b0e57610100808354040283529160200191610b39565b820191906000526020600020905b815481529060010190602001808311610b1c57829003601f168201915b505050505081526020016002820160009054906101000a900460ff161515151581526020016002820160019054906101000a900460ff161515151581525050915050610b8f565b80806001019150506109a5565b505b919050565b610b9c612373565b60038281548110610ba957fe5b906000526020600020906003020160405180606001604052908160008201548152602001600182018054600181600116156101000203166002900480601f016020809104026020016040519081016040528092919081815260200182805460018160011615610100020316600290048015610c655780601f10610c3a57610100808354040283529160200191610c65565b820191906000526020600020905b815481529060010190602001808311610c4857829003601f168201915b5050505050815260200160028201805480602002602001604051908101604052809291908181526020016000905b82821015610d4f578382906000526020600020018054600181600116156101000203166002900480601f016020809104026020016040519081016040528092919081815260200182805460018160011615610100020316600290048015610d3b5780601f10610d1057610100808354040283529160200191610d3b565b820191906000526020600020905b815481529060010190602001808311610d1e57829003601f168201915b505050505081526020019060010190610c93565b50505050815250509050919050565b606060038281548110610d6d57fe5b90600052602060002090600302016001018054600181600116156101000203166002900480601f016020809104026020016040519081016040528092919081815260200182805460018160011615610100020316600290048015610e125780601f10610de757610100808354040283529160200191610e12565b820191906000526020600020905b815481529060010190602001808311610df557829003601f168201915b50505050509050919050565b34633b9aca00811015610e3057600080fd5b6103e861ffff166001805490501015610eb0576000809054906101000a900473ffffffffffffffffffffffffffffffffffffffff1673ffffffffffffffffffffffffffffffffffffffff166108fc349081150290604051600060405180830381858888f19350505050158015610eaa573d6000803e3d6000fd5b506110fe565b60008090505b6001805490508110156110fc5760018181548110610ed057fe5b906000526020600020906003020160020160019054906101000a900460ff168015610f6557503373ffffffffffffffffffffffffffffffffffffffff1660018281548110610f1a57fe5b906000526020600020906003020160000160009054906101000a900473ffffffffffffffffffffffffffffffffffffffff1673ffffffffffffffffffffffffffffffffffffffff1614155b156110ef5760405180608001604052803373ffffffffffffffffffffffffffffffffffffffff1681526020018481526020016001151581526020016000151581525060018281548110610fb457fe5b906000526020600020906003020160008201518160000160006101000a81548173ffffffffffffffffffffffffffffffffffffffff021916908373ffffffffffffffffffffffffffffffffffffffff1602179055506020820151816001019080519060200190611025929190612251565b5060408201518160020160006101000a81548160ff02191690831515021790555060608201518160020160016101000a81548160ff0219169083151502179055509050506001818154811061107657fe5b906000526020600020906003020160000160009054906101000a900473ffffffffffffffffffffffffffffffffffffffff1673ffffffffffffffffffffffffffffffffffffffff166108fc349081150290604051600060405180830381858888f193505050501580156110ed573d6000803e3d6000fd5b505b8080600101915050610eb6565b505b5050565b33600080905060008090505b60018054905081101561119f573373ffffffffffffffffffffffffffffffffffffffff166001828154811061113f57fe5b906000526020600020906003020160000160009054906101000a900473ffffffffffffffffffffffffffffffffffffffff1673ffffffffffffffffffffffffffffffffffffffff16141561119257600191505b808060010191505061110e565b50806111aa57600080fd5b838380600283815481106111ba57fe5b906000526020600020906004020160020154111580156111f8575080600283815481106111e357fe5b90600052602060002090600402016003015410155b61120157600080fd5b338661120d8282611ff1565b1561121757600080fd5b6005600089815260200190815260200160002060405180604001604052803373ffffffffffffffffffffffffffffffffffffffff168152602001898152509080600181540180825580915050906001820390600052602060002090600202016000909192909190915060008201518160000160006101000a81548173ffffffffffffffffffffffffffffffffffffffff021916908373ffffffffffffffffffffffffffffffffffffffff160217905550602082015181600101555050505050505050505050565b33600080905060008090505b60018054905081101561137b573373ffffffffffffffffffffffffffffffffffffffff166001828154811061131b57fe5b906000526020600020906003020160000160009054906101000a900473ffffffffffffffffffffffffffffffffffffffff1673ffffffffffffffffffffffffffffffffffffffff16141561136e57600191505b80806001019150506112ea565b508061138657600080fd5b338461139282826120bd565b1561139c57600080fd5b6007600087815260200190815260200160002060405180604001604052803373ffffffffffffffffffffffffffffffffffffffff16815260200187151581525090806001815401808255809150509060018203906000526020600020016000909192909190915060008201518160000160006101000a81548173ffffffffffffffffffffffffffffffffffffffff021916908373ffffffffffffffffffffffffffffffffffffffff16021790555060208201518160000160146101000a81548160ff021916908315150217905550505050505050505050565b600060056000838152602001908152602001600020805490509050919050565b60008090505b60018054905081101561155e573373ffffffffffffffffffffffffffffffffffffffff16600182815481106114cc57fe5b906000526020600020906003020160000160009054906101000a900473ffffffffffffffffffffffffffffffffffffffff1673ffffffffffffffffffffffffffffffffffffffff16141561155157600180828154811061152857fe5b906000526020600020906003020160020160016101000a81548160ff0219169083151502179055505b808060010191505061149b565b50565b60606002828154811061157057fe5b90600052602060002090600402016001018054600181600116156101000203166002900480601f0160208091040260200160405190810160405280929190818152602001828054600181600116156101000203166002900480156116155780601f106115ea57610100808354040283529160200191611615565b820191906000526020600020905b8154815290600101906020018083116115f857829003601f168201915b50505050509050919050565b60606001805480602002602001604051908101604052809291908181526020016000905b828210156117a557838290600052602060002090600302016040518060800160405290816000820160009054906101000a900473ffffffffffffffffffffffffffffffffffffffff1673ffffffffffffffffffffffffffffffffffffffff1673ffffffffffffffffffffffffffffffffffffffff168152602001600182018054600181600116156101000203166002900480601f0160208091040260200160405190810160405280929190818152602001828054600181600116156101000203166002900480156117575780601f1061172c57610100808354040283529160200191611757565b820191906000526020600020905b81548152906001019060200180831161173a57829003601f168201915b505050505081526020016002820160009054906101000a900460ff161515151581526020016002820160019054906101000a900460ff16151515158152505081526020019060010190611645565b50505050905090565b6117b6612331565b600182815481106117c357fe5b90600052602060002090600302016040518060800160405290816000820160009054906101000a900473ffffffffffffffffffffffffffffffffffffffff1673ffffffffffffffffffffffffffffffffffffffff1673ffffffffffffffffffffffffffffffffffffffff168152602001600182018054600181600116156101000203166002900480601f0160208091040260200160405190810160405280929190818152602001828054600181600116156101000203166002900480156118cb5780601f106118a0576101008083540402835291602001916118cb565b820191906000526020600020905b8154815290600101906020018083116118ae57829003601f168201915b505050505081526020016002820160009054906101000a900460ff161515151581526020016002820160019054906101000a900460ff1615151515815250509050919050565b60006002828154811061192057fe5b9060005260206000209060040201600201549050919050565b600060066000838152602001908152602001600020805490509050919050565b611961612394565b6002828154811061196e57fe5b906000526020600020906004020160405180608001604052908160008201548152602001600182018054600181600116156101000203166002900480601f016020809104026020016040519081016040528092919081815260200182805460018160011615610100020316600290048015611a2a5780601f106119ff57610100808354040283529160200191611a2a565b820191906000526020600020905b815481529060010190602001808311611a0d57829003601f168201915b50505050508152602001600282015481526020016003820154815250509050919050565b606060048281548110611a5d57fe5b90600052602060002090600202016001018054600181600116156101000203166002900480601f016020809104026020016040519081016040528092919081815260200182805460018160011615610100020316600290048015611b025780601f10611ad757610100808354040283529160200191611b02565b820191906000526020600020905b815481529060010190602001808311611ae557829003601f168201915b50505050509050919050565b80611b288160405180602001604052806000815250611f98565b15611b3257600080fd5b6004604051806040016040528060048054905081526020018481525090806001815401808255809150509060018203906000526020600020906002020160009091929091909150600082015181600001556020820151816001019080519060200190611b9f929190612251565b505050505050565b82611bc18160405180602001604052806000815250611f98565b15611bcb57600080fd5b6002604051806080016040528060028054905081526020018681526020018581526020018481525090806001815401808255809150509060018203906000526020600020906004020160009091929091909150600082015181600001556020820151816001019080519060200190611c44929190612251565b50604082015181600201556060820151816003015550505050505050565b606060056000838152602001908152602001600020805480602002602001604051908101604052809291908181526020016000905b82821015611d2957838290600052602060002090600202016040518060400160405290816000820160009054906101000a900473ffffffffffffffffffffffffffffffffffffffff1673ffffffffffffffffffffffffffffffffffffffff1673ffffffffffffffffffffffffffffffffffffffff16815260200160018201548152505081526020019060010190611c97565b505050509050919050565b33600080905060008090505b600180549050811015611dd1573373ffffffffffffffffffffffffffffffffffffffff1660018281548110611d7157fe5b906000526020600020906003020160000160009054906101000a900473ffffffffffffffffffffffffffffffffffffffff1673ffffffffffffffffffffffffffffffffffffffff161415611dc457600191505b8080600101915050611d40565b5080611ddc57600080fd5b3384611de88282612185565b15611df257600080fd5b6006600087815260200190815260200160002060405180604001604052803373ffffffffffffffffffffffffffffffffffffffff168152602001878152509080600181540180825580915050906001820390600052602060002090600202016000909192909190915060008201518160000160006101000a81548173ffffffffffffffffffffffffffffffffffffffff021916908373ffffffffffffffffffffffffffffffffffffffff16021790555060208201518160010155505050505050505050565b611ebf6123bc565b60048281548110611ecc57fe5b906000526020600020906002020160405180604001604052908160008201548152602001600182018054600181600116156101000203166002900480601f016020809104026020016040519081016040528092919081815260200182805460018160011615610100020316600290048015611f885780601f10611f5d57610100808354040283529160200191611f88565b820191906000526020600020905b815481529060010190602001808311611f6b57829003601f168201915b5050505050815250509050919050565b600081604051602001611fab9190612d54565b6040516020818303038152906040528051906020012083604051602001611fd29190612d54565b6040516020818303038152906040528051906020012014905092915050565b600080600090505b60056000848152602001908152602001600020805490508110156120b15760056000848152602001908152602001600020818154811061203557fe5b906000526020600020906002020160000160009054906101000a900473ffffffffffffffffffffffffffffffffffffffff1673ffffffffffffffffffffffffffffffffffffffff168473ffffffffffffffffffffffffffffffffffffffff1614156120a45760019150506120b7565b8080600101915050611ff9565b50600090505b92915050565b600080600090505b60076000848152602001908152602001600020805490508110156121795760076000848152602001908152602001600020818154811061210157fe5b9060005260206000200160000160009054906101000a900473ffffffffffffffffffffffffffffffffffffffff1673ffffffffffffffffffffffffffffffffffffffff168473ffffffffffffffffffffffffffffffffffffffff16141561216c57600191505061217f565b80806001019150506120c5565b50600090505b92915050565b600080600090505b6006600084815260200190815260200160002080549050811015612245576006600084815260200190815260200160002081815481106121c957fe5b906000526020600020906002020160000160009054906101000a900473ffffffffffffffffffffffffffffffffffffffff1673ffffffffffffffffffffffffffffffffffffffff168473ffffffffffffffffffffffffffffffffffffffff16141561223857600191505061224b565b808060010191505061218d565b50600090505b92915050565b828054600181600116156101000203166002900490600052602060002090601f016020900481019282601f1061229257805160ff19168380011785556122c0565b828001600101855582156122c0579182015b828111156122bf5782518255916020019190600101906122a4565b5b5090506122cd91906123d6565b5090565b828054828255906000526020600020908101928215612320579160200282015b8281111561231f57825182908051906020019061230f929190612251565b50916020019190600101906122f1565b5b50905061232d91906123fb565b5090565b6040518060800160405280600073ffffffffffffffffffffffffffffffffffffffff168152602001606081526020016000151581526020016000151581525090565b60405180606001604052806000815260200160608152602001606081525090565b6040518060800160405280600081526020016060815260200160008152602001600081525090565b604051806040016040528060008152602001606081525090565b6123f891905b808211156123f45760008160009055506001016123dc565b5090565b90565b61242491905b8082111561242057600081816124179190612427565b50600101612401565b5090565b90565b50805460018160011615610100020316600290046000825580601f1061244d575061246c565b601f01602090049060005260206000209081019061246b91906123d6565b5b50565b60008135905061247e81613172565b92915050565b600082601f83011261249557600080fd5b81356124a86124a382612ee5565b612eb8565b9150818183526020840193506020810190508360005b838110156124ee57813586016124d4888261250d565b8452602084019350602083019250506001810190506124be565b5050505092915050565b60008135905061250781613189565b92915050565b600082601f83011261251e57600080fd5b813561253161252c82612f0d565b612eb8565b9150808252602083016020830185838301111561254d57600080fd5b61255883828461311f565b50505092915050565b600082601f83011261257257600080fd5b813561258561258082612f39565b612eb8565b915080825260208301602083018583830111156125a157600080fd5b6125ac83828461311f565b50505092915050565b6000813590506125c4816131a0565b92915050565b6000602082840312156125dc57600080fd5b60006125ea8482850161246f565b91505092915050565b60006020828403121561260557600080fd5b600082013567ffffffffffffffff81111561261f57600080fd5b61262b84828501612561565b91505092915050565b6000806040838503121561264757600080fd5b600083013567ffffffffffffffff81111561266157600080fd5b61266d85828601612561565b925050602083013567ffffffffffffffff81111561268a57600080fd5b61269685828601612484565b9150509250929050565b6000806000606084860312156126b557600080fd5b600084013567ffffffffffffffff8111156126cf57600080fd5b6126db86828701612561565b93505060206126ec868287016125b5565b92505060406126fd868287016125b5565b9150509250925092565b60006020828403121561271957600080fd5b6000612727848285016125b5565b91505092915050565b6000806040838503121561274357600080fd5b6000612751858286016125b5565b9250506020612762858286016124f8565b9150509250929050565b6000806040838503121561277f57600080fd5b600061278d858286016125b5565b925050602061279e858286016125b5565b9150509250929050565b60006127b48383612ab3565b905092915050565b60006127c88383612b29565b60408301905092915050565b60006127e08383612bbb565b905092915050565b60006127f48383612c1e565b60408301905092915050565b600061280c8383612d07565b60408301905092915050565b612821816130d7565b82525050565b612830816130c5565b82525050565b600061284182612fb5565b61284b8185613043565b93508360208202850161285d85612f65565b8060005b85811015612899578484038952815161287a85826127a8565b945061288583613002565b925060208a01995050600181019050612861565b50829750879550505050505092915050565b60006128b682612fc0565b6128c08185613054565b93506128cb83612f75565b8060005b838110156128fc5781516128e388826127bc565b97506128ee8361300f565b9250506001810190506128cf565b5085935050505092915050565b600061291482612fcb565b61291e8185613065565b93508360208202850161293085612f85565b8060005b8581101561296c578484038952815161294d85826127d4565b94506129588361301c565b925060208a01995050600181019050612934565b50829750879550505050505092915050565b600061298982612fd6565b6129938185613076565b935061299e83612f95565b8060005b838110156129cf5781516129b688826127e8565b97506129c183613029565b9250506001810190506129a2565b5085935050505092915050565b60006129e782612fe1565b6129f18185613087565b93506129fc83612fa5565b8060005b83811015612a2d578151612a148882612800565b9750612a1f83613036565b925050600181019050612a00565b5085935050505092915050565b612a43816130e9565b82525050565b6000612a5482612ff7565b612a5e81856130a9565b9350612a6e81856020860161312e565b612a7781613161565b840191505092915050565b6000612a8d82612ff7565b612a9781856130ba565b9350612aa781856020860161312e565b80840191505092915050565b6000612abe82612fec565b612ac88185613098565b9350612ad881856020860161312e565b612ae181613161565b840191505092915050565b6000604083016000830151612b046000860182612d36565b5060208301518482036020860152612b1c8282612ab3565b9150508091505092915050565b604082016000820151612b3f6000850182612827565b506020820151612b526020850182612a3a565b50505050565b6000608083016000830151612b706000860182612818565b5060208301518482036020860152612b888282612ab3565b9150506040830151612b9d6040860182612a3a565b506060830151612bb06060860182612a3a565b508091505092915050565b6000608083016000830151612bd36000860182612818565b5060208301518482036020860152612beb8282612ab3565b9150506040830151612c006040860182612a3a565b506060830151612c136060860182612a3a565b508091505092915050565b604082016000820151612c346000850182612827565b506020820151612c476020850182612d36565b50505050565b6000606083016000830151612c656000860182612d36565b5060208301518482036020860152612c7d8282612ab3565b91505060408301518482036040860152612c978282612836565b9150508091505092915050565b6000608083016000830151612cbc6000860182612d36565b5060208301518482036020860152612cd48282612ab3565b9150506040830151612ce96040860182612d36565b506060830151612cfc6060860182612d36565b508091505092915050565b604082016000820151612d1d6000850182612827565b506020820151612d306020850182612d36565b50505050565b612d3f81613115565b82525050565b612d4e81613115565b82525050565b6000612d608284612a82565b915081905092915050565b60006020820190508181036000830152612d8581846128ab565b905092915050565b60006020820190508181036000830152612da78184612909565b905092915050565b60006020820190508181036000830152612dc9818461297e565b905092915050565b60006020820190508181036000830152612deb81846129dc565b905092915050565b60006020820190508181036000830152612e0d8184612a49565b905092915050565b60006020820190508181036000830152612e2f8184612aec565b905092915050565b60006020820190508181036000830152612e518184612b58565b905092915050565b60006020820190508181036000830152612e738184612c4d565b905092915050565b60006020820190508181036000830152612e958184612ca4565b905092915050565b6000602082019050612eb26000830184612d45565b92915050565b6000604051905081810181811067ffffffffffffffff82111715612edb57600080fd5b8060405250919050565b600067ffffffffffffffff821115612efc57600080fd5b602082029050602081019050919050565b600067ffffffffffffffff821115612f2457600080fd5b601f19601f8301169050602081019050919050565b600067ffffffffffffffff821115612f5057600080fd5b601f19601f8301169050602081019050919050565b6000819050602082019050919050565b6000819050602082019050919050565b6000819050602082019050919050565b6000819050602082019050919050565b6000819050602082019050919050565b600081519050919050565b600081519050919050565b600081519050919050565b600081519050919050565b600081519050919050565b600081519050919050565b600081519050919050565b6000602082019050919050565b6000602082019050919050565b6000602082019050919050565b6000602082019050919050565b6000602082019050919050565b600082825260208201905092915050565b600082825260208201905092915050565b600082825260208201905092915050565b600082825260208201905092915050565b600082825260208201905092915050565b600082825260208201905092915050565b600082825260208201905092915050565b600081905092915050565b60006130d0826130f5565b9050919050565b60006130e2826130f5565b9050919050565b60008115159050919050565b600073ffffffffffffffffffffffffffffffffffffffff82169050919050565b6000819050919050565b82818337600083830152505050565b60005b8381101561314c578082015181840152602081019050613131565b8381111561315b576000848401525b50505050565b6000601f19601f8301169050919050565b61317b816130c5565b811461318657600080fd5b50565b613192816130e9565b811461319d57600080fd5b50565b6131a981613115565b81146131b457600080fd5b5056fea365627a7a72315820760a9fbe4af9787f2930a620dccddef5f90f8c75a34d545795bf74d5e706c04f6c6578706572696d656e74616cf564736f6c634300050c0040",
  "source": "pragma solidity >=0.4.22 <0.6.0;\npragma experimental ABIEncoderV2;\n\ncontract Chainclub {\n    \n    struct Member {\n        address payable wallet;\n        string name;\n        bool paidLastMonth;\n        bool isSellingMembership;\n    }\n    \n    struct BooleanPoll {    \n        uint pollIndex;\n        string subject;     // Ex: Vamos investir em algo para o clube?\n    }\n    \n    struct OptionsPoll {    \n        uint pollIndex; \n        string subject;     // Ex: No que vamos investir?\n        string[] options;   // \"Piscina de ondas\", \"Pista de corrida\", \"Torre de bung jump\"\n    }\n    \n    struct QuantityPoll {\n        uint pollIndex;\n        string subject;     // Ex: Quantos reais gastaremos no nosso novo investimento?\n        uint bottomLimit;\n        uint topLimit;\n    }\n    \n    struct BooleanVote {\n        address owner;\n        bool yesOrNo;\n    }\n    \n    struct OptionVote {\n        address owner;\n        uint optionIndex;\n    }\n\n    struct QuantityVote {\n        address owner;\n        uint quantity;      \n    }\n    \n    modifier didNotVoteOnBooleanPoll(address memberAddress, uint pollIndex) {\n        require(!alreadyVotedOnBooleanPoll(memberAddress, pollIndex)); _;\n    }\n    \n    modifier didNotVoteOnQuantityPoll(address memberAddress, uint pollIndex) {\n        require(!alreadyVotedOnQuantityPoll(memberAddress, pollIndex)); _;\n    }\n    \n    modifier didNotVoteOnOptionsPoll(address memberAddress, uint pollIndex) {\n        require(!alreadyVotedOnOptionsPoll(memberAddress, pollIndex)); _;\n    }\n    \n    modifier isNotEmpty(string memory pollSubject) { \n        require(!stringsAreEqual(pollSubject, \"\")); _; \n    }\n    \n    modifier moneyIsEnough(uint value) { \n        require(value >= MEMBERSHIP_PRICE_IN_WEI); _; \n    }\n    \n    modifier isMember(address addr) {\n        bool boolean = false; \n        for (uint i = 0; i < members.length; i++) {\n            if (members[i].wallet == msg.sender) {\n                boolean = true;\n            }\n        }\n        require(boolean); _;\n    }\n    \n    modifier isOnLimit(uint pollIndex, uint quantity) {\n        require (quantityPolls[pollIndex].bottomLimit <= quantity && quantityPolls[pollIndex].topLimit >= quantity); _;\n    }\n    \n    // Enums\n    uint16 constant MAX_MEMBERS = 1000;\n    uint constant MEMBERSHIP_PRICE_IN_WEI = 1000000000;\n    \n    address payable contractOwner;\n    \n    Member[] members; // guarda todos membros \n    QuantityPoll[] quantityPolls;   // guarda todas enquetes de quantidade\n    OptionsPoll[] optionsPolls;     // guarda todas enquetes de opes\n    BooleanPoll[] booleanPolls;     // guarda todas enquetes de sim / nao\n    mapping (uint => QuantityVote[]) quantityPollsVotes;    // d o ndice da enquete e recebe um array de votos\n    mapping (uint => OptionVote[]) optionsPollsVotes;       // d o ndice da enquete e recebe um array de votos\n    mapping (uint => BooleanVote[]) booleanPollsVotes;      // d o ndice da enquete e recebe um array de votos\n\n    constructor(string memory yourFullName) public {\n        contractOwner = msg.sender;\n        members.push(\n            Member(\n                msg.sender, yourFullName, true, false\n            )\n        );\n    }\n    \n    function startBooleanPoll (string memory pollSubject) \n    public isNotEmpty(pollSubject) {\n        booleanPolls.push(\n            BooleanPoll(\n                booleanPolls.length, pollSubject\n            )\n        );\n    }\n    \n    function startQuantityPoll (string memory pollSubject, uint bottomLimit, uint topLimit) \n    public isNotEmpty(pollSubject) {\n        quantityPolls.push(\n            QuantityPoll(\n                quantityPolls.length, pollSubject, bottomLimit, topLimit\n            )\n        );\n    }\n    \n    function startOptionsPoll (string memory pollSubject, string[] memory options) \n    public isNotEmpty(pollSubject) {\n        optionsPolls.push(\n            OptionsPoll(\n                optionsPolls.length, pollSubject, options\n            )\n        );\n    }\n    \n    function voteOnBooleanPool(uint pollIndex, bool boolean) \n    public isMember(msg.sender) didNotVoteOnBooleanPoll(msg.sender, pollIndex) {\n        booleanPollsVotes[pollIndex].push(\n            BooleanVote(\n                msg.sender, boolean\n            )\n        );\n    }\n    \n    function voteOnQuantityPool(uint pollIndex, uint quantity) \n    public isMember(msg.sender) isOnLimit(pollIndex, quantity) didNotVoteOnQuantityPoll(msg.sender, pollIndex) {\n        quantityPollsVotes[pollIndex].push(\n            QuantityVote(\n                msg.sender, quantity\n            )\n        );\n    }\n    \n    function voteOnOptionPool(uint pollIndex, uint option) \n    public isMember(msg.sender) didNotVoteOnOptionsPoll(msg.sender, pollIndex) {\n        optionsPollsVotes[pollIndex].push(\n            OptionVote(\n                msg.sender, option\n            )\n        );\n    }\n    \n    function buyMembership(string memory buyerName) payable \n    public moneyIsEnough(msg.value) {\n        \n        // Dinheiro vai pro fundador\n        if (members.length < MAX_MEMBERS) {\n            contractOwner.transfer(msg.value);\n        }\n        \n        // Procura membro que esteja vendendo\n        else { \n            for (uint i = 0; i < members.length; i++) {\n                \n                if (members[i].isSellingMembership && members[i].wallet != msg.sender) {\n                    members[i] = Member(\n                        msg.sender, buyerName, true, false\n                    );\n                    \n                    // Dinheiro vai pro membro que ta vendendo\n                    members[i].wallet.transfer(msg.value);\n                }\n            }\n        }\n    }\n    \n    function sellMembership () public {\n        for (uint i = 0; i < members.length; i++) {\n            if (members[i].wallet == msg.sender) {\n                members[i].isSellingMembership = true;\n            }\n        }\n        \n    }\n    \n    //////////////// SIMPLE GETTERS ////////////////\n\n    function getQuantityPollBottomLimit (uint pollIndex) public view returns (uint) {\n        return quantityPolls[pollIndex].bottomLimit;\n    }\n\n    function getQuantityPollTopLimit (uint pollIndex) public view returns (uint) {\n        return quantityPolls[pollIndex].topLimit;\n    }\n    \n    function getBooleanPoll (uint pollIndex) public view returns (BooleanPoll memory) {\n        return booleanPolls[pollIndex];\n    }\n    \n    function getQuantityPoll (uint pollIndex) public view returns (QuantityPoll memory) {\n        return quantityPolls[pollIndex];\n    }\n    \n    function getOptionsPoll (uint pollIndex) public view returns (OptionsPoll memory) {\n        return optionsPolls[pollIndex];\n    }\n    \n    function getBooleanPollVotes (uint pollIndex) public view returns (BooleanVote[] memory) {\n        return booleanPollsVotes[pollIndex];\n    }\n    \n    function getQuantityPollVotes (uint pollIndex) public view returns (QuantityVote[] memory) {\n        return quantityPollsVotes[pollIndex];\n    }\n    \n    function getOptionsPollVotes (uint pollIndex) public view returns (OptionVote[] memory) {\n        return optionsPollsVotes[pollIndex];\n    }\n    \n    function getMember (uint memberIndex) public view returns (Member memory) {\n        return members[memberIndex];\n    }\n    \n    function getMember (address memberAddress) public view returns (Member memory) {\n        for (uint i = 0; i < members.length; i++) {\n            if (members[i].wallet == memberAddress) {\n                return members[i];\n            }\n        }\n    }\n    \n    function getMembers () public view returns (Member[] memory) {\n        return members;\n    }\n    \n    function getMembershipPrice() public pure returns (uint) {\n        return MEMBERSHIP_PRICE_IN_WEI;\n    }\n    \n    ///// FUNCOES QUE BUGAM NO REMIX IDE SEM ENABLE OPTIMIZATION //////\n    \n    function getBooleanPollSubject (uint pollIndex) public view returns (string memory) {\n        return booleanPolls[pollIndex].subject;\n    }\n    \n    function getQuantityPollSubject (uint pollIndex) public view returns (string memory) {\n        return quantityPolls[pollIndex].subject;\n    }\n    \n    function getOptionsPollSubject (uint pollIndex) public view returns (string memory) {\n        return optionsPolls[pollIndex].subject;\n    }\n    \n    function getBooleanPollVotesCount (uint pollIndex) public view returns (uint) {\n        return booleanPollsVotes[pollIndex].length;\n    }\n    \n    function getQuantityPollVotesCount (uint pollIndex) public view returns (uint) {\n        return quantityPollsVotes[pollIndex].length;\n    }\n    \n    function getOptionsPollVotesCount (uint pollIndex) public view returns (uint) {\n        return optionsPollsVotes[pollIndex].length;\n    }\n    \n    //////////////// PRIVATE FUNCTIONS ////////////////\n    \n    function stringsAreEqual (string memory a, string memory b) private pure returns (bool) {\n        return (keccak256(abi.encodePacked((a))) == keccak256(abi.encodePacked((b))) );\n    }\n    \n    function alreadyVotedOnBooleanPoll (address memberAddress, uint pollIndex) private view returns (bool) {\n        for (uint i = 0; i < booleanPollsVotes[pollIndex].length; i++) {\n            if (memberAddress == booleanPollsVotes[pollIndex][i].owner) {\n                return true;\n            }\n        }\n        return false;\n    }\n    \n    function alreadyVotedOnQuantityPoll (address memberAddress, uint pollIndex) private view returns (bool) {\n        for (uint i = 0; i < quantityPollsVotes[pollIndex].length; i++) {\n            if (memberAddress == quantityPollsVotes[pollIndex][i].owner) {\n                return true;\n            }\n        }\n        return false;\n    }\n    \n    function alreadyVotedOnOptionsPoll (address memberAddress, uint pollIndex) private view returns (bool) {\n        for (uint i = 0; i < optionsPollsVotes[pollIndex].length; i++) {\n            if (memberAddress == optionsPollsVotes[pollIndex][i].owner) {\n                return true;\n            }\n        }\n        return false;\n    }\n}",
  "sourcePath": "/Users/rlveiga/projects/DAO/contracts/Chainclub.sol",
  "compiler": {
    "name": "solc",
    "version": "0.5.12+commit.7709ece9.Emscripten.clang"
  },
  "schemaVersion": "3.0.19",
  "updatedAt": "2019-12-06T04:45:37.865Z",
  "networkType": "ethereum",
  "devdoc": {
    "methods": {}
  },
  "userdoc": {
    "methods": {
      "getBooleanPollSubject(uint256)": {
        "notice": "// FUNCOES QUE BUGAM NO REMIX IDE SEM ENABLE OPTIMIZATION //////"
      },
      "getQuantityPollBottomLimit(uint256)": {
        "notice": "///////////// SIMPLE GETTERS ////////////////"
      }
    }
  }
}