{
  "contractName": "Chainclub2",
  "abi": [
    {
      "inputs": [
        {
          "internalType": "string",
          "name": "yourFullName",
          "type": "string"
        }
      ],
      "payable": false,
      "stateMutability": "nonpayable",
      "type": "constructor"
    },
    {
      "constant": false,
      "inputs": [
        {
          "internalType": "string",
          "name": "pollSubject",
          "type": "string"
        }
      ],
      "name": "startBooleanPoll",
      "outputs": [],
      "payable": false,
      "stateMutability": "nonpayable",
      "type": "function"
    },
    {
      "constant": false,
      "inputs": [
        {
          "internalType": "string",
          "name": "pollSubject",
          "type": "string"
        }
      ],
      "name": "startQuantityPoll",
      "outputs": [],
      "payable": false,
      "stateMutability": "nonpayable",
      "type": "function"
    },
    {
      "constant": false,
      "inputs": [
        {
          "internalType": "string",
          "name": "pollSubject",
          "type": "string"
        },
        {
          "internalType": "string[]",
          "name": "options",
          "type": "string[]"
        }
      ],
      "name": "startOptionsPoll",
      "outputs": [],
      "payable": false,
      "stateMutability": "nonpayable",
      "type": "function"
    },
    {
      "constant": false,
      "inputs": [
        {
          "internalType": "uint256",
          "name": "pollIndex",
          "type": "uint256"
        },
        {
          "internalType": "bool",
          "name": "boolean",
          "type": "bool"
        }
      ],
      "name": "voteOnBooleanPool",
      "outputs": [],
      "payable": false,
      "stateMutability": "nonpayable",
      "type": "function"
    },
    {
      "constant": false,
      "inputs": [
        {
          "internalType": "uint256",
          "name": "pollIndex",
          "type": "uint256"
        },
        {
          "internalType": "uint256",
          "name": "quantity",
          "type": "uint256"
        }
      ],
      "name": "voteOnQuantityPool",
      "outputs": [],
      "payable": false,
      "stateMutability": "nonpayable",
      "type": "function"
    },
    {
      "constant": false,
      "inputs": [
        {
          "internalType": "uint256",
          "name": "pollIndex",
          "type": "uint256"
        },
        {
          "internalType": "uint256",
          "name": "option",
          "type": "uint256"
        }
      ],
      "name": "voteOnOptionPool",
      "outputs": [],
      "payable": false,
      "stateMutability": "nonpayable",
      "type": "function"
    },
    {
      "constant": false,
      "inputs": [
        {
          "internalType": "string",
          "name": "buyerName",
          "type": "string"
        }
      ],
      "name": "buyMembership",
      "outputs": [],
      "payable": true,
      "stateMutability": "payable",
      "type": "function"
    },
    {
      "constant": false,
      "inputs": [],
      "name": "sellMembership",
      "outputs": [],
      "payable": false,
      "stateMutability": "nonpayable",
      "type": "function"
    },
    {
      "constant": true,
      "inputs": [
        {
          "internalType": "uint256",
          "name": "pollIndex",
          "type": "uint256"
        }
      ],
      "name": "getBooleanPoll",
      "outputs": [
        {
          "components": [
            {
              "internalType": "uint256",
              "name": "pollIndex",
              "type": "uint256"
            },
            {
              "internalType": "string",
              "name": "subject",
              "type": "string"
            }
          ],
          "internalType": "struct Chainclub2.BooleanPoll",
          "name": "",
          "type": "tuple"
        }
      ],
      "payable": false,
      "stateMutability": "view",
      "type": "function"
    },
    {
      "constant": true,
      "inputs": [
        {
          "internalType": "uint256",
          "name": "pollIndex",
          "type": "uint256"
        }
      ],
      "name": "getQuantityPoll",
      "outputs": [
        {
          "components": [
            {
              "internalType": "uint256",
              "name": "pollIndex",
              "type": "uint256"
            },
            {
              "internalType": "string",
              "name": "subject",
              "type": "string"
            }
          ],
          "internalType": "struct Chainclub2.QuantityPoll",
          "name": "",
          "type": "tuple"
        }
      ],
      "payable": false,
      "stateMutability": "view",
      "type": "function"
    },
    {
      "constant": true,
      "inputs": [
        {
          "internalType": "uint256",
          "name": "pollIndex",
          "type": "uint256"
        }
      ],
      "name": "getOptionPoll",
      "outputs": [
        {
          "components": [
            {
              "internalType": "uint256",
              "name": "pollIndex",
              "type": "uint256"
            },
            {
              "internalType": "string",
              "name": "subject",
              "type": "string"
            },
            {
              "internalType": "string[]",
              "name": "options",
              "type": "string[]"
            }
          ],
          "internalType": "struct Chainclub2.OptionsPoll",
          "name": "",
          "type": "tuple"
        }
      ],
      "payable": false,
      "stateMutability": "view",
      "type": "function"
    },
    {
      "constant": true,
      "inputs": [
        {
          "internalType": "uint256",
          "name": "pollIndex",
          "type": "uint256"
        }
      ],
      "name": "getBooleanPollVotes",
      "outputs": [
        {
          "components": [
            {
              "internalType": "address",
              "name": "owner",
              "type": "address"
            },
            {
              "internalType": "bool",
              "name": "yesOrNo",
              "type": "bool"
            }
          ],
          "internalType": "struct Chainclub2.BooleanVote[]",
          "name": "",
          "type": "tuple[]"
        }
      ],
      "payable": false,
      "stateMutability": "view",
      "type": "function"
    },
    {
      "constant": true,
      "inputs": [
        {
          "internalType": "uint256",
          "name": "pollIndex",
          "type": "uint256"
        }
      ],
      "name": "getQuantityPollVotes",
      "outputs": [
        {
          "components": [
            {
              "internalType": "address",
              "name": "owner",
              "type": "address"
            },
            {
              "internalType": "uint256",
              "name": "quantity",
              "type": "uint256"
            }
          ],
          "internalType": "struct Chainclub2.QuantityVote[]",
          "name": "",
          "type": "tuple[]"
        }
      ],
      "payable": false,
      "stateMutability": "view",
      "type": "function"
    },
    {
      "constant": true,
      "inputs": [
        {
          "internalType": "uint256",
          "name": "pollIndex",
          "type": "uint256"
        }
      ],
      "name": "getOptionsPollVotes",
      "outputs": [
        {
          "components": [
            {
              "internalType": "address",
              "name": "owner",
              "type": "address"
            },
            {
              "internalType": "uint256",
              "name": "optionIndex",
              "type": "uint256"
            }
          ],
          "internalType": "struct Chainclub2.OptionVote[]",
          "name": "",
          "type": "tuple[]"
        }
      ],
      "payable": false,
      "stateMutability": "view",
      "type": "function"
    },
    {
      "constant": true,
      "inputs": [
        {
          "internalType": "address",
          "name": "memberAddress",
          "type": "address"
        }
      ],
      "name": "getMember",
      "outputs": [
        {
          "components": [
            {
              "internalType": "address",
              "name": "wallet",
              "type": "address"
            },
            {
              "internalType": "string",
              "name": "name",
              "type": "string"
            },
            {
              "internalType": "bool",
              "name": "paidLastMonth",
              "type": "bool"
            },
            {
              "internalType": "bool",
              "name": "isSellingMembership",
              "type": "bool"
            }
          ],
          "internalType": "struct Chainclub2.Member",
          "name": "",
          "type": "tuple"
        }
      ],
      "payable": false,
      "stateMutability": "view",
      "type": "function"
    },
    {
      "constant": true,
      "inputs": [
        {
          "internalType": "uint256",
          "name": "memberIndex",
          "type": "uint256"
        }
      ],
      "name": "getMember",
      "outputs": [
        {
          "components": [
            {
              "internalType": "address",
              "name": "wallet",
              "type": "address"
            },
            {
              "internalType": "string",
              "name": "name",
              "type": "string"
            },
            {
              "internalType": "bool",
              "name": "paidLastMonth",
              "type": "bool"
            },
            {
              "internalType": "bool",
              "name": "isSellingMembership",
              "type": "bool"
            }
          ],
          "internalType": "struct Chainclub2.Member",
          "name": "",
          "type": "tuple"
        }
      ],
      "payable": false,
      "stateMutability": "view",
      "type": "function"
    },
    {
      "constant": true,
      "inputs": [],
      "name": "getMembers",
      "outputs": [
        {
          "components": [
            {
              "internalType": "address",
              "name": "wallet",
              "type": "address"
            },
            {
              "internalType": "string",
              "name": "name",
              "type": "string"
            },
            {
              "internalType": "bool",
              "name": "paidLastMonth",
              "type": "bool"
            },
            {
              "internalType": "bool",
              "name": "isSellingMembership",
              "type": "bool"
            }
          ],
          "internalType": "struct Chainclub2.Member[]",
          "name": "",
          "type": "tuple[]"
        }
      ],
      "payable": false,
      "stateMutability": "view",
      "type": "function"
    }
  ],
  "bytecode": "0x60806040523480156200001157600080fd5b50604051620029d8380380620029d883398181016040526200003791908101906200025c565b600060405180608001604052803373ffffffffffffffffffffffffffffffffffffffff168152602001838152602001600115158152602001600015158152509080600181540180825580915050906001820390600052602060002090600302016000909192909190915060008201518160000160006101000a81548173ffffffffffffffffffffffffffffffffffffffff021916908373ffffffffffffffffffffffffffffffffffffffff16021790555060208201518160010190805190602001906200010692919062000151565b5060408201518160020160006101000a81548160ff02191690831515021790555060608201518160020160016101000a81548160ff0219169083151502179055505050505062000332565b828054600181600116156101000203166002900490600052602060002090601f016020900481019282601f106200019457805160ff1916838001178555620001c5565b82800160010185558215620001c5579182015b82811115620001c4578251825591602001919060010190620001a7565b5b509050620001d49190620001d8565b5090565b620001fd91905b80821115620001f9576000816000905550600101620001df565b5090565b90565b600082601f8301126200021257600080fd5b8151620002296200022382620002cf565b620002a1565b915080825260208301602083018583830111156200024657600080fd5b62000253838284620002fc565b50505092915050565b6000602082840312156200026f57600080fd5b600082015167ffffffffffffffff8111156200028a57600080fd5b620002988482850162000200565b91505092915050565b6000604051905081810181811067ffffffffffffffff82111715620002c557600080fd5b8060405250919050565b600067ffffffffffffffff821115620002e757600080fd5b601f19601f8301169050602081019050919050565b60005b838110156200031c578082015181840152602081019050620002ff565b838111156200032c576000848401525b50505050565b61269680620003426000396000f3fe6080604052600436106100fe5760003560e01c80636cf5736711610095578063b14e4d1611610064578063b14e4d1614610336578063ce5717f214610373578063e24bb9561461039c578063f267efae146103d9578063f2d6240714610402576100fe565b80636cf573671461027a578063911c8107146102b75780639eab5253146102ce578063ab3545e5146102f9576100fe565b806348b98958116100d157806348b98958146101e357806351df24e0146101ff57806352ac34dd146102285780636aefb51814610251576100fe565b80630f43f472146101035780631bcd29f81461012c57806329791e8e146101695780632ada2596146101a6575b600080fd5b34801561010f57600080fd5b5061012a60048036036101259190810190611c14565b61043f565b005b34801561013857600080fd5b50610153600480360361014e9190810190611c80565b6104fc565b60405161016091906122ab565b60405180910390f35b34801561017557600080fd5b50610190600480360361018b9190810190611c80565b6105ce565b60405161019d9190612267565b60405180910390f35b3480156101b257600080fd5b506101cd60048036036101c89190810190611baa565b6106ad565b6040516101da9190612311565b60405180910390f35b6101fd60048036036101f89190810190611bd3565b6108aa565b005b34801561020b57600080fd5b5061022660048036036102219190810190611bd3565b610a65565b005b34801561023457600080fd5b5061024f600480360361024a9190810190611ce5565b610afe565b005b34801561025d57600080fd5b5061027860048036036102739190810190611ca9565b610bd7565b005b34801561028657600080fd5b506102a1600480360361029c9190810190611c80565b610cc4565b6040516102ae9190612333565b60405180910390f35b3480156102c357600080fd5b506102cc610e8e565b005b3480156102da57600080fd5b506102e3610e90565b6040516102f09190612289565b60405180910390f35b34801561030557600080fd5b50610320600480360361031b9190810190611c80565b61101d565b60405161032d9190612311565b60405180910390f35b34801561034257600080fd5b5061035d60048036036103589190810190611c80565b611180565b60405161036a9190612355565b60405180910390f35b34801561037f57600080fd5b5061039a60048036036103959190810190611bd3565b611261565b005b3480156103a857600080fd5b506103c360048036036103be9190810190611c80565b6112fa565b6040516103d091906122cd565b60405180910390f35b3480156103e557600080fd5b5061040060048036036103fb9190810190611ce5565b6113cc565b005b34801561040e57600080fd5b5061042960048036036104249190810190611c80565b6114a5565b60405161043691906122ef565b60405180910390f35b816104598160405180602001604052806000815250611586565b1561046357600080fd5b60026040518060600160405280600280549050815260200185815260200184815250908060018154018082558091505090600182039060005260206000209060030201600090919290919091506000820151816000015560208201518160010190805190602001906104d692919061183f565b5060408201518160020190805190602001906104f39291906118bf565b50505050505050565b606060056000838152602001908152602001600020805480602002602001604051908101604052809291908181526020016000905b828210156105c357838290600052602060002090600202016040518060400160405290816000820160009054906101000a900473ffffffffffffffffffffffffffffffffffffffff1673ffffffffffffffffffffffffffffffffffffffff1673ffffffffffffffffffffffffffffffffffffffff16815260200160018201548152505081526020019060010190610531565b505050509050919050565b606060066000838152602001908152602001600020805480602002602001604051908101604052809291908181526020016000905b828210156106a2578382906000526020600020016040518060400160405290816000820160009054906101000a900473ffffffffffffffffffffffffffffffffffffffff1673ffffffffffffffffffffffffffffffffffffffff1673ffffffffffffffffffffffffffffffffffffffff1681526020016000820160149054906101000a900460ff16151515158152505081526020019060010190610603565b505050509050919050565b6106b561191f565b60008090505b6000805490508110156108a3578273ffffffffffffffffffffffffffffffffffffffff16600082815481106106ec57fe5b906000526020600020906003020160000160009054906101000a900473ffffffffffffffffffffffffffffffffffffffff1673ffffffffffffffffffffffffffffffffffffffff161415610896576000818154811061074757fe5b90600052602060002090600302016040518060800160405290816000820160009054906101000a900473ffffffffffffffffffffffffffffffffffffffff1673ffffffffffffffffffffffffffffffffffffffff1673ffffffffffffffffffffffffffffffffffffffff168152602001600182018054600181600116156101000203166002900480601f01602080910402602001604051908101604052809291908181526020018280546001816001161561010002031660029004801561084f5780601f106108245761010080835404028352916020019161084f565b820191906000526020600020905b81548152906001019060200180831161083257829003601f168201915b505050505081526020016002820160009054906101000a900460ff161515151581526020016002820160019054906101000a900460ff1615151515815250509150506108a5565b80806001019150506106bb565b505b919050565b6103e861ffff1660008054905010156108c257610a62565b60008090505b600080549050811015610a6057600081815481106108e257fe5b906000526020600020906003020160020160019054906101000a900460ff1615610a535760405180608001604052803373ffffffffffffffffffffffffffffffffffffffff168152602001838152602001600115158152602001600015158152506000828154811061095057fe5b906000526020600020906003020160008201518160000160006101000a81548173ffffffffffffffffffffffffffffffffffffffff021916908373ffffffffffffffffffffffffffffffffffffffff16021790555060208201518160010190805190602001906109c192919061183f565b5060408201518160020160006101000a81548160ff02191690831515021790555060608201518160020160016101000a81548160ff0219169083151502179055509050503373ffffffffffffffffffffffffffffffffffffffff166108fc61271061ffff169081150290604051600060405180830381858888f19350505050158015610a51573d6000803e3d6000fd5b505b80806001019150506108c8565b505b50565b80610a7f8160405180602001604052806000815250611586565b15610a8957600080fd5b6001604051806040016040528060018054905081526020018481525090806001815401808255809150509060018203906000526020600020906002020160009091929091909150600082015181600001556020820151816001019080519060200190610af692919061183f565b505050505050565b3382610b0a82826115df565b15610b1457600080fd5b6004600085815260200190815260200160002060405180604001604052803373ffffffffffffffffffffffffffffffffffffffff168152602001858152509080600181540180825580915050906001820390600052602060002090600202016000909192909190915060008201518160000160006101000a81548173ffffffffffffffffffffffffffffffffffffffff021916908373ffffffffffffffffffffffffffffffffffffffff1602179055506020820151816001015550505050505050565b3382610be382826116ab565b15610bed57600080fd5b6006600085815260200190815260200160002060405180604001604052803373ffffffffffffffffffffffffffffffffffffffff16815260200185151581525090806001815401808255809150509060018203906000526020600020016000909192909190915060008201518160000160006101000a81548173ffffffffffffffffffffffffffffffffffffffff021916908373ffffffffffffffffffffffffffffffffffffffff16021790555060208201518160000160146101000a81548160ff02191690831515021790555050505050505050565b610ccc611961565b60028281548110610cd957fe5b906000526020600020906003020160405180606001604052908160008201548152602001600182018054600181600116156101000203166002900480601f016020809104026020016040519081016040528092919081815260200182805460018160011615610100020316600290048015610d955780601f10610d6a57610100808354040283529160200191610d95565b820191906000526020600020905b815481529060010190602001808311610d7857829003601f168201915b5050505050815260200160028201805480602002602001604051908101604052809291908181526020016000905b82821015610e7f578382906000526020600020018054600181600116156101000203166002900480601f016020809104026020016040519081016040528092919081815260200182805460018160011615610100020316600290048015610e6b5780601f10610e4057610100808354040283529160200191610e6b565b820191906000526020600020905b815481529060010190602001808311610e4e57829003601f168201915b505050505081526020019060010190610dc3565b50505050815250509050919050565b565b60606000805480602002602001604051908101604052809291908181526020016000905b8282101561101457838290600052602060002090600302016040518060800160405290816000820160009054906101000a900473ffffffffffffffffffffffffffffffffffffffff1673ffffffffffffffffffffffffffffffffffffffff1673ffffffffffffffffffffffffffffffffffffffff168152602001600182018054600181600116156101000203166002900480601f016020809104026020016040519081016040528092919081815260200182805460018160011615610100020316600290048015610fc65780601f10610f9b57610100808354040283529160200191610fc6565b820191906000526020600020905b815481529060010190602001808311610fa957829003601f168201915b505050505081526020016002820160009054906101000a900460ff161515151581526020016002820160019054906101000a900460ff16151515158152505081526020019060010190610eb4565b50505050905090565b61102561191f565b6000828154811061103257fe5b90600052602060002090600302016040518060800160405290816000820160009054906101000a900473ffffffffffffffffffffffffffffffffffffffff1673ffffffffffffffffffffffffffffffffffffffff1673ffffffffffffffffffffffffffffffffffffffff168152602001600182018054600181600116156101000203166002900480601f01602080910402602001604051908101604052809291908181526020018280546001816001161561010002031660029004801561113a5780601f1061110f5761010080835404028352916020019161113a565b820191906000526020600020905b81548152906001019060200180831161111d57829003601f168201915b505050505081526020016002820160009054906101000a900460ff161515151581526020016002820160019054906101000a900460ff1615151515815250509050919050565b611188611982565b6001828154811061119557fe5b906000526020600020906002020160405180604001604052908160008201548152602001600182018054600181600116156101000203166002900480601f0160208091040260200160405190810160405280929190818152602001828054600181600116156101000203166002900480156112515780601f1061122657610100808354040283529160200191611251565b820191906000526020600020905b81548152906001019060200180831161123457829003601f168201915b5050505050815250509050919050565b8061127b8160405180602001604052806000815250611586565b1561128557600080fd5b60036040518060400160405280600380549050815260200184815250908060018154018082558091505090600182039060005260206000209060020201600090919290919091506000820151816000015560208201518160010190805190602001906112f292919061183f565b505050505050565b606060046000838152602001908152602001600020805480602002602001604051908101604052809291908181526020016000905b828210156113c157838290600052602060002090600202016040518060400160405290816000820160009054906101000a900473ffffffffffffffffffffffffffffffffffffffff1673ffffffffffffffffffffffffffffffffffffffff1673ffffffffffffffffffffffffffffffffffffffff1681526020016001820154815250508152602001906001019061132f565b505050509050919050565b33826113d88282611773565b156113e257600080fd5b6005600085815260200190815260200160002060405180604001604052803373ffffffffffffffffffffffffffffffffffffffff168152602001858152509080600181540180825580915050906001820390600052602060002090600202016000909192909190915060008201518160000160006101000a81548173ffffffffffffffffffffffffffffffffffffffff021916908373ffffffffffffffffffffffffffffffffffffffff1602179055506020820151816001015550505050505050565b6114ad61199c565b600382815481106114ba57fe5b906000526020600020906002020160405180604001604052908160008201548152602001600182018054600181600116156101000203166002900480601f0160208091040260200160405190810160405280929190818152602001828054600181600116156101000203166002900480156115765780601f1061154b57610100808354040283529160200191611576565b820191906000526020600020905b81548152906001019060200180831161155957829003601f168201915b5050505050815250509050919050565b6000816040516020016115999190612250565b60405160208183030381529060405280519060200120836040516020016115c09190612250565b6040516020818303038152906040528051906020012014905092915050565b600080600090505b600460008481526020019081526020016000208054905081101561169f5760046000848152602001908152602001600020818154811061162357fe5b906000526020600020906002020160000160009054906101000a900473ffffffffffffffffffffffffffffffffffffffff1673ffffffffffffffffffffffffffffffffffffffff168473ffffffffffffffffffffffffffffffffffffffff1614156116925760019150506116a5565b80806001019150506115e7565b50600090505b92915050565b600080600090505b6006600084815260200190815260200160002080549050811015611767576006600084815260200190815260200160002081815481106116ef57fe5b9060005260206000200160000160009054906101000a900473ffffffffffffffffffffffffffffffffffffffff1673ffffffffffffffffffffffffffffffffffffffff168473ffffffffffffffffffffffffffffffffffffffff16141561175a57600191505061176d565b80806001019150506116b3565b50600090505b92915050565b600080600090505b6005600084815260200190815260200160002080549050811015611833576005600084815260200190815260200160002081815481106117b757fe5b906000526020600020906002020160000160009054906101000a900473ffffffffffffffffffffffffffffffffffffffff1673ffffffffffffffffffffffffffffffffffffffff168473ffffffffffffffffffffffffffffffffffffffff161415611826576001915050611839565b808060010191505061177b565b50600090505b92915050565b828054600181600116156101000203166002900490600052602060002090601f016020900481019282601f1061188057805160ff19168380011785556118ae565b828001600101855582156118ae579182015b828111156118ad578251825591602001919060010190611892565b5b5090506118bb91906119b6565b5090565b82805482825590600052602060002090810192821561190e579160200282015b8281111561190d5782518290805190602001906118fd92919061183f565b50916020019190600101906118df565b5b50905061191b91906119db565b5090565b6040518060800160405280600073ffffffffffffffffffffffffffffffffffffffff168152602001606081526020016000151581526020016000151581525090565b60405180606001604052806000815260200160608152602001606081525090565b604051806040016040528060008152602001606081525090565b604051806040016040528060008152602001606081525090565b6119d891905b808211156119d45760008160009055506001016119bc565b5090565b90565b611a0491905b80821115611a0057600081816119f79190611a07565b506001016119e1565b5090565b90565b50805460018160011615610100020316600290046000825580601f10611a2d5750611a4c565b601f016020900490600052602060002090810190611a4b91906119b6565b5b50565b600081359050611a5e8161260e565b92915050565b600082601f830112611a7557600080fd5b8135611a88611a83826123a4565b612377565b9150818183526020840193506020810190508360005b83811015611ace5781358601611ab48882611aed565b845260208401935060208301925050600181019050611a9e565b5050505092915050565b600081359050611ae781612625565b92915050565b600082601f830112611afe57600080fd5b8135611b11611b0c826123cc565b612377565b91508082526020830160208301858383011115611b2d57600080fd5b611b388382846125bb565b50505092915050565b600082601f830112611b5257600080fd5b8135611b65611b60826123f8565b612377565b91508082526020830160208301858383011115611b8157600080fd5b611b8c8382846125bb565b50505092915050565b600081359050611ba48161263c565b92915050565b600060208284031215611bbc57600080fd5b6000611bca84828501611a4f565b91505092915050565b600060208284031215611be557600080fd5b600082013567ffffffffffffffff811115611bff57600080fd5b611c0b84828501611b41565b91505092915050565b60008060408385031215611c2757600080fd5b600083013567ffffffffffffffff811115611c4157600080fd5b611c4d85828601611b41565b925050602083013567ffffffffffffffff811115611c6a57600080fd5b611c7685828601611a64565b9150509250929050565b600060208284031215611c9257600080fd5b6000611ca084828501611b95565b91505092915050565b60008060408385031215611cbc57600080fd5b6000611cca85828601611b95565b9250506020611cdb85828601611ad8565b9150509250929050565b60008060408385031215611cf857600080fd5b6000611d0685828601611b95565b9250506020611d1785828601611b95565b9150509250929050565b6000611d2d8383611fe4565b905092915050565b6000611d41838361205a565b60408301905092915050565b6000611d5983836120ec565b905092915050565b6000611d6d838361214f565b60408301905092915050565b6000611d858383612212565b60408301905092915050565b611d9a81612573565b82525050565b6000611dab82612474565b611db58185612502565b935083602082028501611dc785612424565b8060005b85811015611e035784840389528151611de48582611d21565b9450611def836124c1565b925060208a01995050600181019050611dcb565b50829750879550505050505092915050565b6000611e208261247f565b611e2a8185612513565b9350611e3583612434565b8060005b83811015611e66578151611e4d8882611d35565b9750611e58836124ce565b925050600181019050611e39565b5085935050505092915050565b6000611e7e8261248a565b611e888185612524565b935083602082028501611e9a85612444565b8060005b85811015611ed65784840389528151611eb78582611d4d565b9450611ec2836124db565b925060208a01995050600181019050611e9e565b50829750879550505050505092915050565b6000611ef382612495565b611efd8185612535565b9350611f0883612454565b8060005b83811015611f39578151611f208882611d61565b9750611f2b836124e8565b925050600181019050611f0c565b5085935050505092915050565b6000611f51826124a0565b611f5b8185612546565b9350611f6683612464565b8060005b83811015611f97578151611f7e8882611d79565b9750611f89836124f5565b925050600181019050611f6a565b5085935050505092915050565b611fad81612585565b82525050565b6000611fbe826124b6565b611fc88185612568565b9350611fd88185602086016125ca565b80840191505092915050565b6000611fef826124ab565b611ff98185612557565b93506120098185602086016125ca565b612012816125fd565b840191505092915050565b60006040830160008301516120356000860182612241565b506020830151848203602086015261204d8282611fe4565b9150508091505092915050565b6040820160008201516120706000850182611d91565b5060208201516120836020850182611fa4565b50505050565b60006080830160008301516120a16000860182611d91565b50602083015184820360208601526120b98282611fe4565b91505060408301516120ce6040860182611fa4565b5060608301516120e16060860182611fa4565b508091505092915050565b60006080830160008301516121046000860182611d91565b506020830151848203602086015261211c8282611fe4565b91505060408301516121316040860182611fa4565b5060608301516121446060860182611fa4565b508091505092915050565b6040820160008201516121656000850182611d91565b5060208201516121786020850182612241565b50505050565b60006060830160008301516121966000860182612241565b50602083015184820360208601526121ae8282611fe4565b915050604083015184820360408601526121c88282611da0565b9150508091505092915050565b60006040830160008301516121ed6000860182612241565b50602083015184820360208601526122058282611fe4565b9150508091505092915050565b6040820160008201516122286000850182611d91565b50602082015161223b6020850182612241565b50505050565b61224a816125b1565b82525050565b600061225c8284611fb3565b915081905092915050565b600060208201905081810360008301526122818184611e15565b905092915050565b600060208201905081810360008301526122a38184611e73565b905092915050565b600060208201905081810360008301526122c58184611ee8565b905092915050565b600060208201905081810360008301526122e78184611f46565b905092915050565b60006020820190508181036000830152612309818461201d565b905092915050565b6000602082019050818103600083015261232b8184612089565b905092915050565b6000602082019050818103600083015261234d818461217e565b905092915050565b6000602082019050818103600083015261236f81846121d5565b905092915050565b6000604051905081810181811067ffffffffffffffff8211171561239a57600080fd5b8060405250919050565b600067ffffffffffffffff8211156123bb57600080fd5b602082029050602081019050919050565b600067ffffffffffffffff8211156123e357600080fd5b601f19601f8301169050602081019050919050565b600067ffffffffffffffff82111561240f57600080fd5b601f19601f8301169050602081019050919050565b6000819050602082019050919050565b6000819050602082019050919050565b6000819050602082019050919050565b6000819050602082019050919050565b6000819050602082019050919050565b600081519050919050565b600081519050919050565b600081519050919050565b600081519050919050565b600081519050919050565b600081519050919050565b600081519050919050565b6000602082019050919050565b6000602082019050919050565b6000602082019050919050565b6000602082019050919050565b6000602082019050919050565b600082825260208201905092915050565b600082825260208201905092915050565b600082825260208201905092915050565b600082825260208201905092915050565b600082825260208201905092915050565b600082825260208201905092915050565b600081905092915050565b600061257e82612591565b9050919050565b60008115159050919050565b600073ffffffffffffffffffffffffffffffffffffffff82169050919050565b6000819050919050565b82818337600083830152505050565b60005b838110156125e85780820151818401526020810190506125cd565b838111156125f7576000848401525b50505050565b6000601f19601f8301169050919050565b61261781612573565b811461262257600080fd5b50565b61262e81612585565b811461263957600080fd5b50565b612645816125b1565b811461265057600080fd5b5056fea365627a7a7231582088f8cdaf90e35a457240efc71197f7232dd9690fbf5050f6687477401df75e486c6578706572696d656e74616cf564736f6c634300050c0040",
  "source": "pragma solidity >=0.4.22 <0.6.0;\npragma experimental ABIEncoderV2;\n\ncontract Chainclub2 {\n    \n    struct Member {\n        address wallet;\n        string name;\n        bool paidLastMonth;\n        bool isSellingMembership;\n    }\n    \n    struct BooleanPoll {    \n        uint pollIndex;\n        string subject;     // Ex: Vamos investir em algo para o clube?\n    }\n    \n    struct OptionsPoll {    \n        uint pollIndex; \n        string subject;     // Ex: No que vamos investir?\n        string[] options;   // \"Piscina de ondas\", \"Pista de corrida\", \"Torre de bung jump\"\n    }\n    \n    struct QuantityPoll {\n        uint pollIndex;\n        string subject;     // Ex: Quantos reais gastaremos no nosso novo investimento?\n    }\n    \n    struct BooleanVote {\n        address owner;\n        bool yesOrNo;\n    }\n    \n    struct OptionVote {\n        address owner;\n        uint optionIndex;\n    }\n\n    struct QuantityVote {\n        address owner;\n        uint quantity;      \n    }\n    \n    modifier didNotVoteOnBooleanPoll(address memberAddress, uint pollIndex) {\n        require(!alreadyVotedOnBooleanPoll(memberAddress, pollIndex));_;\n    }\n    \n    modifier didNotVoteOnQuantityPoll(address memberAddress, uint pollIndex) {\n        require(!alreadyVotedOnQuantityPoll(memberAddress, pollIndex));_;\n    }\n    \n    modifier didNotVoteOnOptionsPoll(address memberAddress, uint pollIndex) {\n        require(!alreadyVotedOnOptionsPoll(memberAddress, pollIndex));_;\n    }\n    \n    modifier isNotEmpty(string memory pollSubject) { \n        require(!stringsAreEqual(pollSubject, \"\")); _; \n    }\n    \n    // Enums\n    uint16 constant MAX_MEMBERS = 1000;\n    uint16 constant PRICE = 10000;\n    \n    Member[] members; // guarda todos membros \n    QuantityPoll[] quantityPolls;   // guarda todas enquetes de quantidade\n    OptionsPoll[] optionsPolls;     // guarda todas enquetes de opes\n    BooleanPoll[] booleanPolls;     // guarda todas enquetes de sim / nao\n    mapping (uint => QuantityVote[]) quantityPollsVotes;    // d o ndice da enquete e recebe um array de votos\n    mapping (uint => OptionVote[]) optionsPollsVotes;       // d o ndice da enquete e recebe um array de votos\n    mapping (uint => BooleanVote[]) booleanPollsVotes;      // d o ndice da enquete e recebe um array de votos\n\n    constructor(string memory yourFullName) public {\n        members.push(\n            Member(\n                msg.sender, yourFullName, true, false\n            )\n        );\n    }\n    \n    function startBooleanPoll (string memory pollSubject) public isNotEmpty(pollSubject) {\n        booleanPolls.push(\n            BooleanPoll(\n                booleanPolls.length, pollSubject\n            )\n        );\n    }\n    \n    function startQuantityPoll (string memory pollSubject) public isNotEmpty(pollSubject) {\n        quantityPolls.push(\n            QuantityPoll(\n                quantityPolls.length, pollSubject\n            )\n        );\n    }\n    \n    function startOptionsPoll (string memory pollSubject, string[] memory options) public isNotEmpty(pollSubject) {\n        optionsPolls.push(\n            OptionsPoll(\n                optionsPolls.length, pollSubject, options\n            )\n        );\n    }\n    \n    function voteOnBooleanPool(uint pollIndex, bool boolean) public didNotVoteOnBooleanPoll(msg.sender, pollIndex) {\n        booleanPollsVotes[pollIndex].push(\n            BooleanVote(\n                msg.sender, boolean\n            )\n        );\n    }\n    \n    function voteOnQuantityPool(uint pollIndex, uint quantity) public didNotVoteOnQuantityPoll(msg.sender, pollIndex) {\n        quantityPollsVotes[pollIndex].push(\n            QuantityVote(\n                msg.sender, quantity\n            )\n        );\n    }\n    \n    function voteOnOptionPool(uint pollIndex, uint option) public didNotVoteOnOptionsPoll(msg.sender, pollIndex) {\n        optionsPollsVotes[pollIndex].push(\n            OptionVote(\n                msg.sender, option\n            )\n        );\n    }\n    \n    function buyMembership(string memory buyerName) payable public {\n        \n        // Dinheiro vai pro fundador\n        if (members.length < MAX_MEMBERS) {\n            \n        }\n        \n        // Procura membro que esteja vendendo\n        else { \n            for (uint i = 0; i < members.length; i++) {\n                if (members[i].isSellingMembership) {\n                    members[i] = Member(\n                        msg.sender, buyerName, true, false\n                    );\n                    msg.sender.transfer(PRICE);\n                }\n            }\n        }\n    }\n    \n    /// Leaving the chainclub\n    function sellMembership () public {\n        \n    }\n    \n    //////////////// SIMPLE GETTERS ////////////////\n    \n    function getBooleanPoll (uint pollIndex) public view returns (BooleanPoll memory) {\n        return booleanPolls[pollIndex];\n    }\n    \n    function getQuantityPoll (uint pollIndex) public view returns (QuantityPoll memory) {\n        return quantityPolls[pollIndex];\n    }\n    \n    function getOptionPoll (uint pollIndex) public view returns (OptionsPoll memory) {\n        return optionsPolls[pollIndex];\n    }\n    \n    function getBooleanPollVotes (uint pollIndex) public view returns (BooleanVote[] memory) {\n        return booleanPollsVotes[pollIndex];\n    }\n    \n    function getQuantityPollVotes (uint pollIndex) public view returns (QuantityVote[] memory) {\n        return quantityPollsVotes[pollIndex];\n    }\n    \n    function getOptionsPollVotes (uint pollIndex) public view returns (OptionVote[] memory) {\n        return optionsPollsVotes[pollIndex];\n    }\n    \n    function getMember (uint memberIndex) public view returns (Member memory) {\n        return members[memberIndex];\n    }\n    \n    function getMember (address memberAddress) public view returns (Member memory) {\n        for (uint i = 0; i < members.length; i++) {\n            if (members[i].wallet == memberAddress) {\n                return members[i];\n            }\n        }\n    }\n    \n    \n    function getMembers () public view returns (Member[] memory) {\n        return members;\n    }\n    \n    //////////////// PRIVATE FUNCTIONS ////////////////\n    \n    function stringsAreEqual (string memory a, string memory b) private pure returns (bool) {\n        return (keccak256(abi.encodePacked((a))) == keccak256(abi.encodePacked((b))) );\n    }\n    \n    function alreadyVotedOnBooleanPoll (address memberAddress, uint pollIndex) private view returns (bool) {\n        for (uint i = 0; i < booleanPollsVotes[pollIndex].length; i++) {\n            if (memberAddress == booleanPollsVotes[pollIndex][i].owner) {\n                return true;\n            }\n        }\n        return false;\n    }\n    \n    function alreadyVotedOnQuantityPoll (address memberAddress, uint pollIndex) private view returns (bool) {\n        for (uint i = 0; i < quantityPollsVotes[pollIndex].length; i++) {\n            if (memberAddress == quantityPollsVotes[pollIndex][i].owner) {\n                return true;\n            }\n        }\n        return false;\n    }\n    \n    function alreadyVotedOnOptionsPoll (address memberAddress, uint pollIndex) private view returns (bool) {\n        for (uint i = 0; i < optionsPollsVotes[pollIndex].length; i++) {\n            if (memberAddress == optionsPollsVotes[pollIndex][i].owner) {\n                return true;\n            }\n        }\n        return false;\n    }\n}",
  "sourcePath": "/Users/rlveiga/projects/DAO/contracts/Chainclub2.sol",
  "compiler": {
    "name": "solc",
    "version": "0.5.12+commit.7709ece9.Emscripten.clang"
  },
  "schemaVersion": "3.0.19",
  "updatedAt": "2019-12-06T01:56:32.318Z",
  "networkType": "ethereum",
  "devdoc": {
    "methods": {}
  },
  "userdoc": {
    "methods": {
      "getBooleanPoll(uint256)": {
        "notice": "///////////// SIMPLE GETTERS ////////////////"
      },
      "sellMembership()": {
        "notice": "Leaving the chainclub"
      }
    }
  }
}