{
  "contractName": "Chainclub",
  "abi": [
    {
      "inputs": [
        {
          "internalType": "string",
          "name": "yourFullName",
          "type": "string"
        }
      ],
      "payable": false,
      "stateMutability": "nonpayable",
      "type": "constructor"
    },
    {
      "constant": false,
      "inputs": [
        {
          "internalType": "string",
          "name": "pollSubject",
          "type": "string"
        }
      ],
      "name": "startBooleanPoll",
      "outputs": [],
      "payable": false,
      "stateMutability": "nonpayable",
      "type": "function"
    },
    {
      "constant": false,
      "inputs": [
        {
          "internalType": "string",
          "name": "pollSubject",
          "type": "string"
        }
      ],
      "name": "startQuantityPoll",
      "outputs": [],
      "payable": false,
      "stateMutability": "nonpayable",
      "type": "function"
    },
    {
      "constant": false,
      "inputs": [
        {
          "internalType": "string",
          "name": "pollSubject",
          "type": "string"
        },
        {
          "internalType": "string[]",
          "name": "options",
          "type": "string[]"
        }
      ],
      "name": "startOptionsPoll",
      "outputs": [],
      "payable": false,
      "stateMutability": "nonpayable",
      "type": "function"
    },
    {
      "constant": false,
      "inputs": [
        {
          "internalType": "uint256",
          "name": "pollIndex",
          "type": "uint256"
        },
        {
          "internalType": "bool",
          "name": "boolean",
          "type": "bool"
        }
      ],
      "name": "voteOnBooleanPool",
      "outputs": [],
      "payable": false,
      "stateMutability": "nonpayable",
      "type": "function"
    },
    {
      "constant": false,
      "inputs": [
        {
          "internalType": "uint256",
          "name": "pollIndex",
          "type": "uint256"
        },
        {
          "internalType": "uint256",
          "name": "quantity",
          "type": "uint256"
        }
      ],
      "name": "voteOnQuantityPool",
      "outputs": [],
      "payable": false,
      "stateMutability": "nonpayable",
      "type": "function"
    },
    {
      "constant": false,
      "inputs": [
        {
          "internalType": "uint256",
          "name": "pollIndex",
          "type": "uint256"
        },
        {
          "internalType": "uint256",
          "name": "option",
          "type": "uint256"
        }
      ],
      "name": "voteOnOptionPool",
      "outputs": [],
      "payable": false,
      "stateMutability": "nonpayable",
      "type": "function"
    },
    {
      "constant": false,
      "inputs": [
        {
          "internalType": "string",
          "name": "buyerName",
          "type": "string"
        }
      ],
      "name": "buyMembership",
      "outputs": [],
      "payable": true,
      "stateMutability": "payable",
      "type": "function"
    },
    {
      "constant": false,
      "inputs": [],
      "name": "sellMembership",
      "outputs": [],
      "payable": false,
      "stateMutability": "nonpayable",
      "type": "function"
    },
    {
      "constant": true,
      "inputs": [
        {
          "internalType": "uint256",
          "name": "pollIndex",
          "type": "uint256"
        }
      ],
      "name": "getBooleanPoll",
      "outputs": [
        {
          "components": [
            {
              "internalType": "uint256",
              "name": "pollIndex",
              "type": "uint256"
            },
            {
              "internalType": "string",
              "name": "subject",
              "type": "string"
            }
          ],
          "internalType": "struct Chainclub.BooleanPoll",
          "name": "",
          "type": "tuple"
        }
      ],
      "payable": false,
      "stateMutability": "view",
      "type": "function"
    },
    {
      "constant": true,
      "inputs": [
        {
          "internalType": "uint256",
          "name": "pollIndex",
          "type": "uint256"
        }
      ],
      "name": "getQuantityPoll",
      "outputs": [
        {
          "components": [
            {
              "internalType": "uint256",
              "name": "pollIndex",
              "type": "uint256"
            },
            {
              "internalType": "string",
              "name": "subject",
              "type": "string"
            }
          ],
          "internalType": "struct Chainclub.QuantityPoll",
          "name": "",
          "type": "tuple"
        }
      ],
      "payable": false,
      "stateMutability": "view",
      "type": "function"
    },
    {
      "constant": true,
      "inputs": [
        {
          "internalType": "uint256",
          "name": "pollIndex",
          "type": "uint256"
        }
      ],
      "name": "getOptionsPoll",
      "outputs": [
        {
          "components": [
            {
              "internalType": "uint256",
              "name": "pollIndex",
              "type": "uint256"
            },
            {
              "internalType": "string",
              "name": "subject",
              "type": "string"
            },
            {
              "internalType": "string[]",
              "name": "options",
              "type": "string[]"
            }
          ],
          "internalType": "struct Chainclub.OptionsPoll",
          "name": "",
          "type": "tuple"
        }
      ],
      "payable": false,
      "stateMutability": "view",
      "type": "function"
    },
    {
      "constant": true,
      "inputs": [
        {
          "internalType": "uint256",
          "name": "pollIndex",
          "type": "uint256"
        }
      ],
      "name": "getBooleanPollVotes",
      "outputs": [
        {
          "components": [
            {
              "internalType": "address",
              "name": "owner",
              "type": "address"
            },
            {
              "internalType": "bool",
              "name": "yesOrNo",
              "type": "bool"
            }
          ],
          "internalType": "struct Chainclub.BooleanVote[]",
          "name": "",
          "type": "tuple[]"
        }
      ],
      "payable": false,
      "stateMutability": "view",
      "type": "function"
    },
    {
      "constant": true,
      "inputs": [
        {
          "internalType": "uint256",
          "name": "pollIndex",
          "type": "uint256"
        }
      ],
      "name": "getQuantityPollVotes",
      "outputs": [
        {
          "components": [
            {
              "internalType": "address",
              "name": "owner",
              "type": "address"
            },
            {
              "internalType": "uint256",
              "name": "quantity",
              "type": "uint256"
            }
          ],
          "internalType": "struct Chainclub.QuantityVote[]",
          "name": "",
          "type": "tuple[]"
        }
      ],
      "payable": false,
      "stateMutability": "view",
      "type": "function"
    },
    {
      "constant": true,
      "inputs": [
        {
          "internalType": "uint256",
          "name": "pollIndex",
          "type": "uint256"
        }
      ],
      "name": "getOptionsPollVotes",
      "outputs": [
        {
          "components": [
            {
              "internalType": "address",
              "name": "owner",
              "type": "address"
            },
            {
              "internalType": "uint256",
              "name": "optionIndex",
              "type": "uint256"
            }
          ],
          "internalType": "struct Chainclub.OptionVote[]",
          "name": "",
          "type": "tuple[]"
        }
      ],
      "payable": false,
      "stateMutability": "view",
      "type": "function"
    },
    {
      "constant": true,
      "inputs": [
        {
          "internalType": "address",
          "name": "memberAddress",
          "type": "address"
        }
      ],
      "name": "getMember",
      "outputs": [
        {
          "components": [
            {
              "internalType": "address payable",
              "name": "wallet",
              "type": "address"
            },
            {
              "internalType": "string",
              "name": "name",
              "type": "string"
            },
            {
              "internalType": "bool",
              "name": "paidLastMonth",
              "type": "bool"
            },
            {
              "internalType": "bool",
              "name": "isSellingMembership",
              "type": "bool"
            }
          ],
          "internalType": "struct Chainclub.Member",
          "name": "",
          "type": "tuple"
        }
      ],
      "payable": false,
      "stateMutability": "view",
      "type": "function"
    },
    {
      "constant": true,
      "inputs": [
        {
          "internalType": "uint256",
          "name": "memberIndex",
          "type": "uint256"
        }
      ],
      "name": "getMember",
      "outputs": [
        {
          "components": [
            {
              "internalType": "address payable",
              "name": "wallet",
              "type": "address"
            },
            {
              "internalType": "string",
              "name": "name",
              "type": "string"
            },
            {
              "internalType": "bool",
              "name": "paidLastMonth",
              "type": "bool"
            },
            {
              "internalType": "bool",
              "name": "isSellingMembership",
              "type": "bool"
            }
          ],
          "internalType": "struct Chainclub.Member",
          "name": "",
          "type": "tuple"
        }
      ],
      "payable": false,
      "stateMutability": "view",
      "type": "function"
    },
    {
      "constant": true,
      "inputs": [],
      "name": "getMembers",
      "outputs": [
        {
          "components": [
            {
              "internalType": "address payable",
              "name": "wallet",
              "type": "address"
            },
            {
              "internalType": "string",
              "name": "name",
              "type": "string"
            },
            {
              "internalType": "bool",
              "name": "paidLastMonth",
              "type": "bool"
            },
            {
              "internalType": "bool",
              "name": "isSellingMembership",
              "type": "bool"
            }
          ],
          "internalType": "struct Chainclub.Member[]",
          "name": "",
          "type": "tuple[]"
        }
      ],
      "payable": false,
      "stateMutability": "view",
      "type": "function"
    },
    {
      "constant": true,
      "inputs": [],
      "name": "getMembershipPrice",
      "outputs": [
        {
          "internalType": "uint256",
          "name": "",
          "type": "uint256"
        }
      ],
      "payable": false,
      "stateMutability": "pure",
      "type": "function"
    },
    {
      "constant": true,
      "inputs": [
        {
          "internalType": "uint256",
          "name": "pollIndex",
          "type": "uint256"
        }
      ],
      "name": "getBooleanPollSubject",
      "outputs": [
        {
          "internalType": "string",
          "name": "",
          "type": "string"
        }
      ],
      "payable": false,
      "stateMutability": "view",
      "type": "function"
    },
    {
      "constant": true,
      "inputs": [
        {
          "internalType": "uint256",
          "name": "pollIndex",
          "type": "uint256"
        }
      ],
      "name": "getQuantityPollSubject",
      "outputs": [
        {
          "internalType": "string",
          "name": "",
          "type": "string"
        }
      ],
      "payable": false,
      "stateMutability": "view",
      "type": "function"
    },
    {
      "constant": true,
      "inputs": [
        {
          "internalType": "uint256",
          "name": "pollIndex",
          "type": "uint256"
        }
      ],
      "name": "getOptionsPollSubject",
      "outputs": [
        {
          "internalType": "string",
          "name": "",
          "type": "string"
        }
      ],
      "payable": false,
      "stateMutability": "view",
      "type": "function"
    },
    {
      "constant": true,
      "inputs": [
        {
          "internalType": "uint256",
          "name": "pollIndex",
          "type": "uint256"
        }
      ],
      "name": "getBooleanPollVotesCount",
      "outputs": [
        {
          "internalType": "uint256",
          "name": "",
          "type": "uint256"
        }
      ],
      "payable": false,
      "stateMutability": "view",
      "type": "function"
    },
    {
      "constant": true,
      "inputs": [
        {
          "internalType": "uint256",
          "name": "pollIndex",
          "type": "uint256"
        }
      ],
      "name": "getQuantityPollVotesCount",
      "outputs": [
        {
          "internalType": "uint256",
          "name": "",
          "type": "uint256"
        }
      ],
      "payable": false,
      "stateMutability": "view",
      "type": "function"
    },
    {
      "constant": true,
      "inputs": [
        {
          "internalType": "uint256",
          "name": "pollIndex",
          "type": "uint256"
        }
      ],
      "name": "getOptionsPollVotesCount",
      "outputs": [
        {
          "internalType": "uint256",
          "name": "",
          "type": "uint256"
        }
      ],
      "payable": false,
      "stateMutability": "view",
      "type": "function"
    }
  ],
  "bytecode": "0x60806040523480156200001157600080fd5b50604051620030dd380380620030dd83398181016040526200003791908101906200029c565b336000806101000a81548173ffffffffffffffffffffffffffffffffffffffff021916908373ffffffffffffffffffffffffffffffffffffffff160217905550600160405180608001604052803373ffffffffffffffffffffffffffffffffffffffff168152602001838152602001600115158152602001600015158152509080600181540180825580915050906001820390600052602060002090600302016000909192909190915060008201518160000160006101000a81548173ffffffffffffffffffffffffffffffffffffffff021916908373ffffffffffffffffffffffffffffffffffffffff16021790555060208201518160010190805190602001906200014692919062000191565b5060408201518160020160006101000a81548160ff02191690831515021790555060608201518160020160016101000a81548160ff0219169083151502179055505050505062000372565b828054600181600116156101000203166002900490600052602060002090601f016020900481019282601f10620001d457805160ff191683800117855562000205565b8280016001018555821562000205579182015b8281111562000204578251825591602001919060010190620001e7565b5b50905062000214919062000218565b5090565b6200023d91905b80821115620002395760008160009055506001016200021f565b5090565b90565b600082601f8301126200025257600080fd5b81516200026962000263826200030f565b620002e1565b915080825260208301602083018583830111156200028657600080fd5b620002938382846200033c565b50505092915050565b600060208284031215620002af57600080fd5b600082015167ffffffffffffffff811115620002ca57600080fd5b620002d88482850162000240565b91505092915050565b6000604051905081810181811067ffffffffffffffff821117156200030557600080fd5b8060405250919050565b600067ffffffffffffffff8211156200032757600080fd5b601f19601f8301169050602081019050919050565b60005b838110156200035c5780820151818401526020810190506200033f565b838111156200036c576000848401525b50505050565b612d5b80620003826000396000f3fe60806040526004361061014b5760003560e01c80637645154c116100b6578063b14e4d161161006f578063b14e4d16146104df578063ba53e7151461051c578063ce5717f214610559578063e24bb95614610582578063f267efae146105bf578063f2d62407146105e85761014b565b80637645154c146103a9578063911c8107146103e657806393671a95146103fd5780639eab52531461043a578063ab3545e514610465578063aeceff6b146104a25761014b565b80633e0582c2116101085780633e0582c21461029857806344966dc8146102d557806348b989581461031257806351df24e01461032e57806352ac34dd146103575780636aefb518146103805761014b565b80630f43f472146101505780631278076a146101795780631b65db3d146101a45780631bcd29f8146101e157806329791e8e1461021e5780632ada25961461025b575b600080fd5b34801561015c57600080fd5b5061017760048036036101729190810190612222565b610625565b005b34801561018557600080fd5b5061018e6106e2565b60405161019b91906129fe565b60405180910390f35b3480156101b057600080fd5b506101cb60048036036101c6919081019061228e565b6106ee565b6040516101d891906129fe565b60405180910390f35b3480156101ed57600080fd5b506102086004803603610203919081019061228e565b61070e565b6040516102159190612910565b60405180910390f35b34801561022a57600080fd5b506102456004803603610240919081019061228e565b6107e0565b60405161025291906128cc565b60405180910390f35b34801561026757600080fd5b50610282600480360361027d91908101906121b8565b6108bf565b60405161028f9190612998565b60405180910390f35b3480156102a457600080fd5b506102bf60048036036102ba919081019061228e565b610abc565b6040516102cc91906129ba565b60405180910390f35b3480156102e157600080fd5b506102fc60048036036102f7919081019061228e565b610c86565b6040516103099190612954565b60405180910390f35b61032c600480360361032791908101906121e1565b610d46565b005b34801561033a57600080fd5b50610355600480360361035091908101906121e1565b610fb3565b005b34801561036357600080fd5b5061037e600480360361037991908101906122f3565b61104c565b005b34801561038c57600080fd5b506103a760048036036103a291908101906122b7565b611125565b005b3480156103b557600080fd5b506103d060048036036103cb919081019061228e565b611212565b6040516103dd91906129fe565b60405180910390f35b3480156103f257600080fd5b506103fb611232565b005b34801561040957600080fd5b50610424600480360361041f919081019061228e565b6112fe565b6040516104319190612954565b60405180910390f35b34801561044657600080fd5b5061044f6113be565b60405161045c91906128ee565b60405180910390f35b34801561047157600080fd5b5061048c6004803603610487919081019061228e565b61154b565b6040516104999190612998565b60405180910390f35b3480156104ae57600080fd5b506104c960048036036104c4919081019061228e565b6116ae565b6040516104d691906129fe565b60405180910390f35b3480156104eb57600080fd5b506105066004803603610501919081019061228e565b6116ce565b60405161051391906129dc565b60405180910390f35b34801561052857600080fd5b50610543600480360361053e919081019061228e565b6117af565b6040516105509190612954565b60405180910390f35b34801561056557600080fd5b50610580600480360361057b91908101906121e1565b61186f565b005b34801561058e57600080fd5b506105a960048036036105a4919081019061228e565b611908565b6040516105b69190612932565b60405180910390f35b3480156105cb57600080fd5b506105e660048036036105e191908101906122f3565b6119da565b005b3480156105f457600080fd5b5061060f600480360361060a919081019061228e565b611ab3565b60405161061c9190612976565b60405180910390f35b8161063f8160405180602001604052806000815250611b94565b1561064957600080fd5b60036040518060600160405280600380549050815260200185815260200184815250908060018154018082558091505090600182039060005260206000209060030201600090919290919091506000820151816000015560208201518160010190805190602001906106bc929190611e4d565b5060408201518160020190805190602001906106d9929190611ecd565b50505050505050565b6000633b9aca00905090565b600060076000838152602001908152602001600020805490509050919050565b606060066000838152602001908152602001600020805480602002602001604051908101604052809291908181526020016000905b828210156107d557838290600052602060002090600202016040518060400160405290816000820160009054906101000a900473ffffffffffffffffffffffffffffffffffffffff1673ffffffffffffffffffffffffffffffffffffffff1673ffffffffffffffffffffffffffffffffffffffff16815260200160018201548152505081526020019060010190610743565b505050509050919050565b606060076000838152602001908152602001600020805480602002602001604051908101604052809291908181526020016000905b828210156108b4578382906000526020600020016040518060400160405290816000820160009054906101000a900473ffffffffffffffffffffffffffffffffffffffff1673ffffffffffffffffffffffffffffffffffffffff1673ffffffffffffffffffffffffffffffffffffffff1681526020016000820160149054906101000a900460ff16151515158152505081526020019060010190610815565b505050509050919050565b6108c7611f2d565b60008090505b600180549050811015610ab5578273ffffffffffffffffffffffffffffffffffffffff16600182815481106108fe57fe5b906000526020600020906003020160000160009054906101000a900473ffffffffffffffffffffffffffffffffffffffff1673ffffffffffffffffffffffffffffffffffffffff161415610aa8576001818154811061095957fe5b90600052602060002090600302016040518060800160405290816000820160009054906101000a900473ffffffffffffffffffffffffffffffffffffffff1673ffffffffffffffffffffffffffffffffffffffff1673ffffffffffffffffffffffffffffffffffffffff168152602001600182018054600181600116156101000203166002900480601f016020809104026020016040519081016040528092919081815260200182805460018160011615610100020316600290048015610a615780601f10610a3657610100808354040283529160200191610a61565b820191906000526020600020905b815481529060010190602001808311610a4457829003601f168201915b505050505081526020016002820160009054906101000a900460ff161515151581526020016002820160019054906101000a900460ff161515151581525050915050610ab7565b80806001019150506108cd565b505b919050565b610ac4611f6f565b60038281548110610ad157fe5b906000526020600020906003020160405180606001604052908160008201548152602001600182018054600181600116156101000203166002900480601f016020809104026020016040519081016040528092919081815260200182805460018160011615610100020316600290048015610b8d5780601f10610b6257610100808354040283529160200191610b8d565b820191906000526020600020905b815481529060010190602001808311610b7057829003601f168201915b5050505050815260200160028201805480602002602001604051908101604052809291908181526020016000905b82821015610c77578382906000526020600020018054600181600116156101000203166002900480601f016020809104026020016040519081016040528092919081815260200182805460018160011615610100020316600290048015610c635780601f10610c3857610100808354040283529160200191610c63565b820191906000526020600020905b815481529060010190602001808311610c4657829003601f168201915b505050505081526020019060010190610bbb565b50505050815250509050919050565b606060038281548110610c9557fe5b90600052602060002090600302016001018054600181600116156101000203166002900480601f016020809104026020016040519081016040528092919081815260200182805460018160011615610100020316600290048015610d3a5780601f10610d0f57610100808354040283529160200191610d3a565b820191906000526020600020905b815481529060010190602001808311610d1d57829003601f168201915b50505050509050919050565b34633b9aca00811015610d5857600080fd5b600161ffff166001805490501015610dd7576000809054906101000a900473ffffffffffffffffffffffffffffffffffffffff1673ffffffffffffffffffffffffffffffffffffffff166108fc349081150290604051600060405180830381858888f19350505050158015610dd1573d6000803e3d6000fd5b50610faf565b60008090505b600180549050811015610fad5760018181548110610df757fe5b906000526020600020906003020160020160019054906101000a900460ff1615610fa05760405180608001604052803373ffffffffffffffffffffffffffffffffffffffff1681526020018481526020016001151581526020016000151581525060018281548110610e6557fe5b906000526020600020906003020160008201518160000160006101000a81548173ffffffffffffffffffffffffffffffffffffffff021916908373ffffffffffffffffffffffffffffffffffffffff1602179055506020820151816001019080519060200190610ed6929190611e4d565b5060408201518160020160006101000a81548160ff02191690831515021790555060608201518160020160016101000a81548160ff02191690831515021790555090505060018181548110610f2757fe5b906000526020600020906003020160000160009054906101000a900473ffffffffffffffffffffffffffffffffffffffff1673ffffffffffffffffffffffffffffffffffffffff166108fc349081150290604051600060405180830381858888f19350505050158015610f9e573d6000803e3d6000fd5b505b8080600101915050610ddd565b505b5050565b80610fcd8160405180602001604052806000815250611b94565b15610fd757600080fd5b6002604051806040016040528060028054905081526020018481525090806001815401808255809150509060018203906000526020600020906002020160009091929091909150600082015181600001556020820151816001019080519060200190611044929190611e4d565b505050505050565b33826110588282611bed565b1561106257600080fd5b6005600085815260200190815260200160002060405180604001604052803373ffffffffffffffffffffffffffffffffffffffff168152602001858152509080600181540180825580915050906001820390600052602060002090600202016000909192909190915060008201518160000160006101000a81548173ffffffffffffffffffffffffffffffffffffffff021916908373ffffffffffffffffffffffffffffffffffffffff1602179055506020820151816001015550505050505050565b33826111318282611cb9565b1561113b57600080fd5b6007600085815260200190815260200160002060405180604001604052803373ffffffffffffffffffffffffffffffffffffffff16815260200185151581525090806001815401808255809150509060018203906000526020600020016000909192909190915060008201518160000160006101000a81548173ffffffffffffffffffffffffffffffffffffffff021916908373ffffffffffffffffffffffffffffffffffffffff16021790555060208201518160000160146101000a81548160ff02191690831515021790555050505050505050565b600060056000838152602001908152602001600020805490509050919050565b60008090505b6001805490508110156112fb573373ffffffffffffffffffffffffffffffffffffffff166001828154811061126957fe5b906000526020600020906003020160000160009054906101000a900473ffffffffffffffffffffffffffffffffffffffff1673ffffffffffffffffffffffffffffffffffffffff1614156112ee5760018082815481106112c557fe5b906000526020600020906003020160020160016101000a81548160ff0219169083151502179055505b8080600101915050611238565b50565b60606002828154811061130d57fe5b90600052602060002090600202016001018054600181600116156101000203166002900480601f0160208091040260200160405190810160405280929190818152602001828054600181600116156101000203166002900480156113b25780601f10611387576101008083540402835291602001916113b2565b820191906000526020600020905b81548152906001019060200180831161139557829003601f168201915b50505050509050919050565b60606001805480602002602001604051908101604052809291908181526020016000905b8282101561154257838290600052602060002090600302016040518060800160405290816000820160009054906101000a900473ffffffffffffffffffffffffffffffffffffffff1673ffffffffffffffffffffffffffffffffffffffff1673ffffffffffffffffffffffffffffffffffffffff168152602001600182018054600181600116156101000203166002900480601f0160208091040260200160405190810160405280929190818152602001828054600181600116156101000203166002900480156114f45780601f106114c9576101008083540402835291602001916114f4565b820191906000526020600020905b8154815290600101906020018083116114d757829003601f168201915b505050505081526020016002820160009054906101000a900460ff161515151581526020016002820160019054906101000a900460ff161515151581525050815260200190600101906113e2565b50505050905090565b611553611f2d565b6001828154811061156057fe5b90600052602060002090600302016040518060800160405290816000820160009054906101000a900473ffffffffffffffffffffffffffffffffffffffff1673ffffffffffffffffffffffffffffffffffffffff1673ffffffffffffffffffffffffffffffffffffffff168152602001600182018054600181600116156101000203166002900480601f0160208091040260200160405190810160405280929190818152602001828054600181600116156101000203166002900480156116685780601f1061163d57610100808354040283529160200191611668565b820191906000526020600020905b81548152906001019060200180831161164b57829003601f168201915b505050505081526020016002820160009054906101000a900460ff161515151581526020016002820160019054906101000a900460ff1615151515815250509050919050565b600060066000838152602001908152602001600020805490509050919050565b6116d6611f90565b600282815481106116e357fe5b906000526020600020906002020160405180604001604052908160008201548152602001600182018054600181600116156101000203166002900480601f01602080910402602001604051908101604052809291908181526020018280546001816001161561010002031660029004801561179f5780601f106117745761010080835404028352916020019161179f565b820191906000526020600020905b81548152906001019060200180831161178257829003601f168201915b5050505050815250509050919050565b6060600482815481106117be57fe5b90600052602060002090600202016001018054600181600116156101000203166002900480601f0160208091040260200160405190810160405280929190818152602001828054600181600116156101000203166002900480156118635780601f1061183857610100808354040283529160200191611863565b820191906000526020600020905b81548152906001019060200180831161184657829003601f168201915b50505050509050919050565b806118898160405180602001604052806000815250611b94565b1561189357600080fd5b6004604051806040016040528060048054905081526020018481525090806001815401808255809150509060018203906000526020600020906002020160009091929091909150600082015181600001556020820151816001019080519060200190611900929190611e4d565b505050505050565b606060056000838152602001908152602001600020805480602002602001604051908101604052809291908181526020016000905b828210156119cf57838290600052602060002090600202016040518060400160405290816000820160009054906101000a900473ffffffffffffffffffffffffffffffffffffffff1673ffffffffffffffffffffffffffffffffffffffff1673ffffffffffffffffffffffffffffffffffffffff1681526020016001820154815250508152602001906001019061193d565b505050509050919050565b33826119e68282611d81565b156119f057600080fd5b6006600085815260200190815260200160002060405180604001604052803373ffffffffffffffffffffffffffffffffffffffff168152602001858152509080600181540180825580915050906001820390600052602060002090600202016000909192909190915060008201518160000160006101000a81548173ffffffffffffffffffffffffffffffffffffffff021916908373ffffffffffffffffffffffffffffffffffffffff1602179055506020820151816001015550505050505050565b611abb611faa565b60048281548110611ac857fe5b906000526020600020906002020160405180604001604052908160008201548152602001600182018054600181600116156101000203166002900480601f016020809104026020016040519081016040528092919081815260200182805460018160011615610100020316600290048015611b845780601f10611b5957610100808354040283529160200191611b84565b820191906000526020600020905b815481529060010190602001808311611b6757829003601f168201915b5050505050815250509050919050565b600081604051602001611ba791906128b5565b6040516020818303038152906040528051906020012083604051602001611bce91906128b5565b6040516020818303038152906040528051906020012014905092915050565b600080600090505b6005600084815260200190815260200160002080549050811015611cad57600560008481526020019081526020016000208181548110611c3157fe5b906000526020600020906002020160000160009054906101000a900473ffffffffffffffffffffffffffffffffffffffff1673ffffffffffffffffffffffffffffffffffffffff168473ffffffffffffffffffffffffffffffffffffffff161415611ca0576001915050611cb3565b8080600101915050611bf5565b50600090505b92915050565b600080600090505b6007600084815260200190815260200160002080549050811015611d7557600760008481526020019081526020016000208181548110611cfd57fe5b9060005260206000200160000160009054906101000a900473ffffffffffffffffffffffffffffffffffffffff1673ffffffffffffffffffffffffffffffffffffffff168473ffffffffffffffffffffffffffffffffffffffff161415611d68576001915050611d7b565b8080600101915050611cc1565b50600090505b92915050565b600080600090505b6006600084815260200190815260200160002080549050811015611e4157600660008481526020019081526020016000208181548110611dc557fe5b906000526020600020906002020160000160009054906101000a900473ffffffffffffffffffffffffffffffffffffffff1673ffffffffffffffffffffffffffffffffffffffff168473ffffffffffffffffffffffffffffffffffffffff161415611e34576001915050611e47565b8080600101915050611d89565b50600090505b92915050565b828054600181600116156101000203166002900490600052602060002090601f016020900481019282601f10611e8e57805160ff1916838001178555611ebc565b82800160010185558215611ebc579182015b82811115611ebb578251825591602001919060010190611ea0565b5b509050611ec99190611fc4565b5090565b828054828255906000526020600020908101928215611f1c579160200282015b82811115611f1b578251829080519060200190611f0b929190611e4d565b5091602001919060010190611eed565b5b509050611f299190611fe9565b5090565b6040518060800160405280600073ffffffffffffffffffffffffffffffffffffffff168152602001606081526020016000151581526020016000151581525090565b60405180606001604052806000815260200160608152602001606081525090565b604051806040016040528060008152602001606081525090565b604051806040016040528060008152602001606081525090565b611fe691905b80821115611fe2576000816000905550600101611fca565b5090565b90565b61201291905b8082111561200e57600081816120059190612015565b50600101611fef565b5090565b90565b50805460018160011615610100020316600290046000825580601f1061203b575061205a565b601f0160209004906000526020600020908101906120599190611fc4565b5b50565b60008135905061206c81612cd3565b92915050565b600082601f83011261208357600080fd5b813561209661209182612a46565b612a19565b9150818183526020840193506020810190508360005b838110156120dc57813586016120c288826120fb565b8452602084019350602083019250506001810190506120ac565b5050505092915050565b6000813590506120f581612cea565b92915050565b600082601f83011261210c57600080fd5b813561211f61211a82612a6e565b612a19565b9150808252602083016020830185838301111561213b57600080fd5b612146838284612c80565b50505092915050565b600082601f83011261216057600080fd5b813561217361216e82612a9a565b612a19565b9150808252602083016020830185838301111561218f57600080fd5b61219a838284612c80565b50505092915050565b6000813590506121b281612d01565b92915050565b6000602082840312156121ca57600080fd5b60006121d88482850161205d565b91505092915050565b6000602082840312156121f357600080fd5b600082013567ffffffffffffffff81111561220d57600080fd5b6122198482850161214f565b91505092915050565b6000806040838503121561223557600080fd5b600083013567ffffffffffffffff81111561224f57600080fd5b61225b8582860161214f565b925050602083013567ffffffffffffffff81111561227857600080fd5b61228485828601612072565b9150509250929050565b6000602082840312156122a057600080fd5b60006122ae848285016121a3565b91505092915050565b600080604083850312156122ca57600080fd5b60006122d8858286016121a3565b92505060206122e9858286016120e6565b9150509250929050565b6000806040838503121561230657600080fd5b6000612314858286016121a3565b9250506020612325858286016121a3565b9150509250929050565b600061233b838361263a565b905092915050565b600061234f83836126b0565b60408301905092915050565b60006123678383612742565b905092915050565b600061237b83836127a5565b60408301905092915050565b60006123938383612868565b60408301905092915050565b6123a881612c38565b82525050565b6123b781612c26565b82525050565b60006123c882612b16565b6123d28185612ba4565b9350836020820285016123e485612ac6565b8060005b858110156124205784840389528151612401858261232f565b945061240c83612b63565b925060208a019950506001810190506123e8565b50829750879550505050505092915050565b600061243d82612b21565b6124478185612bb5565b935061245283612ad6565b8060005b8381101561248357815161246a8882612343565b975061247583612b70565b925050600181019050612456565b5085935050505092915050565b600061249b82612b2c565b6124a58185612bc6565b9350836020820285016124b785612ae6565b8060005b858110156124f357848403895281516124d4858261235b565b94506124df83612b7d565b925060208a019950506001810190506124bb565b50829750879550505050505092915050565b600061251082612b37565b61251a8185612bd7565b935061252583612af6565b8060005b8381101561255657815161253d888261236f565b975061254883612b8a565b925050600181019050612529565b5085935050505092915050565b600061256e82612b42565b6125788185612be8565b935061258383612b06565b8060005b838110156125b457815161259b8882612387565b97506125a683612b97565b925050600181019050612587565b5085935050505092915050565b6125ca81612c4a565b82525050565b60006125db82612b58565b6125e58185612c0a565b93506125f5818560208601612c8f565b6125fe81612cc2565b840191505092915050565b600061261482612b58565b61261e8185612c1b565b935061262e818560208601612c8f565b80840191505092915050565b600061264582612b4d565b61264f8185612bf9565b935061265f818560208601612c8f565b61266881612cc2565b840191505092915050565b600060408301600083015161268b6000860182612897565b50602083015184820360208601526126a3828261263a565b9150508091505092915050565b6040820160008201516126c660008501826123ae565b5060208201516126d960208501826125c1565b50505050565b60006080830160008301516126f7600086018261239f565b506020830151848203602086015261270f828261263a565b915050604083015161272460408601826125c1565b50606083015161273760608601826125c1565b508091505092915050565b600060808301600083015161275a600086018261239f565b5060208301518482036020860152612772828261263a565b915050604083015161278760408601826125c1565b50606083015161279a60608601826125c1565b508091505092915050565b6040820160008201516127bb60008501826123ae565b5060208201516127ce6020850182612897565b50505050565b60006060830160008301516127ec6000860182612897565b5060208301518482036020860152612804828261263a565b9150506040830151848203604086015261281e82826123bd565b9150508091505092915050565b60006040830160008301516128436000860182612897565b506020830151848203602086015261285b828261263a565b9150508091505092915050565b60408201600082015161287e60008501826123ae565b5060208201516128916020850182612897565b50505050565b6128a081612c76565b82525050565b6128af81612c76565b82525050565b60006128c18284612609565b915081905092915050565b600060208201905081810360008301526128e68184612432565b905092915050565b600060208201905081810360008301526129088184612490565b905092915050565b6000602082019050818103600083015261292a8184612505565b905092915050565b6000602082019050818103600083015261294c8184612563565b905092915050565b6000602082019050818103600083015261296e81846125d0565b905092915050565b600060208201905081810360008301526129908184612673565b905092915050565b600060208201905081810360008301526129b281846126df565b905092915050565b600060208201905081810360008301526129d481846127d4565b905092915050565b600060208201905081810360008301526129f6818461282b565b905092915050565b6000602082019050612a1360008301846128a6565b92915050565b6000604051905081810181811067ffffffffffffffff82111715612a3c57600080fd5b8060405250919050565b600067ffffffffffffffff821115612a5d57600080fd5b602082029050602081019050919050565b600067ffffffffffffffff821115612a8557600080fd5b601f19601f8301169050602081019050919050565b600067ffffffffffffffff821115612ab157600080fd5b601f19601f8301169050602081019050919050565b6000819050602082019050919050565b6000819050602082019050919050565b6000819050602082019050919050565b6000819050602082019050919050565b6000819050602082019050919050565b600081519050919050565b600081519050919050565b600081519050919050565b600081519050919050565b600081519050919050565b600081519050919050565b600081519050919050565b6000602082019050919050565b6000602082019050919050565b6000602082019050919050565b6000602082019050919050565b6000602082019050919050565b600082825260208201905092915050565b600082825260208201905092915050565b600082825260208201905092915050565b600082825260208201905092915050565b600082825260208201905092915050565b600082825260208201905092915050565b600082825260208201905092915050565b600081905092915050565b6000612c3182612c56565b9050919050565b6000612c4382612c56565b9050919050565b60008115159050919050565b600073ffffffffffffffffffffffffffffffffffffffff82169050919050565b6000819050919050565b82818337600083830152505050565b60005b83811015612cad578082015181840152602081019050612c92565b83811115612cbc576000848401525b50505050565b6000601f19601f8301169050919050565b612cdc81612c26565b8114612ce757600080fd5b50565b612cf381612c4a565b8114612cfe57600080fd5b50565b612d0a81612c76565b8114612d1557600080fd5b5056fea365627a7a723158204fb0a7a3a4f4fbc8509297190634a8e2572887c2a23480f32c4b23d3be9c98f46c6578706572696d656e74616cf564736f6c634300050c0040",
  "source": "pragma solidity >=0.4.22 <0.6.0;\npragma experimental ABIEncoderV2;\n\ncontract Chainclub {\n    \n    struct Member {\n        address payable wallet;\n        string name;\n        bool paidLastMonth;\n        bool isSellingMembership;\n    }\n    \n    struct BooleanPoll {    \n        uint pollIndex;\n        string subject;     // Ex: Vamos investir em algo para o clube?\n    }\n    \n    struct OptionsPoll {    \n        uint pollIndex; \n        string subject;     // Ex: No que vamos investir?\n        string[] options;   // \"Piscina de ondas\", \"Pista de corrida\", \"Torre de bung jump\"\n    }\n    \n    struct QuantityPoll {\n        uint pollIndex;\n        string subject;     // Ex: Quantos reais gastaremos no nosso novo investimento?\n    }\n    \n    struct BooleanVote {\n        address owner;\n        bool yesOrNo;\n    }\n    \n    struct OptionVote {\n        address owner;\n        uint optionIndex;\n    }\n\n    struct QuantityVote {\n        address owner;\n        uint quantity;      \n    }\n    \n    modifier didNotVoteOnBooleanPoll(address memberAddress, uint pollIndex) {\n        require(!alreadyVotedOnBooleanPoll(memberAddress, pollIndex));_;\n    }\n    \n    modifier didNotVoteOnQuantityPoll(address memberAddress, uint pollIndex) {\n        require(!alreadyVotedOnQuantityPoll(memberAddress, pollIndex));_;\n    }\n    \n    modifier didNotVoteOnOptionsPoll(address memberAddress, uint pollIndex) {\n        require(!alreadyVotedOnOptionsPoll(memberAddress, pollIndex));_;\n    }\n    \n    modifier isNotEmpty(string memory pollSubject) { \n        require(!stringsAreEqual(pollSubject, \"\")); _; \n    }\n    \n    modifier moneyIsEnough(uint value) { \n        require(value >= MEMBERSHIP_PRICE); _; \n    }\n    \n    // Enums\n    uint16 constant MAX_MEMBERS = 1;\n    uint constant MEMBERSHIP_PRICE = 1000000000;\n    \n    address payable contractOwner;\n    \n    Member[] members; // guarda todos membros \n    QuantityPoll[] quantityPolls;   // guarda todas enquetes de quantidade\n    OptionsPoll[] optionsPolls;     // guarda todas enquetes de opes\n    BooleanPoll[] booleanPolls;     // guarda todas enquetes de sim / nao\n    mapping (uint => QuantityVote[]) quantityPollsVotes;    // d o ndice da enquete e recebe um array de votos\n    mapping (uint => OptionVote[]) optionsPollsVotes;       // d o ndice da enquete e recebe um array de votos\n    mapping (uint => BooleanVote[]) booleanPollsVotes;      // d o ndice da enquete e recebe um array de votos\n\n    constructor(string memory yourFullName) public {\n        contractOwner = msg.sender;\n        members.push(\n            Member(\n                msg.sender, yourFullName, true, false\n            )\n        );\n    }\n    \n    function startBooleanPoll (string memory pollSubject) public isNotEmpty(pollSubject) {\n        booleanPolls.push(\n            BooleanPoll(\n                booleanPolls.length, pollSubject\n            )\n        );\n    }\n    \n    function startQuantityPoll (string memory pollSubject) public isNotEmpty(pollSubject) {\n        quantityPolls.push(\n            QuantityPoll(\n                quantityPolls.length, pollSubject\n            )\n        );\n    }\n    \n    function startOptionsPoll (string memory pollSubject, string[] memory options) public isNotEmpty(pollSubject) {\n        optionsPolls.push(\n            OptionsPoll(\n                optionsPolls.length, pollSubject, options\n            )\n        );\n    }\n    \n    function voteOnBooleanPool(uint pollIndex, bool boolean) public didNotVoteOnBooleanPoll(msg.sender, pollIndex) {\n        booleanPollsVotes[pollIndex].push(\n            BooleanVote(\n                msg.sender, boolean\n            )\n        );\n    }\n    \n    function voteOnQuantityPool(uint pollIndex, uint quantity) public didNotVoteOnQuantityPoll(msg.sender, pollIndex) {\n        quantityPollsVotes[pollIndex].push(\n            QuantityVote(\n                msg.sender, quantity\n            )\n        );\n    }\n    \n    function voteOnOptionPool(uint pollIndex, uint option) public didNotVoteOnOptionsPoll(msg.sender, pollIndex) {\n        optionsPollsVotes[pollIndex].push(\n            OptionVote(\n                msg.sender, option\n            )\n        );\n    }\n    \n    function buyMembership(string memory buyerName) payable public moneyIsEnough(msg.value) {\n        \n        // Dinheiro vai pro fundador\n        if (members.length < MAX_MEMBERS) {\n            contractOwner.transfer(msg.value);\n        }\n        \n        // Procura membro que esteja vendendo\n        else { \n            for (uint i = 0; i < members.length; i++) {\n                if (members[i].isSellingMembership) {\n                    members[i] = Member(\n                        msg.sender, buyerName, true, false\n                    );\n                    \n                    // Dinheiro vai pro membro\n                    members[i].wallet.transfer(msg.value);\n                }\n            }\n        }\n    }\n    \n    function sellMembership () public {\n        for (uint i = 0; i < members.length; i++) {\n            if (members[i].wallet == msg.sender) {\n                members[i].isSellingMembership = true;\n            }\n        }\n        \n    }\n    \n    //////////////// SIMPLE GETTERS ////////////////\n    \n    function getBooleanPoll (uint pollIndex) public view returns (BooleanPoll memory) {\n        return booleanPolls[pollIndex];\n    }\n    \n    function getQuantityPoll (uint pollIndex) public view returns (QuantityPoll memory) {\n        return quantityPolls[pollIndex];\n    }\n    \n    function getOptionsPoll (uint pollIndex) public view returns (OptionsPoll memory) {\n        return optionsPolls[pollIndex];\n    }\n    \n    function getBooleanPollVotes (uint pollIndex) public view returns (BooleanVote[] memory) {\n        return booleanPollsVotes[pollIndex];\n    }\n    \n    function getQuantityPollVotes (uint pollIndex) public view returns (QuantityVote[] memory) {\n        return quantityPollsVotes[pollIndex];\n    }\n    \n    function getOptionsPollVotes (uint pollIndex) public view returns (OptionVote[] memory) {\n        return optionsPollsVotes[pollIndex];\n    }\n    \n    function getMember (uint memberIndex) public view returns (Member memory) {\n        return members[memberIndex];\n    }\n    \n    function getMember (address memberAddress) public view returns (Member memory) {\n        for (uint i = 0; i < members.length; i++) {\n            if (members[i].wallet == memberAddress) {\n                return members[i];\n            }\n        }\n    }\n    \n    function getMembers () public view returns (Member[] memory) {\n        return members;\n    }\n    \n    function getMembershipPrice() public pure returns (uint) {\n        return MEMBERSHIP_PRICE;\n    }\n    \n    /////////// FUNCOES QUE BUGAM NO REMIX IDE ////////\n    \n    function getBooleanPollSubject (uint pollIndex) public view returns (string memory) {\n        return booleanPolls[pollIndex].subject;\n    }\n    \n    function getQuantityPollSubject (uint pollIndex) public view returns (string memory) {\n        return quantityPolls[pollIndex].subject;\n    }\n    \n    function getOptionsPollSubject (uint pollIndex) public view returns (string memory) {\n        return optionsPolls[pollIndex].subject;\n    }\n    \n    function getBooleanPollVotesCount (uint pollIndex) public view returns (uint) {\n        return booleanPollsVotes[pollIndex].length;\n    }\n    \n    function getQuantityPollVotesCount (uint pollIndex) public view returns (uint) {\n        return quantityPollsVotes[pollIndex].length;\n    }\n    \n    function getOptionsPollVotesCount (uint pollIndex) public view returns (uint) {\n        return optionsPollsVotes[pollIndex].length;\n    }\n    \n    //////////////// PRIVATE FUNCTIONS ////////////////\n    \n    function stringsAreEqual (string memory a, string memory b) private pure returns (bool) {\n        return (keccak256(abi.encodePacked((a))) == keccak256(abi.encodePacked((b))) );\n    }\n    \n    function alreadyVotedOnBooleanPoll (address memberAddress, uint pollIndex) private view returns (bool) {\n        for (uint i = 0; i < booleanPollsVotes[pollIndex].length; i++) {\n            if (memberAddress == booleanPollsVotes[pollIndex][i].owner) {\n                return true;\n            }\n        }\n        return false;\n    }\n    \n    function alreadyVotedOnQuantityPoll (address memberAddress, uint pollIndex) private view returns (bool) {\n        for (uint i = 0; i < quantityPollsVotes[pollIndex].length; i++) {\n            if (memberAddress == quantityPollsVotes[pollIndex][i].owner) {\n                return true;\n            }\n        }\n        return false;\n    }\n    \n    function alreadyVotedOnOptionsPoll (address memberAddress, uint pollIndex) private view returns (bool) {\n        for (uint i = 0; i < optionsPollsVotes[pollIndex].length; i++) {\n            if (memberAddress == optionsPollsVotes[pollIndex][i].owner) {\n                return true;\n            }\n        }\n        return false;\n    }\n}",
  "sourcePath": "/Users/rlveiga/projects/DAO/contracts/Chainclub.sol",
  "compiler": {
    "name": "solc",
    "version": "0.5.12+commit.7709ece9.Emscripten.clang"
  },
  "schemaVersion": "3.0.19",
  "updatedAt": "2019-12-06T03:46:04.807Z",
  "networkType": "ethereum",
  "devdoc": {
    "methods": {}
  },
  "userdoc": {
    "methods": {
      "getBooleanPoll(uint256)": {
        "notice": "///////////// SIMPLE GETTERS ////////////////"
      },
      "getBooleanPollSubject(uint256)": {
        "notice": "//////// FUNCOES QUE BUGAM NO REMIX IDE ////////"
      }
    }
  }
}