{
  "contractName": "Chainclub",
  "abi": [
    {
      "inputs": [
        {
          "name": "yourFullName",
          "type": "string"
        }
      ],
      "payable": false,
      "stateMutability": "nonpayable",
      "type": "constructor"
    },
    {
      "constant": false,
      "inputs": [
        {
          "name": "pollSubject",
          "type": "string"
        }
      ],
      "name": "startBooleanPoll",
      "outputs": [],
      "payable": false,
      "stateMutability": "nonpayable",
      "type": "function"
    },
    {
      "constant": false,
      "inputs": [
        {
          "name": "pollSubject",
          "type": "string"
        }
      ],
      "name": "startQuantityPoll",
      "outputs": [],
      "payable": false,
      "stateMutability": "nonpayable",
      "type": "function"
    },
    {
      "constant": false,
      "inputs": [
        {
          "name": "pollSubject",
          "type": "string"
        },
        {
          "name": "options",
          "type": "string[]"
        }
      ],
      "name": "startOptionsPoll",
      "outputs": [],
      "payable": false,
      "stateMutability": "nonpayable",
      "type": "function"
    },
    {
      "constant": false,
      "inputs": [
        {
          "name": "pollIndex",
          "type": "uint256"
        },
        {
          "name": "boolean",
          "type": "bool"
        }
      ],
      "name": "voteOnBooleanPool",
      "outputs": [],
      "payable": false,
      "stateMutability": "nonpayable",
      "type": "function"
    },
    {
      "constant": false,
      "inputs": [
        {
          "name": "pollIndex",
          "type": "uint256"
        },
        {
          "name": "quantity",
          "type": "uint256"
        }
      ],
      "name": "voteOnQuantityPool",
      "outputs": [],
      "payable": false,
      "stateMutability": "nonpayable",
      "type": "function"
    },
    {
      "constant": false,
      "inputs": [
        {
          "name": "pollIndex",
          "type": "uint256"
        },
        {
          "name": "option",
          "type": "uint256"
        }
      ],
      "name": "voteOnOptionPool",
      "outputs": [],
      "payable": false,
      "stateMutability": "nonpayable",
      "type": "function"
    },
    {
      "constant": false,
      "inputs": [
        {
          "name": "buyerName",
          "type": "string"
        }
      ],
      "name": "buyMembership",
      "outputs": [],
      "payable": true,
      "stateMutability": "payable",
      "type": "function"
    },
    {
      "constant": false,
      "inputs": [],
      "name": "sellMembership",
      "outputs": [],
      "payable": false,
      "stateMutability": "nonpayable",
      "type": "function"
    },
    {
      "constant": true,
      "inputs": [
        {
          "name": "pollIndex",
          "type": "uint256"
        }
      ],
      "name": "getBooleanPoll",
      "outputs": [
        {
          "components": [
            {
              "name": "pollIndex",
              "type": "uint256"
            },
            {
              "name": "subject",
              "type": "string"
            }
          ],
          "name": "",
          "type": "tuple"
        }
      ],
      "payable": false,
      "stateMutability": "view",
      "type": "function"
    },
    {
      "constant": true,
      "inputs": [
        {
          "name": "pollIndex",
          "type": "uint256"
        }
      ],
      "name": "getBooleanPollSubject",
      "outputs": [
        {
          "name": "",
          "type": "string"
        }
      ],
      "payable": false,
      "stateMutability": "view",
      "type": "function"
    },
    {
      "constant": true,
      "inputs": [
        {
          "name": "pollIndex",
          "type": "uint256"
        }
      ],
      "name": "getQuantityPoll",
      "outputs": [
        {
          "components": [
            {
              "name": "pollIndex",
              "type": "uint256"
            },
            {
              "name": "subject",
              "type": "string"
            }
          ],
          "name": "",
          "type": "tuple"
        }
      ],
      "payable": false,
      "stateMutability": "view",
      "type": "function"
    },
    {
      "constant": true,
      "inputs": [
        {
          "name": "pollIndex",
          "type": "uint256"
        }
      ],
      "name": "getQuantityPollSubject",
      "outputs": [
        {
          "name": "",
          "type": "string"
        }
      ],
      "payable": false,
      "stateMutability": "view",
      "type": "function"
    },
    {
      "constant": true,
      "inputs": [
        {
          "name": "pollIndex",
          "type": "uint256"
        }
      ],
      "name": "getOptionsPoll",
      "outputs": [
        {
          "components": [
            {
              "name": "pollIndex",
              "type": "uint256"
            },
            {
              "name": "subject",
              "type": "string"
            },
            {
              "name": "options",
              "type": "string[]"
            }
          ],
          "name": "",
          "type": "tuple"
        }
      ],
      "payable": false,
      "stateMutability": "view",
      "type": "function"
    },
    {
      "constant": true,
      "inputs": [
        {
          "name": "pollIndex",
          "type": "uint256"
        }
      ],
      "name": "getOptionsPollSubject",
      "outputs": [
        {
          "name": "",
          "type": "string"
        }
      ],
      "payable": false,
      "stateMutability": "view",
      "type": "function"
    },
    {
      "constant": true,
      "inputs": [
        {
          "name": "pollIndex",
          "type": "uint256"
        }
      ],
      "name": "getBooleanPollVotes",
      "outputs": [
        {
          "components": [
            {
              "name": "owner",
              "type": "address"
            },
            {
              "name": "yesOrNo",
              "type": "bool"
            }
          ],
          "name": "",
          "type": "tuple[]"
        }
      ],
      "payable": false,
      "stateMutability": "view",
      "type": "function"
    },
    {
      "constant": true,
      "inputs": [
        {
          "name": "pollIndex",
          "type": "uint256"
        }
      ],
      "name": "getBooleanPollVotesCount",
      "outputs": [
        {
          "name": "",
          "type": "uint256"
        }
      ],
      "payable": false,
      "stateMutability": "view",
      "type": "function"
    },
    {
      "constant": true,
      "inputs": [
        {
          "name": "pollIndex",
          "type": "uint256"
        }
      ],
      "name": "getQuantityPollVotes",
      "outputs": [
        {
          "components": [
            {
              "name": "owner",
              "type": "address"
            },
            {
              "name": "quantity",
              "type": "uint256"
            }
          ],
          "name": "",
          "type": "tuple[]"
        }
      ],
      "payable": false,
      "stateMutability": "view",
      "type": "function"
    },
    {
      "constant": true,
      "inputs": [
        {
          "name": "pollIndex",
          "type": "uint256"
        }
      ],
      "name": "getQuantityPollVotesCount",
      "outputs": [
        {
          "name": "",
          "type": "uint256"
        }
      ],
      "payable": false,
      "stateMutability": "view",
      "type": "function"
    },
    {
      "constant": true,
      "inputs": [
        {
          "name": "pollIndex",
          "type": "uint256"
        }
      ],
      "name": "getOptionsPollVotes",
      "outputs": [
        {
          "components": [
            {
              "name": "owner",
              "type": "address"
            },
            {
              "name": "optionIndex",
              "type": "uint256"
            }
          ],
          "name": "",
          "type": "tuple[]"
        }
      ],
      "payable": false,
      "stateMutability": "view",
      "type": "function"
    },
    {
      "constant": true,
      "inputs": [
        {
          "name": "pollIndex",
          "type": "uint256"
        }
      ],
      "name": "getOptionsPollVotesCount",
      "outputs": [
        {
          "name": "",
          "type": "uint256"
        }
      ],
      "payable": false,
      "stateMutability": "view",
      "type": "function"
    },
    {
      "constant": true,
      "inputs": [
        {
          "name": "memberAddress",
          "type": "address"
        }
      ],
      "name": "getMember",
      "outputs": [
        {
          "components": [
            {
              "name": "wallet",
              "type": "address"
            },
            {
              "name": "name",
              "type": "string"
            },
            {
              "name": "paidLastMonth",
              "type": "bool"
            },
            {
              "name": "isSellingMembership",
              "type": "bool"
            }
          ],
          "name": "",
          "type": "tuple"
        }
      ],
      "payable": false,
      "stateMutability": "view",
      "type": "function"
    },
    {
      "constant": true,
      "inputs": [
        {
          "name": "memberIndex",
          "type": "uint256"
        }
      ],
      "name": "getMember",
      "outputs": [
        {
          "components": [
            {
              "name": "wallet",
              "type": "address"
            },
            {
              "name": "name",
              "type": "string"
            },
            {
              "name": "paidLastMonth",
              "type": "bool"
            },
            {
              "name": "isSellingMembership",
              "type": "bool"
            }
          ],
          "name": "",
          "type": "tuple"
        }
      ],
      "payable": false,
      "stateMutability": "view",
      "type": "function"
    },
    {
      "constant": true,
      "inputs": [],
      "name": "getMembers",
      "outputs": [
        {
          "components": [
            {
              "name": "wallet",
              "type": "address"
            },
            {
              "name": "name",
              "type": "string"
            },
            {
              "name": "paidLastMonth",
              "type": "bool"
            },
            {
              "name": "isSellingMembership",
              "type": "bool"
            }
          ],
          "name": "",
          "type": "tuple[]"
        }
      ],
      "payable": false,
      "stateMutability": "view",
      "type": "function"
    }
  ],
  "bytecode": "0x60806040523480156200001157600080fd5b506040516200307b3803806200307b83398101806040526200003791908101906200029c565b336000806101000a81548173ffffffffffffffffffffffffffffffffffffffff021916908373ffffffffffffffffffffffffffffffffffffffff160217905550600160405180608001604052803373ffffffffffffffffffffffffffffffffffffffff168152602001838152602001600115158152602001600015158152509080600181540180825580915050906001820390600052602060002090600302016000909192909190915060008201518160000160006101000a81548173ffffffffffffffffffffffffffffffffffffffff021916908373ffffffffffffffffffffffffffffffffffffffff16021790555060208201518160010190805190602001906200014692919062000191565b5060408201518160020160006101000a81548160ff02191690831515021790555060608201518160020160016101000a81548160ff0219169083151502179055505050505062000372565b828054600181600116156101000203166002900490600052602060002090601f016020900481019282601f10620001d457805160ff191683800117855562000205565b8280016001018555821562000205579182015b8281111562000204578251825591602001919060010190620001e7565b5b50905062000214919062000218565b5090565b6200023d91905b80821115620002395760008160009055506001016200021f565b5090565b90565b600082601f8301126200025257600080fd5b81516200026962000263826200030f565b620002e1565b915080825260208301602083018583830111156200028657600080fd5b620002938382846200033c565b50505092915050565b600060208284031215620002af57600080fd5b600082015167ffffffffffffffff811115620002ca57600080fd5b620002d88482850162000240565b91505092915050565b6000604051905081810181811067ffffffffffffffff821117156200030557600080fd5b8060405250919050565b600067ffffffffffffffff8211156200032757600080fd5b601f19601f8301169050602081019050919050565b60005b838110156200035c5780820151818401526020810190506200033f565b838111156200036c576000848401525b50505050565b612cf980620003826000396000f3fe6080604052600436106101405760003560e01c80637645154c116100b6578063b14e4d161161006f578063b14e4d16146104a9578063ba53e715146104e6578063ce5717f214610523578063e24bb9561461054c578063f267efae14610589578063f2d62407146105b257610140565b80637645154c14610373578063911c8107146103b057806393671a95146103c75780639eab525314610404578063ab3545e51461042f578063aeceff6b1461046c57610140565b80633e0582c2116101085780633e0582c21461026257806344966dc81461029f57806348b98958146102dc57806351df24e0146102f857806352ac34dd146103215780636aefb5181461034a57610140565b80630f43f472146101455780631b65db3d1461016e5780631bcd29f8146101ab57806329791e8e146101e85780632ada259614610225575b600080fd5b34801561015157600080fd5b5061016c600480360361016791908101906121d8565b6105ef565b005b34801561017a57600080fd5b5061019560048036036101909190810190612244565b6106ac565b6040516101a291906129b4565b60405180910390f35b3480156101b757600080fd5b506101d260048036036101cd9190810190612244565b6106cc565b6040516101df91906128c6565b60405180910390f35b3480156101f457600080fd5b5061020f600480360361020a9190810190612244565b61079e565b60405161021c9190612882565b60405180910390f35b34801561023157600080fd5b5061024c6004803603610247919081019061216e565b61087d565b604051610259919061294e565b60405180910390f35b34801561026e57600080fd5b5061028960048036036102849190810190612244565b610a7a565b6040516102969190612970565b60405180910390f35b3480156102ab57600080fd5b506102c660048036036102c19190810190612244565b610c44565b6040516102d3919061290a565b60405180910390f35b6102f660048036036102f19190810190612197565b610d04565b005b34801561030457600080fd5b5061031f600480360361031a9190810190612197565b610f69565b005b34801561032d57600080fd5b50610348600480360361034391908101906122a9565b611002565b005b34801561035657600080fd5b50610371600480360361036c919081019061226d565b6110db565b005b34801561037f57600080fd5b5061039a60048036036103959190810190612244565b6111c8565b6040516103a791906129b4565b60405180910390f35b3480156103bc57600080fd5b506103c56111e8565b005b3480156103d357600080fd5b506103ee60048036036103e99190810190612244565b6112b4565b6040516103fb919061290a565b60405180910390f35b34801561041057600080fd5b50610419611374565b60405161042691906128a4565b60405180910390f35b34801561043b57600080fd5b5061045660048036036104519190810190612244565b611501565b604051610463919061294e565b60405180910390f35b34801561047857600080fd5b50610493600480360361048e9190810190612244565b611664565b6040516104a091906129b4565b60405180910390f35b3480156104b557600080fd5b506104d060048036036104cb9190810190612244565b611684565b6040516104dd9190612992565b60405180910390f35b3480156104f257600080fd5b5061050d60048036036105089190810190612244565b611765565b60405161051a919061290a565b60405180910390f35b34801561052f57600080fd5b5061054a60048036036105459190810190612197565b611825565b005b34801561055857600080fd5b50610573600480360361056e9190810190612244565b6118be565b60405161058091906128e8565b60405180910390f35b34801561059557600080fd5b506105b060048036036105ab91908101906122a9565b611990565b005b3480156105be57600080fd5b506105d960048036036105d49190810190612244565b611a69565b6040516105e6919061292c565b60405180910390f35b816106098160405180602001604052806000815250611b4a565b1561061357600080fd5b6003604051806060016040528060038054905081526020018581526020018481525090806001815401808255809150509060018203906000526020600020906003020160009091929091909150600082015181600001556020820151816001019080519060200190610686929190611e03565b5060408201518160020190805190602001906106a3929190611e83565b50505050505050565b600060076000838152602001908152602001600020805490509050919050565b606060066000838152602001908152602001600020805480602002602001604051908101604052809291908181526020016000905b8282101561079357838290600052602060002090600202016040518060400160405290816000820160009054906101000a900473ffffffffffffffffffffffffffffffffffffffff1673ffffffffffffffffffffffffffffffffffffffff1673ffffffffffffffffffffffffffffffffffffffff16815260200160018201548152505081526020019060010190610701565b505050509050919050565b606060076000838152602001908152602001600020805480602002602001604051908101604052809291908181526020016000905b82821015610872578382906000526020600020016040518060400160405290816000820160009054906101000a900473ffffffffffffffffffffffffffffffffffffffff1673ffffffffffffffffffffffffffffffffffffffff1673ffffffffffffffffffffffffffffffffffffffff1681526020016000820160149054906101000a900460ff161515151581525050815260200190600101906107d3565b505050509050919050565b610885611ee3565b60008090505b600180549050811015610a73578273ffffffffffffffffffffffffffffffffffffffff16600182815481106108bc57fe5b906000526020600020906003020160000160009054906101000a900473ffffffffffffffffffffffffffffffffffffffff1673ffffffffffffffffffffffffffffffffffffffff161415610a66576001818154811061091757fe5b90600052602060002090600302016040518060800160405290816000820160009054906101000a900473ffffffffffffffffffffffffffffffffffffffff1673ffffffffffffffffffffffffffffffffffffffff1673ffffffffffffffffffffffffffffffffffffffff168152602001600182018054600181600116156101000203166002900480601f016020809104026020016040519081016040528092919081815260200182805460018160011615610100020316600290048015610a1f5780601f106109f457610100808354040283529160200191610a1f565b820191906000526020600020905b815481529060010190602001808311610a0257829003601f168201915b505050505081526020016002820160009054906101000a900460ff161515151581526020016002820160019054906101000a900460ff161515151581525050915050610a75565b808060010191505061088b565b505b919050565b610a82611f25565b60038281548110610a8f57fe5b906000526020600020906003020160405180606001604052908160008201548152602001600182018054600181600116156101000203166002900480601f016020809104026020016040519081016040528092919081815260200182805460018160011615610100020316600290048015610b4b5780601f10610b2057610100808354040283529160200191610b4b565b820191906000526020600020905b815481529060010190602001808311610b2e57829003601f168201915b5050505050815260200160028201805480602002602001604051908101604052809291908181526020016000905b82821015610c35578382906000526020600020018054600181600116156101000203166002900480601f016020809104026020016040519081016040528092919081815260200182805460018160011615610100020316600290048015610c215780601f10610bf657610100808354040283529160200191610c21565b820191906000526020600020905b815481529060010190602001808311610c0457829003601f168201915b505050505081526020019060010190610b79565b50505050815250509050919050565b606060038281548110610c5357fe5b90600052602060002090600302016001018054600181600116156101000203166002900480601f016020809104026020016040519081016040528092919081815260200182805460018160011615610100020316600290048015610cf85780601f10610ccd57610100808354040283529160200191610cf8565b820191906000526020600020905b815481529060010190602001808311610cdb57829003601f168201915b50505050509050919050565b6103e861ffff166001805490501015610d89576000809054906101000a900473ffffffffffffffffffffffffffffffffffffffff1673ffffffffffffffffffffffffffffffffffffffff166108fc600a61ffff169081150290604051600060405180830381858888f19350505050158015610d83573d6000803e3d6000fd5b50610f66565b60008090505b600180549050811015610f645760018181548110610da957fe5b906000526020600020906003020160020160019054906101000a900460ff1615610f575760405180608001604052803373ffffffffffffffffffffffffffffffffffffffff1681526020018381526020016001151581526020016000151581525060018281548110610e1757fe5b906000526020600020906003020160008201518160000160006101000a81548173ffffffffffffffffffffffffffffffffffffffff021916908373ffffffffffffffffffffffffffffffffffffffff1602179055506020820151816001019080519060200190610e88929190611e03565b5060408201518160020160006101000a81548160ff02191690831515021790555060608201518160020160016101000a81548160ff02191690831515021790555090505060018181548110610ed957fe5b906000526020600020906003020160000160009054906101000a900473ffffffffffffffffffffffffffffffffffffffff1673ffffffffffffffffffffffffffffffffffffffff166108fc600a61ffff169081150290604051600060405180830381858888f19350505050158015610f55573d6000803e3d6000fd5b505b8080600101915050610d8f565b505b50565b80610f838160405180602001604052806000815250611b4a565b15610f8d57600080fd5b6002604051806040016040528060028054905081526020018481525090806001815401808255809150509060018203906000526020600020906002020160009091929091909150600082015181600001556020820151816001019080519060200190610ffa929190611e03565b505050505050565b338261100e8282611ba3565b1561101857600080fd5b6005600085815260200190815260200160002060405180604001604052803373ffffffffffffffffffffffffffffffffffffffff168152602001858152509080600181540180825580915050906001820390600052602060002090600202016000909192909190915060008201518160000160006101000a81548173ffffffffffffffffffffffffffffffffffffffff021916908373ffffffffffffffffffffffffffffffffffffffff1602179055506020820151816001015550505050505050565b33826110e78282611c6f565b156110f157600080fd5b6007600085815260200190815260200160002060405180604001604052803373ffffffffffffffffffffffffffffffffffffffff16815260200185151581525090806001815401808255809150509060018203906000526020600020016000909192909190915060008201518160000160006101000a81548173ffffffffffffffffffffffffffffffffffffffff021916908373ffffffffffffffffffffffffffffffffffffffff16021790555060208201518160000160146101000a81548160ff02191690831515021790555050505050505050565b600060056000838152602001908152602001600020805490509050919050565b60008090505b6001805490508110156112b1573373ffffffffffffffffffffffffffffffffffffffff166001828154811061121f57fe5b906000526020600020906003020160000160009054906101000a900473ffffffffffffffffffffffffffffffffffffffff1673ffffffffffffffffffffffffffffffffffffffff1614156112a457600180828154811061127b57fe5b906000526020600020906003020160020160016101000a81548160ff0219169083151502179055505b80806001019150506111ee565b50565b6060600282815481106112c357fe5b90600052602060002090600202016001018054600181600116156101000203166002900480601f0160208091040260200160405190810160405280929190818152602001828054600181600116156101000203166002900480156113685780601f1061133d57610100808354040283529160200191611368565b820191906000526020600020905b81548152906001019060200180831161134b57829003601f168201915b50505050509050919050565b60606001805480602002602001604051908101604052809291908181526020016000905b828210156114f857838290600052602060002090600302016040518060800160405290816000820160009054906101000a900473ffffffffffffffffffffffffffffffffffffffff1673ffffffffffffffffffffffffffffffffffffffff1673ffffffffffffffffffffffffffffffffffffffff168152602001600182018054600181600116156101000203166002900480601f0160208091040260200160405190810160405280929190818152602001828054600181600116156101000203166002900480156114aa5780601f1061147f576101008083540402835291602001916114aa565b820191906000526020600020905b81548152906001019060200180831161148d57829003601f168201915b505050505081526020016002820160009054906101000a900460ff161515151581526020016002820160019054906101000a900460ff16151515158152505081526020019060010190611398565b50505050905090565b611509611ee3565b6001828154811061151657fe5b90600052602060002090600302016040518060800160405290816000820160009054906101000a900473ffffffffffffffffffffffffffffffffffffffff1673ffffffffffffffffffffffffffffffffffffffff1673ffffffffffffffffffffffffffffffffffffffff168152602001600182018054600181600116156101000203166002900480601f01602080910402602001604051908101604052809291908181526020018280546001816001161561010002031660029004801561161e5780601f106115f35761010080835404028352916020019161161e565b820191906000526020600020905b81548152906001019060200180831161160157829003601f168201915b505050505081526020016002820160009054906101000a900460ff161515151581526020016002820160019054906101000a900460ff1615151515815250509050919050565b600060066000838152602001908152602001600020805490509050919050565b61168c611f46565b6002828154811061169957fe5b906000526020600020906002020160405180604001604052908160008201548152602001600182018054600181600116156101000203166002900480601f0160208091040260200160405190810160405280929190818152602001828054600181600116156101000203166002900480156117555780601f1061172a57610100808354040283529160200191611755565b820191906000526020600020905b81548152906001019060200180831161173857829003601f168201915b5050505050815250509050919050565b60606004828154811061177457fe5b90600052602060002090600202016001018054600181600116156101000203166002900480601f0160208091040260200160405190810160405280929190818152602001828054600181600116156101000203166002900480156118195780601f106117ee57610100808354040283529160200191611819565b820191906000526020600020905b8154815290600101906020018083116117fc57829003601f168201915b50505050509050919050565b8061183f8160405180602001604052806000815250611b4a565b1561184957600080fd5b60046040518060400160405280600480549050815260200184815250908060018154018082558091505090600182039060005260206000209060020201600090919290919091506000820151816000015560208201518160010190805190602001906118b6929190611e03565b505050505050565b606060056000838152602001908152602001600020805480602002602001604051908101604052809291908181526020016000905b8282101561198557838290600052602060002090600202016040518060400160405290816000820160009054906101000a900473ffffffffffffffffffffffffffffffffffffffff1673ffffffffffffffffffffffffffffffffffffffff1673ffffffffffffffffffffffffffffffffffffffff168152602001600182015481525050815260200190600101906118f3565b505050509050919050565b338261199c8282611d37565b156119a657600080fd5b6006600085815260200190815260200160002060405180604001604052803373ffffffffffffffffffffffffffffffffffffffff168152602001858152509080600181540180825580915050906001820390600052602060002090600202016000909192909190915060008201518160000160006101000a81548173ffffffffffffffffffffffffffffffffffffffff021916908373ffffffffffffffffffffffffffffffffffffffff1602179055506020820151816001015550505050505050565b611a71611f60565b60048281548110611a7e57fe5b906000526020600020906002020160405180604001604052908160008201548152602001600182018054600181600116156101000203166002900480601f016020809104026020016040519081016040528092919081815260200182805460018160011615610100020316600290048015611b3a5780601f10611b0f57610100808354040283529160200191611b3a565b820191906000526020600020905b815481529060010190602001808311611b1d57829003601f168201915b5050505050815250509050919050565b600081604051602001611b5d919061286b565b6040516020818303038152906040528051906020012083604051602001611b84919061286b565b6040516020818303038152906040528051906020012014905092915050565b600080600090505b6005600084815260200190815260200160002080549050811015611c6357600560008481526020019081526020016000208181548110611be757fe5b906000526020600020906002020160000160009054906101000a900473ffffffffffffffffffffffffffffffffffffffff1673ffffffffffffffffffffffffffffffffffffffff168473ffffffffffffffffffffffffffffffffffffffff161415611c56576001915050611c69565b8080600101915050611bab565b50600090505b92915050565b600080600090505b6007600084815260200190815260200160002080549050811015611d2b57600760008481526020019081526020016000208181548110611cb357fe5b9060005260206000200160000160009054906101000a900473ffffffffffffffffffffffffffffffffffffffff1673ffffffffffffffffffffffffffffffffffffffff168473ffffffffffffffffffffffffffffffffffffffff161415611d1e576001915050611d31565b8080600101915050611c77565b50600090505b92915050565b600080600090505b6006600084815260200190815260200160002080549050811015611df757600660008481526020019081526020016000208181548110611d7b57fe5b906000526020600020906002020160000160009054906101000a900473ffffffffffffffffffffffffffffffffffffffff1673ffffffffffffffffffffffffffffffffffffffff168473ffffffffffffffffffffffffffffffffffffffff161415611dea576001915050611dfd565b8080600101915050611d3f565b50600090505b92915050565b828054600181600116156101000203166002900490600052602060002090601f016020900481019282601f10611e4457805160ff1916838001178555611e72565b82800160010185558215611e72579182015b82811115611e71578251825591602001919060010190611e56565b5b509050611e7f9190611f7a565b5090565b828054828255906000526020600020908101928215611ed2579160200282015b82811115611ed1578251829080519060200190611ec1929190611e03565b5091602001919060010190611ea3565b5b509050611edf9190611f9f565b5090565b6040518060800160405280600073ffffffffffffffffffffffffffffffffffffffff168152602001606081526020016000151581526020016000151581525090565b60405180606001604052806000815260200160608152602001606081525090565b604051806040016040528060008152602001606081525090565b604051806040016040528060008152602001606081525090565b611f9c91905b80821115611f98576000816000905550600101611f80565b5090565b90565b611fc891905b80821115611fc45760008181611fbb9190611fcb565b50600101611fa5565b5090565b90565b50805460018160011615610100020316600290046000825580601f10611ff15750612010565b601f01602090049060005260206000209081019061200f9190611f7a565b5b50565b60008135905061202281612c7a565b92915050565b600082601f83011261203957600080fd5b813561204c612047826129fc565b6129cf565b9150818183526020840193506020810190508360005b83811015612092578135860161207888826120b1565b845260208401935060208301925050600181019050612062565b5050505092915050565b6000813590506120ab81612c91565b92915050565b600082601f8301126120c257600080fd5b81356120d56120d082612a24565b6129cf565b915080825260208301602083018583830111156120f157600080fd5b6120fc838284612c27565b50505092915050565b600082601f83011261211657600080fd5b813561212961212482612a50565b6129cf565b9150808252602083016020830185838301111561214557600080fd5b612150838284612c27565b50505092915050565b60008135905061216881612ca8565b92915050565b60006020828403121561218057600080fd5b600061218e84828501612013565b91505092915050565b6000602082840312156121a957600080fd5b600082013567ffffffffffffffff8111156121c357600080fd5b6121cf84828501612105565b91505092915050565b600080604083850312156121eb57600080fd5b600083013567ffffffffffffffff81111561220557600080fd5b61221185828601612105565b925050602083013567ffffffffffffffff81111561222e57600080fd5b61223a85828601612028565b9150509250929050565b60006020828403121561225657600080fd5b600061226484828501612159565b91505092915050565b6000806040838503121561228057600080fd5b600061228e85828601612159565b925050602061229f8582860161209c565b9150509250929050565b600080604083850312156122bc57600080fd5b60006122ca85828601612159565b92505060206122db85828601612159565b9150509250929050565b60006122f183836125f0565b905092915050565b60006123058383612666565b60408301905092915050565b600061231d83836126f8565b905092915050565b6000612331838361275b565b60408301905092915050565b6000612349838361281e565b60408301905092915050565b61235e81612bdf565b82525050565b61236d81612bcd565b82525050565b600061237e82612abd565b6123888185612b4b565b93508360208202850161239a85612a7c565b8060005b858110156123d657848403895281516123b785826122e5565b94506123c283612b0a565b925060208a0199505060018101905061239e565b50829750879550505050505092915050565b60006123f382612ac8565b6123fd8185612b5c565b935061240883612a89565b8060005b8381101561243957815161242088826122f9565b975061242b83612b17565b92505060018101905061240c565b5085935050505092915050565b600061245182612ad3565b61245b8185612b6d565b93508360208202850161246d85612a96565b8060005b858110156124a9578484038952815161248a8582612311565b945061249583612b24565b925060208a01995050600181019050612471565b50829750879550505050505092915050565b60006124c682612ade565b6124d08185612b7e565b93506124db83612aa3565b8060005b8381101561250c5781516124f38882612325565b97506124fe83612b31565b9250506001810190506124df565b5085935050505092915050565b600061252482612ae9565b61252e8185612b8f565b935061253983612ab0565b8060005b8381101561256a578151612551888261233d565b975061255c83612b3e565b92505060018101905061253d565b5085935050505092915050565b61258081612bf1565b82525050565b600061259182612aff565b61259b8185612bb1565b93506125ab818560208601612c36565b6125b481612c69565b840191505092915050565b60006125ca82612aff565b6125d48185612bc2565b93506125e4818560208601612c36565b80840191505092915050565b60006125fb82612af4565b6126058185612ba0565b9350612615818560208601612c36565b61261e81612c69565b840191505092915050565b6000604083016000830151612641600086018261284d565b506020830151848203602086015261265982826125f0565b9150508091505092915050565b60408201600082015161267c6000850182612364565b50602082015161268f6020850182612577565b50505050565b60006080830160008301516126ad6000860182612355565b50602083015184820360208601526126c582826125f0565b91505060408301516126da6040860182612577565b5060608301516126ed6060860182612577565b508091505092915050565b60006080830160008301516127106000860182612355565b506020830151848203602086015261272882826125f0565b915050604083015161273d6040860182612577565b5060608301516127506060860182612577565b508091505092915050565b6040820160008201516127716000850182612364565b506020820151612784602085018261284d565b50505050565b60006060830160008301516127a2600086018261284d565b50602083015184820360208601526127ba82826125f0565b915050604083015184820360408601526127d48282612373565b9150508091505092915050565b60006040830160008301516127f9600086018261284d565b506020830151848203602086015261281182826125f0565b9150508091505092915050565b6040820160008201516128346000850182612364565b506020820151612847602085018261284d565b50505050565b61285681612c1d565b82525050565b61286581612c1d565b82525050565b600061287782846125bf565b915081905092915050565b6000602082019050818103600083015261289c81846123e8565b905092915050565b600060208201905081810360008301526128be8184612446565b905092915050565b600060208201905081810360008301526128e081846124bb565b905092915050565b600060208201905081810360008301526129028184612519565b905092915050565b600060208201905081810360008301526129248184612586565b905092915050565b600060208201905081810360008301526129468184612629565b905092915050565b600060208201905081810360008301526129688184612695565b905092915050565b6000602082019050818103600083015261298a818461278a565b905092915050565b600060208201905081810360008301526129ac81846127e1565b905092915050565b60006020820190506129c9600083018461285c565b92915050565b6000604051905081810181811067ffffffffffffffff821117156129f257600080fd5b8060405250919050565b600067ffffffffffffffff821115612a1357600080fd5b602082029050602081019050919050565b600067ffffffffffffffff821115612a3b57600080fd5b601f19601f8301169050602081019050919050565b600067ffffffffffffffff821115612a6757600080fd5b601f19601f8301169050602081019050919050565b6000602082019050919050565b6000602082019050919050565b6000602082019050919050565b6000602082019050919050565b6000602082019050919050565b600081519050919050565b600081519050919050565b600081519050919050565b600081519050919050565b600081519050919050565b600081519050919050565b600081519050919050565b6000602082019050919050565b6000602082019050919050565b6000602082019050919050565b6000602082019050919050565b6000602082019050919050565b600082825260208201905092915050565b600082825260208201905092915050565b600082825260208201905092915050565b600082825260208201905092915050565b600082825260208201905092915050565b600082825260208201905092915050565b600082825260208201905092915050565b600081905092915050565b6000612bd882612bfd565b9050919050565b6000612bea82612bfd565b9050919050565b60008115159050919050565b600073ffffffffffffffffffffffffffffffffffffffff82169050919050565b6000819050919050565b82818337600083830152505050565b60005b83811015612c54578082015181840152602081019050612c39565b83811115612c63576000848401525b50505050565b6000601f19601f8301169050919050565b612c8381612bcd565b8114612c8e57600080fd5b50565b612c9a81612bf1565b8114612ca557600080fd5b50565b612cb181612c1d565b8114612cbc57600080fd5b5056fea265627a7a7230582056423e582f835787a390fc5c64338a34880e238cc85ecb6b2c29b48a67c6c51d6c6578706572696d656e74616cf50037",
  "source": "pragma solidity >=0.4.22 <0.6.0;\npragma experimental ABIEncoderV2;\n\ncontract Chainclub {\n    \n    struct Member {\n        address payable wallet;\n        string name;\n        bool paidLastMonth;\n        bool isSellingMembership;\n    }\n    \n    struct BooleanPoll {    \n        uint pollIndex;\n        string subject;     // Ex: Vamos investir em algo para o clube?\n    }\n    \n    struct OptionsPoll {    \n        uint pollIndex; \n        string subject;     // Ex: No que vamos investir?\n        string[] options;   // \"Piscina de ondas\", \"Pista de corrida\", \"Torre de bung jump\"\n    }\n    \n    struct QuantityPoll {\n        uint pollIndex;\n        string subject;     // Ex: Quantos reais gastaremos no nosso novo investimento?\n    }\n    \n    struct BooleanVote {\n        address owner;\n        bool yesOrNo;\n    }\n    \n    struct OptionVote {\n        address owner;\n        uint optionIndex;\n    }\n\n    struct QuantityVote {\n        address owner;\n        uint quantity;      \n    }\n    \n    modifier didNotVoteOnBooleanPoll(address memberAddress, uint pollIndex) {\n        require(!alreadyVotedOnBooleanPoll(memberAddress, pollIndex));_;\n    }\n    \n    modifier didNotVoteOnQuantityPoll(address memberAddress, uint pollIndex) {\n        require(!alreadyVotedOnQuantityPoll(memberAddress, pollIndex));_;\n    }\n    \n    modifier didNotVoteOnOptionsPoll(address memberAddress, uint pollIndex) {\n        require(!alreadyVotedOnOptionsPoll(memberAddress, pollIndex));_;\n    }\n    \n    modifier isNotEmpty(string memory pollSubject) { \n        require(!stringsAreEqual(pollSubject, \"\")); _; \n    }\n    \n    // Enums\n    uint16 constant MAX_MEMBERS = 1000;\n    uint16 constant PRICE = 10;\n    \n    address payable contractOwner;\n    \n    Member[] members; // guarda todos membros \n    QuantityPoll[] quantityPolls;   // guarda todas enquetes de quantidade\n    OptionsPoll[] optionsPolls;     // guarda todas enquetes de opes\n    BooleanPoll[] booleanPolls;     // guarda todas enquetes de sim / nao\n    mapping (uint => QuantityVote[]) quantityPollsVotes;    // d o ndice da enquete e recebe um array de votos\n    mapping (uint => OptionVote[]) optionsPollsVotes;       // d o ndice da enquete e recebe um array de votos\n    mapping (uint => BooleanVote[]) booleanPollsVotes;      // d o ndice da enquete e recebe um array de votos\n\n    constructor(string memory yourFullName) public {\n        contractOwner = msg.sender;\n        members.push(\n            Member(\n                msg.sender, yourFullName, true, false\n            )\n        );\n    }\n    \n    function startBooleanPoll (string memory pollSubject) public isNotEmpty(pollSubject) {\n        booleanPolls.push(\n            BooleanPoll(\n                booleanPolls.length, pollSubject\n            )\n        );\n    }\n    \n    function startQuantityPoll (string memory pollSubject) public isNotEmpty(pollSubject) {\n        quantityPolls.push(\n            QuantityPoll(\n                quantityPolls.length, pollSubject\n            )\n        );\n    }\n    \n    function startOptionsPoll (string memory pollSubject, string[] memory options) public isNotEmpty(pollSubject) {\n        optionsPolls.push(\n            OptionsPoll(\n                optionsPolls.length, pollSubject, options\n            )\n        );\n    }\n    \n    function voteOnBooleanPool(uint pollIndex, bool boolean) public didNotVoteOnBooleanPoll(msg.sender, pollIndex) {\n        booleanPollsVotes[pollIndex].push(\n            BooleanVote(\n                msg.sender, boolean\n            )\n        );\n    }\n    \n    function voteOnQuantityPool(uint pollIndex, uint quantity) public didNotVoteOnQuantityPoll(msg.sender, pollIndex) {\n        quantityPollsVotes[pollIndex].push(\n            QuantityVote(\n                msg.sender, quantity\n            )\n        );\n    }\n    \n    function voteOnOptionPool(uint pollIndex, uint option) public didNotVoteOnOptionsPoll(msg.sender, pollIndex) {\n        optionsPollsVotes[pollIndex].push(\n            OptionVote(\n                msg.sender, option\n            )\n        );\n    }\n    \n    function buyMembership(string memory buyerName) payable public {\n        \n        // Dinheiro vai pro fundador\n        if (members.length < MAX_MEMBERS) {\n            contractOwner.transfer(PRICE);\n        }\n        \n        // Procura membro que esteja vendendo\n        else { \n            for (uint i = 0; i < members.length; i++) {\n                if (members[i].isSellingMembership) {\n                    members[i] = Member(\n                        msg.sender, buyerName, true, false\n                    );\n                    \n                    // Dinheiro vai pro membro\n                    members[i].wallet.transfer(PRICE);\n                }\n            }\n        }\n    }\n    \n    /// Leaving the chainclub\n    function sellMembership () public {\n        for (uint i = 0; i < members.length; i++) {\n            if (members[i].wallet == msg.sender) {\n                members[i].isSellingMembership = true;\n            }\n        }\n        \n    }\n    \n    //////////////// SIMPLE GETTERS ////////////////\n    \n    function getBooleanPoll (uint pollIndex) public view returns (BooleanPoll memory) {\n        return booleanPolls[pollIndex];\n    }\n    \n    function getBooleanPollSubject (uint pollIndex) public view returns (string memory) {\n        return booleanPolls[pollIndex].subject;\n    }\n    \n    function getQuantityPoll (uint pollIndex) public view returns (QuantityPoll memory) {\n        return quantityPolls[pollIndex];\n    }\n    \n    function getQuantityPollSubject (uint pollIndex) public view returns (string memory) {\n        return quantityPolls[pollIndex].subject;\n    }\n    \n    function getOptionsPoll (uint pollIndex) public view returns (OptionsPoll memory) {\n        return optionsPolls[pollIndex];\n    }\n    \n    function getOptionsPollSubject (uint pollIndex) public view returns (string memory) {\n        return optionsPolls[pollIndex].subject;\n    }\n    \n    function getBooleanPollVotes (uint pollIndex) public view returns (BooleanVote[] memory) {\n        return booleanPollsVotes[pollIndex];\n    }\n    \n    function getBooleanPollVotesCount (uint pollIndex) public view returns (uint) {\n        return booleanPollsVotes[pollIndex].length;\n    }\n    \n    function getQuantityPollVotes (uint pollIndex) public view returns (QuantityVote[] memory) {\n        return quantityPollsVotes[pollIndex];\n    }\n    \n    function getQuantityPollVotesCount (uint pollIndex) public view returns (uint) {\n        return quantityPollsVotes[pollIndex].length;\n    }\n    \n    function getOptionsPollVotes (uint pollIndex) public view returns (OptionVote[] memory) {\n        return optionsPollsVotes[pollIndex];\n    }\n    \n    function getOptionsPollVotesCount (uint pollIndex) public view returns (uint) {\n        return optionsPollsVotes[pollIndex].length;\n    }\n    \n    function getMember (uint memberIndex) public view returns (Member memory) {\n        return members[memberIndex];\n    }\n    \n    function getMember (address memberAddress) public view returns (Member memory) {\n        for (uint i = 0; i < members.length; i++) {\n            if (members[i].wallet == memberAddress) {\n                return members[i];\n            }\n        }\n    }\n    \n    function getMembers () public view returns (Member[] memory) {\n        return members;\n    }\n    \n    //////////////// PRIVATE FUNCTIONS ////////////////\n    \n    function stringsAreEqual (string memory a, string memory b) private pure returns (bool) {\n        return (keccak256(abi.encodePacked((a))) == keccak256(abi.encodePacked((b))) );\n    }\n    \n    function alreadyVotedOnBooleanPoll (address memberAddress, uint pollIndex) private view returns (bool) {\n        for (uint i = 0; i < booleanPollsVotes[pollIndex].length; i++) {\n            if (memberAddress == booleanPollsVotes[pollIndex][i].owner) {\n                return true;\n            }\n        }\n        return false;\n    }\n    \n    function alreadyVotedOnQuantityPoll (address memberAddress, uint pollIndex) private view returns (bool) {\n        for (uint i = 0; i < quantityPollsVotes[pollIndex].length; i++) {\n            if (memberAddress == quantityPollsVotes[pollIndex][i].owner) {\n                return true;\n            }\n        }\n        return false;\n    }\n    \n    function alreadyVotedOnOptionsPoll (address memberAddress, uint pollIndex) private view returns (bool) {\n        for (uint i = 0; i < optionsPollsVotes[pollIndex].length; i++) {\n            if (memberAddress == optionsPollsVotes[pollIndex][i].owner) {\n                return true;\n            }\n        }\n        return false;\n    }\n}",
  "sourcePath": "/home/hugo/Documents/inf1305-dap/contracts/Chainclub.sol",
  "compiler": {
    "name": "solc",
    "version": "0.5.8+commit.23d335f2.Emscripten.clang"
  },
  "schemaVersion": "3.0.16",
  "updatedAt": "2019-12-06T03:38:48.121Z",
  "devdoc": {
    "methods": {}
  },
  "userdoc": {
    "methods": {
      "getBooleanPoll(uint256)": {
        "notice": "///////////// SIMPLE GETTERS ////////////////"
      },
      "sellMembership()": {
        "notice": "Leaving the chainclub"
      }
    }
  }
}