{
  "contractName": "Chainclub",
  "abi": [
    {
      "inputs": [
        {
          "name": "yourFullName",
          "type": "string"
        }
      ],
      "payable": true,
      "stateMutability": "payable",
      "type": "constructor"
    },
    {
      "constant": false,
      "inputs": [
        {
          "name": "pollSubject",
          "type": "string"
        }
      ],
      "name": "startBooleanPoll",
      "outputs": [],
      "payable": false,
      "stateMutability": "nonpayable",
      "type": "function"
    },
    {
      "constant": false,
      "inputs": [
        {
          "name": "pollSubject",
          "type": "string"
        },
        {
          "name": "bottomLimit",
          "type": "uint256"
        },
        {
          "name": "topLimit",
          "type": "uint256"
        }
      ],
      "name": "startQuantityPoll",
      "outputs": [],
      "payable": false,
      "stateMutability": "nonpayable",
      "type": "function"
    },
    {
      "constant": false,
      "inputs": [
        {
          "name": "pollSubject",
          "type": "string"
        },
        {
          "name": "options",
          "type": "string"
        }
      ],
      "name": "startOptionsPoll",
      "outputs": [],
      "payable": false,
      "stateMutability": "nonpayable",
      "type": "function"
    },
    {
      "constant": false,
      "inputs": [
        {
          "name": "pollIndex",
          "type": "uint256"
        },
        {
          "name": "boolean",
          "type": "bool"
        }
      ],
      "name": "voteOnBooleanPool",
      "outputs": [],
      "payable": false,
      "stateMutability": "nonpayable",
      "type": "function"
    },
    {
      "constant": false,
      "inputs": [
        {
          "name": "pollIndex",
          "type": "uint256"
        },
        {
          "name": "quantity",
          "type": "uint256"
        }
      ],
      "name": "voteOnQuantityPool",
      "outputs": [],
      "payable": false,
      "stateMutability": "nonpayable",
      "type": "function"
    },
    {
      "constant": false,
      "inputs": [
        {
          "name": "pollIndex",
          "type": "uint256"
        },
        {
          "name": "option",
          "type": "uint256"
        }
      ],
      "name": "voteOnOptionPool",
      "outputs": [],
      "payable": false,
      "stateMutability": "nonpayable",
      "type": "function"
    },
    {
      "constant": false,
      "inputs": [
        {
          "name": "buyerName",
          "type": "string"
        }
      ],
      "name": "buyMembership",
      "outputs": [],
      "payable": true,
      "stateMutability": "payable",
      "type": "function"
    },
    {
      "constant": false,
      "inputs": [],
      "name": "sellMembership",
      "outputs": [],
      "payable": false,
      "stateMutability": "nonpayable",
      "type": "function"
    },
    {
      "constant": false,
      "inputs": [
        {
          "name": "newVisitors",
          "type": "address[3]"
        }
      ],
      "name": "enterInClub",
      "outputs": [],
      "payable": false,
      "stateMutability": "nonpayable",
      "type": "function"
    },
    {
      "constant": false,
      "inputs": [],
      "name": "leaveTheClub",
      "outputs": [],
      "payable": false,
      "stateMutability": "nonpayable",
      "type": "function"
    },
    {
      "constant": true,
      "inputs": [
        {
          "name": "pollIndex",
          "type": "uint256"
        }
      ],
      "name": "getQuantityPollBottomLimit",
      "outputs": [
        {
          "name": "",
          "type": "uint256"
        }
      ],
      "payable": false,
      "stateMutability": "view",
      "type": "function"
    },
    {
      "constant": true,
      "inputs": [
        {
          "name": "pollIndex",
          "type": "uint256"
        }
      ],
      "name": "getQuantityPollTopLimit",
      "outputs": [
        {
          "name": "",
          "type": "uint256"
        }
      ],
      "payable": false,
      "stateMutability": "view",
      "type": "function"
    },
    {
      "constant": true,
      "inputs": [
        {
          "name": "pollIndex",
          "type": "uint256"
        }
      ],
      "name": "getBooleanPoll",
      "outputs": [
        {
          "components": [
            {
              "name": "pollIndex",
              "type": "uint256"
            },
            {
              "name": "subject",
              "type": "string"
            }
          ],
          "name": "",
          "type": "tuple"
        }
      ],
      "payable": false,
      "stateMutability": "view",
      "type": "function"
    },
    {
      "constant": true,
      "inputs": [
        {
          "name": "pollIndex",
          "type": "uint256"
        }
      ],
      "name": "getQuantityPoll",
      "outputs": [
        {
          "components": [
            {
              "name": "pollIndex",
              "type": "uint256"
            },
            {
              "name": "subject",
              "type": "string"
            },
            {
              "name": "bottomLimit",
              "type": "uint256"
            },
            {
              "name": "topLimit",
              "type": "uint256"
            }
          ],
          "name": "",
          "type": "tuple"
        }
      ],
      "payable": false,
      "stateMutability": "view",
      "type": "function"
    },
    {
      "constant": true,
      "inputs": [
        {
          "name": "pollIndex",
          "type": "uint256"
        }
      ],
      "name": "getOptionsPoll",
      "outputs": [
        {
          "components": [
            {
              "name": "pollIndex",
              "type": "uint256"
            },
            {
              "name": "subject",
              "type": "string"
            },
            {
              "name": "options",
              "type": "string"
            }
          ],
          "name": "",
          "type": "tuple"
        }
      ],
      "payable": false,
      "stateMutability": "view",
      "type": "function"
    },
    {
      "constant": true,
      "inputs": [
        {
          "name": "pollIndex",
          "type": "uint256"
        }
      ],
      "name": "getOptionsPollReturnOptions",
      "outputs": [
        {
          "name": "",
          "type": "string"
        }
      ],
      "payable": false,
      "stateMutability": "view",
      "type": "function"
    },
    {
      "constant": true,
      "inputs": [
        {
          "name": "pollIndex",
          "type": "uint256"
        }
      ],
      "name": "getBooleanPollVotes",
      "outputs": [
        {
          "components": [
            {
              "name": "owner",
              "type": "address"
            },
            {
              "name": "yesOrNo",
              "type": "bool"
            }
          ],
          "name": "",
          "type": "tuple[]"
        }
      ],
      "payable": false,
      "stateMutability": "view",
      "type": "function"
    },
    {
      "constant": true,
      "inputs": [
        {
          "name": "pollIndex",
          "type": "uint256"
        }
      ],
      "name": "getQuantityPollVotes",
      "outputs": [
        {
          "components": [
            {
              "name": "owner",
              "type": "address"
            },
            {
              "name": "quantity",
              "type": "uint256"
            }
          ],
          "name": "",
          "type": "tuple[]"
        }
      ],
      "payable": false,
      "stateMutability": "view",
      "type": "function"
    },
    {
      "constant": true,
      "inputs": [
        {
          "name": "pollIndex",
          "type": "uint256"
        }
      ],
      "name": "getOptionsPollVotes",
      "outputs": [
        {
          "components": [
            {
              "name": "owner",
              "type": "address"
            },
            {
              "name": "optionIndex",
              "type": "uint256"
            }
          ],
          "name": "",
          "type": "tuple[]"
        }
      ],
      "payable": false,
      "stateMutability": "view",
      "type": "function"
    },
    {
      "constant": true,
      "inputs": [
        {
          "name": "memberAddress",
          "type": "address"
        }
      ],
      "name": "getMember",
      "outputs": [
        {
          "components": [
            {
              "name": "wallet",
              "type": "address"
            },
            {
              "name": "name",
              "type": "string"
            },
            {
              "name": "paidPendencies",
              "type": "bool"
            },
            {
              "name": "isSellingMembership",
              "type": "bool"
            }
          ],
          "name": "",
          "type": "tuple"
        }
      ],
      "payable": false,
      "stateMutability": "view",
      "type": "function"
    },
    {
      "constant": true,
      "inputs": [
        {
          "name": "memberIndex",
          "type": "uint256"
        }
      ],
      "name": "getMember",
      "outputs": [
        {
          "components": [
            {
              "name": "wallet",
              "type": "address"
            },
            {
              "name": "name",
              "type": "string"
            },
            {
              "name": "paidPendencies",
              "type": "bool"
            },
            {
              "name": "isSellingMembership",
              "type": "bool"
            }
          ],
          "name": "",
          "type": "tuple"
        }
      ],
      "payable": false,
      "stateMutability": "view",
      "type": "function"
    },
    {
      "constant": true,
      "inputs": [],
      "name": "getMembers",
      "outputs": [
        {
          "components": [
            {
              "name": "wallet",
              "type": "address"
            },
            {
              "name": "name",
              "type": "string"
            },
            {
              "name": "paidPendencies",
              "type": "bool"
            },
            {
              "name": "isSellingMembership",
              "type": "bool"
            }
          ],
          "name": "",
          "type": "tuple[]"
        }
      ],
      "payable": false,
      "stateMutability": "view",
      "type": "function"
    },
    {
      "constant": true,
      "inputs": [],
      "name": "getMembershipPrice",
      "outputs": [
        {
          "name": "",
          "type": "uint256"
        }
      ],
      "payable": false,
      "stateMutability": "pure",
      "type": "function"
    },
    {
      "constant": true,
      "inputs": [
        {
          "name": "pollIndex",
          "type": "uint256"
        }
      ],
      "name": "getBooleanPollSubject",
      "outputs": [
        {
          "name": "",
          "type": "string"
        }
      ],
      "payable": false,
      "stateMutability": "view",
      "type": "function"
    },
    {
      "constant": true,
      "inputs": [
        {
          "name": "pollIndex",
          "type": "uint256"
        }
      ],
      "name": "getQuantityPollSubject",
      "outputs": [
        {
          "name": "",
          "type": "string"
        }
      ],
      "payable": false,
      "stateMutability": "view",
      "type": "function"
    },
    {
      "constant": true,
      "inputs": [
        {
          "name": "pollIndex",
          "type": "uint256"
        }
      ],
      "name": "getOptionsPollSubject",
      "outputs": [
        {
          "name": "",
          "type": "string"
        }
      ],
      "payable": false,
      "stateMutability": "view",
      "type": "function"
    },
    {
      "constant": true,
      "inputs": [
        {
          "name": "pollIndex",
          "type": "uint256"
        }
      ],
      "name": "getBooleanPollVotesCount",
      "outputs": [
        {
          "name": "",
          "type": "uint256"
        }
      ],
      "payable": false,
      "stateMutability": "view",
      "type": "function"
    },
    {
      "constant": true,
      "inputs": [
        {
          "name": "pollIndex",
          "type": "uint256"
        }
      ],
      "name": "getQuantityPollVotesCount",
      "outputs": [
        {
          "name": "",
          "type": "uint256"
        }
      ],
      "payable": false,
      "stateMutability": "view",
      "type": "function"
    },
    {
      "constant": true,
      "inputs": [
        {
          "name": "pollIndex",
          "type": "uint256"
        }
      ],
      "name": "getOptionsPollVotesCount",
      "outputs": [
        {
          "name": "",
          "type": "uint256"
        }
      ],
      "payable": false,
      "stateMutability": "view",
      "type": "function"
    }
  ],
  "bytecode": "0x6080604052604051620034283803806200342883398101806040526200002991908101906200028e565b336000806101000a81548173ffffffffffffffffffffffffffffffffffffffff021916908373ffffffffffffffffffffffffffffffffffffffff160217905550600160405180608001604052803373ffffffffffffffffffffffffffffffffffffffff168152602001838152602001600115158152602001600015158152509080600181540180825580915050906001820390600052602060002090600302016000909192909190915060008201518160000160006101000a81548173ffffffffffffffffffffffffffffffffffffffff021916908373ffffffffffffffffffffffffffffffffffffffff16021790555060208201518160010190805190602001906200013892919062000183565b5060408201518160020160006101000a81548160ff02191690831515021790555060608201518160020160016101000a81548160ff0219169083151502179055505050505062000364565b828054600181600116156101000203166002900490600052602060002090601f016020900481019282601f10620001c657805160ff1916838001178555620001f7565b82800160010185558215620001f7579182015b82811115620001f6578251825591602001919060010190620001d9565b5b5090506200020691906200020a565b5090565b6200022f91905b808211156200022b57600081600090555060010162000211565b5090565b90565b600082601f8301126200024457600080fd5b81516200025b620002558262000301565b620002d3565b915080825260208301602083018583830111156200027857600080fd5b620002858382846200032e565b50505092915050565b600060208284031215620002a157600080fd5b600082015167ffffffffffffffff811115620002bc57600080fd5b620002ca8482850162000232565b91505092915050565b6000604051905081810181811067ffffffffffffffff82111715620002f757600080fd5b8060405250919050565b600067ffffffffffffffff8211156200031957600080fd5b601f19601f8301169050602081019050919050565b60005b838110156200034e57808201518184015260208101905062000331565b838111156200035e576000848401525b50505050565b6130b480620003746000396000f3fe6080604052600436106101c25760003560e01c806393671a95116100f7578063aeceff6b11610095578063dd4f33e611610064578063dd4f33e6146106c7578063e24bb956146106f0578063f267efae1461072d578063f2d6240714610756576101c2565b8063aeceff6b146105e7578063b14e4d1614610624578063ba53e71514610661578063ce5717f21461069e576101c2565b8063a486ef49116100d1578063a486ef491461052d578063ab3545e514610556578063ac95252714610593578063ad890567146105aa576101c2565b806393671a951461049c5780639eab5253146104d9578063a4177cc914610504576101c2565b806344966dc8116101645780636aefb5181161013e5780636aefb518146103e25780637645154c1461040b57806388385d2314610448578063911c810714610485576101c2565b806344966dc81461036057806348b989581461039d57806352ac34dd146103b9576101c2565b806327e6af07116101a057806327e6af071461026c57806329791e8e146102a95780632ada2596146102e65780633e0582c214610323576101c2565b80631278076a146101c75780631b65db3d146101f25780631bcd29f81461022f575b600080fd5b3480156101d357600080fd5b506101dc610793565b6040516101e99190612de2565b60405180910390f35b3480156101fe57600080fd5b506102196004803603610214919081019061271d565b61079f565b6040516102269190612de2565b60405180910390f35b34801561023b57600080fd5b506102566004803603610251919081019061271d565b6107bf565b6040516102639190612cf4565b60405180910390f35b34801561027857600080fd5b50610293600480360361028e919081019061271d565b610891565b6040516102a09190612de2565b60405180910390f35b3480156102b557600080fd5b506102d060048036036102cb919081019061271d565b6108b9565b6040516102dd9190612cb0565b60405180910390f35b3480156102f257600080fd5b5061030d600480360361030891908101906125b7565b610998565b60405161031a9190612d7c565b60405180910390f35b34801561032f57600080fd5b5061034a6004803603610345919081019061271d565b610b95565b6040516103579190612d9e565b60405180910390f35b34801561036c57600080fd5b506103876004803603610382919081019061271d565b610d18565b6040516103949190612d38565b60405180910390f35b6103b760048036036103b29190810190612609565b610dd8565b005b3480156103c557600080fd5b506103e060048036036103db9190810190612782565b6113a7565b005b3480156103ee57600080fd5b5061040960048036036104049190810190612746565b611472565b005b34801561041757600080fd5b50610432600480360361042d919081019061271d565b61154d565b60405161043f9190612de2565b60405180910390f35b34801561045457600080fd5b5061046f600480360361046a919081019061271d565b61156d565b60405161047c9190612d38565b60405180910390f35b34801561049157600080fd5b5061049a61162d565b005b3480156104a857600080fd5b506104c360048036036104be919081019061271d565b6116fb565b6040516104d09190612d38565b60405180910390f35b3480156104e557600080fd5b506104ee6117bb565b6040516104fb9190612cd2565b60405180910390f35b34801561051057600080fd5b5061052b600480360361052691908101906125e0565b611948565b005b34801561053957600080fd5b50610554600480360361054f919081019061264a565b611a92565b005b34801561056257600080fd5b5061057d6004803603610578919081019061271d565b611b2e565b60405161058a9190612d7c565b60405180910390f35b34801561059f57600080fd5b506105a8611c91565b005b3480156105b657600080fd5b506105d160048036036105cc919081019061271d565b611d95565b6040516105de9190612de2565b60405180910390f35b3480156105f357600080fd5b5061060e6004803603610609919081019061271d565b611dbd565b60405161061b9190612de2565b60405180910390f35b34801561063057600080fd5b5061064b6004803603610646919081019061271d565b611ddd565b6040516106589190612dc0565b60405180910390f35b34801561066d57600080fd5b506106886004803603610683919081019061271d565b611ed2565b6040516106959190612d38565b60405180910390f35b3480156106aa57600080fd5b506106c560048036036106c09190810190612609565b611f92565b005b3480156106d357600080fd5b506106ee60048036036106e991908101906126b6565b61200a565b005b3480156106fc57600080fd5b506107176004803603610712919081019061271d565b6120a4565b6040516107249190612d16565b60405180910390f35b34801561073957600080fd5b50610754600480360361074f9190810190612782565b612176565b005b34801561076257600080fd5b5061077d6004803603610778919081019061271d565b61223d565b60405161078a9190612d5a565b60405180910390f35b6000633b9aca00905090565b600060086000838152602001908152602001600020805490509050919050565b606060076000838152602001908152602001600020805480602002602001604051908101604052809291908181526020016000905b8282101561088657838290600052602060002090600202016040518060400160405290816000820160009054906101000a900473ffffffffffffffffffffffffffffffffffffffff1673ffffffffffffffffffffffffffffffffffffffff1673ffffffffffffffffffffffffffffffffffffffff168152602001600182015481525050815260200190600101906107f4565b505050509050919050565b6000600382815481106108a057fe5b9060005260206000209060040201600301549050919050565b606060086000838152602001908152602001600020805480602002602001604051908101604052809291908181526020016000905b8282101561098d578382906000526020600020016040518060400160405290816000820160009054906101000a900473ffffffffffffffffffffffffffffffffffffffff1673ffffffffffffffffffffffffffffffffffffffff1673ffffffffffffffffffffffffffffffffffffffff1681526020016000820160149054906101000a900460ff161515151581525050815260200190600101906108ee565b505050509050919050565b6109a061231e565b60008090505b600180549050811015610b8e578273ffffffffffffffffffffffffffffffffffffffff16600182815481106109d757fe5b906000526020600020906003020160000160009054906101000a900473ffffffffffffffffffffffffffffffffffffffff1673ffffffffffffffffffffffffffffffffffffffff161415610b815760018181548110610a3257fe5b90600052602060002090600302016040518060800160405290816000820160009054906101000a900473ffffffffffffffffffffffffffffffffffffffff1673ffffffffffffffffffffffffffffffffffffffff1673ffffffffffffffffffffffffffffffffffffffff168152602001600182018054600181600116156101000203166002900480601f016020809104026020016040519081016040528092919081815260200182805460018160011615610100020316600290048015610b3a5780601f10610b0f57610100808354040283529160200191610b3a565b820191906000526020600020905b815481529060010190602001808311610b1d57829003601f168201915b505050505081526020016002820160009054906101000a900460ff161515151581526020016002820160019054906101000a900460ff161515151581525050915050610b90565b80806001019150506109a6565b505b919050565b610b9d612360565b60048281548110610baa57fe5b906000526020600020906003020160405180606001604052908160008201548152602001600182018054600181600116156101000203166002900480601f016020809104026020016040519081016040528092919081815260200182805460018160011615610100020316600290048015610c665780601f10610c3b57610100808354040283529160200191610c66565b820191906000526020600020905b815481529060010190602001808311610c4957829003601f168201915b50505050508152602001600282018054600181600116156101000203166002900480601f016020809104026020016040519081016040528092919081815260200182805460018160011615610100020316600290048015610d085780601f10610cdd57610100808354040283529160200191610d08565b820191906000526020600020905b815481529060010190602001808311610ceb57829003601f168201915b5050505050815250509050919050565b606060048281548110610d2757fe5b90600052602060002090600302016001018054600181600116156101000203166002900480601f016020809104026020016040519081016040528092919081815260200182805460018160011615610100020316600290048015610dcc5780601f10610da157610100808354040283529160200191610dcc565b820191906000526020600020905b815481529060010190602001808311610daf57829003601f168201915b50505050509050919050565b600080905060008090505b600180549050811015610e335760018181548110610dfd57fe5b906000526020600020906003020160020160019054906101000a900460ff1615610e2657600191505b8080600101915050610de3565b50346103e861ffff166001805490501015610fc6576000809054906101000a900473ffffffffffffffffffffffffffffffffffffffff1673ffffffffffffffffffffffffffffffffffffffff166108fc349081150290604051600060405180830381858888f19350505050158015610eaf573d6000803e3d6000fd5b50600160405180608001604052803373ffffffffffffffffffffffffffffffffffffffff168152602001858152602001600115158152602001600015158152509080600181540180825580915050906001820390600052602060002090600302016000909192909190915060008201518160000160006101000a81548173ffffffffffffffffffffffffffffffffffffffff021916908373ffffffffffffffffffffffffffffffffffffffff1602179055506020820151816001019080519060200190610f7d929190612381565b5060408201518160020160006101000a81548160ff02191690831515021790555060608201518160020160016101000a81548160ff0219169083151502179055505050506113a2565b60008090505b6001805490508110156113a05760018181548110610fe657fe5b906000526020600020906003020160020160019054906101000a900460ff16801561107b57503373ffffffffffffffffffffffffffffffffffffffff166001828154811061103057fe5b906000526020600020906003020160000160009054906101000a900473ffffffffffffffffffffffffffffffffffffffff1673ffffffffffffffffffffffffffffffffffffffff1614155b156113935760405180608001604052803373ffffffffffffffffffffffffffffffffffffffff16815260200185815260200160011515815260200160001515815250600182815481106110ca57fe5b906000526020600020906003020160008201518160000160006101000a81548173ffffffffffffffffffffffffffffffffffffffff021916908373ffffffffffffffffffffffffffffffffffffffff160217905550602082015181600101908051906020019061113b929190612381565b5060408201518160020160006101000a81548160ff02191690831515021790555060608201518160020160016101000a81548160ff0219169083151502179055509050506001818154811061118c57fe5b906000526020600020906003020160000160009054906101000a900473ffffffffffffffffffffffffffffffffffffffff1673ffffffffffffffffffffffffffffffffffffffff166108fc349081150290604051600060405180830381858888f19350505050158015611203573d6000803e3d6000fd5b506001818154811061121157fe5b9060005260206000209060030201600080820160006101000a81549073ffffffffffffffffffffffffffffffffffffffff02191690556001820160006112579190612401565b6002820160006101000a81549060ff02191690556002820160016101000a81549060ff02191690555050600160405180608001604052803373ffffffffffffffffffffffffffffffffffffffff168152602001868152602001600115158152602001600015158152509080600181540180825580915050906001820390600052602060002090600302016000909192909190915060008201518160000160006101000a81548173ffffffffffffffffffffffffffffffffffffffff021916908373ffffffffffffffffffffffffffffffffffffffff160217905550602082015181600101908051906020019061134e929190612381565b5060408201518160020160006101000a81548160ff02191690831515021790555060608201518160020160016101000a81548160ff0219169083151502179055505050505b8080600101915050610fcc565b505b505050565b33828233856006600088815260200190815260200160002060405180604001604052803373ffffffffffffffffffffffffffffffffffffffff168152602001888152509080600181540180825580915050906001820390600052602060002090600202016000909192909190915060008201518160000160006101000a81548173ffffffffffffffffffffffffffffffffffffffff021916908373ffffffffffffffffffffffffffffffffffffffff1602179055506020820151816001015550505050505050505050565b3333836008600086815260200190815260200160002060405180604001604052803373ffffffffffffffffffffffffffffffffffffffff16815260200186151581525090806001815401808255809150509060018203906000526020600020016000909192909190915060008201518160000160006101000a81548173ffffffffffffffffffffffffffffffffffffffff021916908373ffffffffffffffffffffffffffffffffffffffff16021790555060208201518160000160146101000a81548160ff0219169083151502179055505050505050505050565b600060066000838152602001908152602001600020805490509050919050565b60606004828154811061157c57fe5b90600052602060002090600302016002018054600181600116156101000203166002900480601f0160208091040260200160405190810160405280929190818152602001828054600181600116156101000203166002900480156116215780601f106115f657610100808354040283529160200191611621565b820191906000526020600020905b81548152906001019060200180831161160457829003601f168201915b50505050509050919050565b3360008090505b6001805490508110156116f7573373ffffffffffffffffffffffffffffffffffffffff166001828154811061166557fe5b906000526020600020906003020160000160009054906101000a900473ffffffffffffffffffffffffffffffffffffffff1673ffffffffffffffffffffffffffffffffffffffff1614156116ea5760018082815481106116c157fe5b906000526020600020906003020160020160016101000a81548160ff0219169083151502179055505b8080600101915050611634565b5050565b60606003828154811061170a57fe5b90600052602060002090600402016001018054600181600116156101000203166002900480601f0160208091040260200160405190810160405280929190818152602001828054600181600116156101000203166002900480156117af5780601f10611784576101008083540402835291602001916117af565b820191906000526020600020905b81548152906001019060200180831161179257829003601f168201915b50505050509050919050565b60606001805480602002602001604051908101604052809291908181526020016000905b8282101561193f57838290600052602060002090600302016040518060800160405290816000820160009054906101000a900473ffffffffffffffffffffffffffffffffffffffff1673ffffffffffffffffffffffffffffffffffffffff1673ffffffffffffffffffffffffffffffffffffffff168152602001600182018054600181600116156101000203166002900480601f0160208091040260200160405190810160405280929190818152602001828054600181600116156101000203166002900480156118f15780601f106118c6576101008083540402835291602001916118f1565b820191906000526020600020905b8154815290600101906020018083116118d457829003601f168201915b505050505081526020016002820160009054906101000a900460ff161515151581526020016002820160019054906101000a900460ff161515151581525050815260200190600101906117df565b50505050905090565b333361195261231e565b61195b33610998565b9050806040015115611a8c5760008090505b60038160ff161015611a8a576040518060400160405280868360ff166003811061199357fe5b602002015173ffffffffffffffffffffffffffffffffffffffff1681526020013373ffffffffffffffffffffffffffffffffffffffff1681525060028080549050815481106119de57fe5b906000526020600020906002020160008201518160000160006101000a81548173ffffffffffffffffffffffffffffffffffffffff021916908373ffffffffffffffffffffffffffffffffffffffff16021790555060208201518160010160006101000a81548173ffffffffffffffffffffffffffffffffffffffff021916908373ffffffffffffffffffffffffffffffffffffffff160217905550905050808060010191505061196d565b505b50505050565b33826004604051806060016040528060048054905081526020018681526020018581525090806001815401808255809150509060018203906000526020600020906003020160009091929091909150600082015181600001556020820151816001019080519060200190611b07929190612381565b506040820151816002019080519060200190611b24929190612381565b5050505050505050565b611b3661231e565b60018281548110611b4357fe5b90600052602060002090600302016040518060800160405290816000820160009054906101000a900473ffffffffffffffffffffffffffffffffffffffff1673ffffffffffffffffffffffffffffffffffffffff1673ffffffffffffffffffffffffffffffffffffffff168152602001600182018054600181600116156101000203166002900480601f016020809104026020016040519081016040528092919081815260200182805460018160011615610100020316600290048015611c4b5780601f10611c2057610100808354040283529160200191611c4b565b820191906000526020600020905b815481529060010190602001808311611c2e57829003601f168201915b505050505081526020016002820160009054906101000a900460ff161515151581526020016002820160019054906101000a900460ff1615151515815250509050919050565b3360008090505b600280549050811015611d91573373ffffffffffffffffffffffffffffffffffffffff1660028281548110611cc957fe5b906000526020600020906002020160010160009054906101000a900473ffffffffffffffffffffffffffffffffffffffff1673ffffffffffffffffffffffffffffffffffffffff161415611d845760028181548110611d2457fe5b9060005260206000209060020201600080820160006101000a81549073ffffffffffffffffffffffffffffffffffffffff02191690556001820160006101000a81549073ffffffffffffffffffffffffffffffffffffffff021916905550505b8080600101915050611c98565b5050565b600060038281548110611da457fe5b9060005260206000209060040201600201549050919050565b600060076000838152602001908152602001600020805490509050919050565b611de5612449565b60038281548110611df257fe5b906000526020600020906004020160405180608001604052908160008201548152602001600182018054600181600116156101000203166002900480601f016020809104026020016040519081016040528092919081815260200182805460018160011615610100020316600290048015611eae5780601f10611e8357610100808354040283529160200191611eae565b820191906000526020600020905b815481529060010190602001808311611e9157829003601f168201915b50505050508152602001600282015481526020016003820154815250509050919050565b606060058281548110611ee157fe5b90600052602060002090600202016001018054600181600116156101000203166002900480601f016020809104026020016040519081016040528092919081815260200182805460018160011615610100020316600290048015611f865780601f10611f5b57610100808354040283529160200191611f86565b820191906000526020600020905b815481529060010190602001808311611f6957829003601f168201915b50505050509050919050565b33816005604051806040016040528060058054905081526020018581525090806001815401808255809150509060018203906000526020600020906002020160009091929091909150600082015181600001556020820151816001019080519060200190612001929190612381565b50505050505050565b33836003604051806080016040528060038054905081526020018781526020018681526020018581525090806001815401808255809150509060018203906000526020600020906004020160009091929091909150600082015181600001556020820151816001019080519060200190612085929190612381565b5060408201518160020155606082015181600301555050505050505050565b606060066000838152602001908152602001600020805480602002602001604051908101604052809291908181526020016000905b8282101561216b57838290600052602060002090600202016040518060400160405290816000820160009054906101000a900473ffffffffffffffffffffffffffffffffffffffff1673ffffffffffffffffffffffffffffffffffffffff1673ffffffffffffffffffffffffffffffffffffffff168152602001600182015481525050815260200190600101906120d9565b505050509050919050565b3333836007600086815260200190815260200160002060405180604001604052803373ffffffffffffffffffffffffffffffffffffffff168152602001868152509080600181540180825580915050906001820390600052602060002090600202016000909192909190915060008201518160000160006101000a81548173ffffffffffffffffffffffffffffffffffffffff021916908373ffffffffffffffffffffffffffffffffffffffff160217905550602082015181600101555050505050505050565b612245612471565b6005828154811061225257fe5b906000526020600020906002020160405180604001604052908160008201548152602001600182018054600181600116156101000203166002900480601f01602080910402602001604051908101604052809291908181526020018280546001816001161561010002031660029004801561230e5780601f106122e35761010080835404028352916020019161230e565b820191906000526020600020905b8154815290600101906020018083116122f157829003601f168201915b5050505050815250509050919050565b6040518060800160405280600073ffffffffffffffffffffffffffffffffffffffff168152602001606081526020016000151581526020016000151581525090565b60405180606001604052806000815260200160608152602001606081525090565b828054600181600116156101000203166002900490600052602060002090601f016020900481019282601f106123c257805160ff19168380011785556123f0565b828001600101855582156123f0579182015b828111156123ef5782518255916020019190600101906123d4565b5b5090506123fd919061248b565b5090565b50805460018160011615610100020316600290046000825580601f106124275750612446565b601f016020900490600052602060002090810190612445919061248b565b5b50565b6040518060800160405280600081526020016060815260200160008152602001600081525090565b604051806040016040528060008152602001606081525090565b6124ad91905b808211156124a9576000816000905550600101612491565b5090565b90565b6000813590506124bf81613035565b92915050565b600082601f8301126124d657600080fd5b60036124e96124e482612e2a565b612dfd565b915081838560208402820111156124ff57600080fd5b60005b8381101561252f578161251588826124b0565b845260208401935060208301925050600181019050612502565b5050505092915050565b6000813590506125488161304c565b92915050565b600082601f83011261255f57600080fd5b813561257261256d82612e4c565b612dfd565b9150808252602083016020830185838301111561258e57600080fd5b612599838284612fe2565b50505092915050565b6000813590506125b181613063565b92915050565b6000602082840312156125c957600080fd5b60006125d7848285016124b0565b91505092915050565b6000606082840312156125f257600080fd5b6000612600848285016124c5565b91505092915050565b60006020828403121561261b57600080fd5b600082013567ffffffffffffffff81111561263557600080fd5b6126418482850161254e565b91505092915050565b6000806040838503121561265d57600080fd5b600083013567ffffffffffffffff81111561267757600080fd5b6126838582860161254e565b925050602083013567ffffffffffffffff8111156126a057600080fd5b6126ac8582860161254e565b9150509250929050565b6000806000606084860312156126cb57600080fd5b600084013567ffffffffffffffff8111156126e557600080fd5b6126f18682870161254e565b9350506020612702868287016125a2565b9250506040612713868287016125a2565b9150509250925092565b60006020828403121561272f57600080fd5b600061273d848285016125a2565b91505092915050565b6000806040838503121561275957600080fd5b6000612767858286016125a2565b925050602061277885828601612539565b9150509250929050565b6000806040838503121561279557600080fd5b60006127a3858286016125a2565b92505060206127b4858286016125a2565b9150509250929050565b60006127ca8383612a85565b60408301905092915050565b60006127e28383612b17565b905092915050565b60006127f68383612b7a565b60408301905092915050565b600061280e8383612c63565b60408301905092915050565b61282381612f9a565b82525050565b61283281612f88565b82525050565b600061284382612eac565b61284d8185612f22565b935061285883612e78565b8060005b8381101561288957815161287088826127be565b975061287b83612eee565b92505060018101905061285c565b5085935050505092915050565b60006128a182612eb7565b6128ab8185612f33565b9350836020820285016128bd85612e85565b8060005b858110156128f957848403895281516128da85826127d6565b94506128e583612efb565b925060208a019950506001810190506128c1565b50829750879550505050505092915050565b600061291682612ec2565b6129208185612f44565b935061292b83612e92565b8060005b8381101561295c57815161294388826127ea565b975061294e83612f08565b92505060018101905061292f565b5085935050505092915050565b600061297482612ecd565b61297e8185612f55565b935061298983612e9f565b8060005b838110156129ba5781516129a18882612802565b97506129ac83612f15565b92505060018101905061298d565b5085935050505092915050565b6129d081612fac565b82525050565b60006129e182612ee3565b6129eb8185612f77565b93506129fb818560208601612ff1565b612a0481613024565b840191505092915050565b6000612a1a82612ed8565b612a248185612f66565b9350612a34818560208601612ff1565b612a3d81613024565b840191505092915050565b6000604083016000830151612a606000860182612c92565b5060208301518482036020860152612a788282612a0f565b9150508091505092915050565b604082016000820151612a9b6000850182612829565b506020820151612aae60208501826129c7565b50505050565b6000608083016000830151612acc600086018261281a565b5060208301518482036020860152612ae48282612a0f565b9150506040830151612af960408601826129c7565b506060830151612b0c60608601826129c7565b508091505092915050565b6000608083016000830151612b2f600086018261281a565b5060208301518482036020860152612b478282612a0f565b9150506040830151612b5c60408601826129c7565b506060830151612b6f60608601826129c7565b508091505092915050565b604082016000820151612b906000850182612829565b506020820151612ba36020850182612c92565b50505050565b6000606083016000830151612bc16000860182612c92565b5060208301518482036020860152612bd98282612a0f565b91505060408301518482036040860152612bf38282612a0f565b9150508091505092915050565b6000608083016000830151612c186000860182612c92565b5060208301518482036020860152612c308282612a0f565b9150506040830151612c456040860182612c92565b506060830151612c586060860182612c92565b508091505092915050565b604082016000820151612c796000850182612829565b506020820151612c8c6020850182612c92565b50505050565b612c9b81612fd8565b82525050565b612caa81612fd8565b82525050565b60006020820190508181036000830152612cca8184612838565b905092915050565b60006020820190508181036000830152612cec8184612896565b905092915050565b60006020820190508181036000830152612d0e818461290b565b905092915050565b60006020820190508181036000830152612d308184612969565b905092915050565b60006020820190508181036000830152612d5281846129d6565b905092915050565b60006020820190508181036000830152612d748184612a48565b905092915050565b60006020820190508181036000830152612d968184612ab4565b905092915050565b60006020820190508181036000830152612db88184612ba9565b905092915050565b60006020820190508181036000830152612dda8184612c00565b905092915050565b6000602082019050612df76000830184612ca1565b92915050565b6000604051905081810181811067ffffffffffffffff82111715612e2057600080fd5b8060405250919050565b600067ffffffffffffffff821115612e4157600080fd5b602082029050919050565b600067ffffffffffffffff821115612e6357600080fd5b601f19601f8301169050602081019050919050565b6000602082019050919050565b6000602082019050919050565b6000602082019050919050565b6000602082019050919050565b600081519050919050565b600081519050919050565b600081519050919050565b600081519050919050565b600081519050919050565b600081519050919050565b6000602082019050919050565b6000602082019050919050565b6000602082019050919050565b6000602082019050919050565b600082825260208201905092915050565b600082825260208201905092915050565b600082825260208201905092915050565b600082825260208201905092915050565b600082825260208201905092915050565b600082825260208201905092915050565b6000612f9382612fb8565b9050919050565b6000612fa582612fb8565b9050919050565b60008115159050919050565b600073ffffffffffffffffffffffffffffffffffffffff82169050919050565b6000819050919050565b82818337600083830152505050565b60005b8381101561300f578082015181840152602081019050612ff4565b8381111561301e576000848401525b50505050565b6000601f19601f8301169050919050565b61303e81612f88565b811461304957600080fd5b50565b61305581612fac565b811461306057600080fd5b50565b61306c81612fd8565b811461307757600080fd5b5056fea265627a7a723058206320b2f622dd4e7136e0b811c2f5d061c1a3bf83526ea3953f32abb983baf3e06c6578706572696d656e74616cf50037",
  "source": "pragma solidity >=0.4.22 <0.6.0;\npragma experimental ABIEncoderV2;\n\ncontract Chainclub {\n\n    uint16 constant MAX_MEMBERS = 1000;\n    uint constant MEMBERSHIP_PRICE_IN_WEI = 1000000000;\n\n    struct Member {\n        address payable wallet;\n        string name;\n        bool paidPendencies;\n        bool isSellingMembership;\n    }\n\n    struct Visitor {\n        address wallet;\n        address memberResponsible;\n    }\n\n    struct BooleanPoll {\n        uint pollIndex;\n        string subject;     // Ex: Vamos investir em algo para o clube?\n    }\n\n    struct OptionsPoll {\n        uint pollIndex;\n        string subject;     // Ex: No que vamos investir?\n        string options;   // \"Piscina de ondas\", \"Pista de corrida\", \"Torre de bung jump\"\n    }\n\n    struct QuantityPoll {\n        uint pollIndex;\n        string subject;     // Ex: Quantos reais gastaremos no nosso novo investimento?\n        uint bottomLimit;   // R$   100.000,00\n        uint topLimit;      // R$ 5.000.000,00\n    }\n\n    struct BooleanVote {\n        address owner;\n        bool yesOrNo;\n    }\n\n    struct OptionVote {\n        address owner;\n        uint optionIndex;\n    }\n\n    struct QuantityVote {\n        address owner;\n        uint quantity;\n    }\n\n    modifier didNotVoteOnBooleanPoll(address memberAddress, uint pollIndex) {\n _;\n    }\n\n    modifier didNotVoteOnQuantityPoll(address memberAddress, uint pollIndex) {\n _;\n    }\n\n    modifier didNotVoteOnOptionsPoll(address memberAddress, uint pollIndex) {\n _;\n    }\n\n    modifier isNotEmpty(string memory pollSubject) {\n _;\n    }\n\n    modifier moneyIsEnough(uint value) {\n _;\n    }\n\n    modifier clubIsAcceptingMembers() {\n        bool _someoneIsSelling = false;\n        for (uint i = 0; i < members.length; i++) {\n            if (members[i].isSellingMembership) {\n                _someoneIsSelling = true;\n            }\n        }\n _;\n    }\n\n    modifier isOnLimit(uint pollIndex, uint quantity) {\n_;\n    }\n\n    modifier isMember(address addr) {\n _;\n    }\n\n    address payable contractOwner;\n\n    Member[] members;   // guarda todos membros\n    Visitor[] visitors; // guarda todos visitantes\n\n    QuantityPoll[] quantityPolls;       // guarda todas enquetes de quantidade\n    OptionsPoll[] optionsPolls;         // guarda todas enquetes de opes\n    BooleanPoll[] booleanPolls;         // guarda todas enquetes de sim / nao\n\n    mapping (uint => QuantityVote[]) quantityPollsVotes;    // d o ndice da enquete e recebe um array de votos\n    mapping (uint => OptionVote[]) optionsPollsVotes;       // d o ndice da enquete e recebe um array de votos\n    mapping (uint => BooleanVote[]) booleanPollsVotes;      // d o ndice da enquete e recebe um array de votos\n\n    constructor(string memory yourFullName) public payable {\n        contractOwner = msg.sender;\n        members.push(\n            Member(\n                msg.sender, yourFullName, true, false\n            )\n        );\n    }\n\n    function startBooleanPoll (string memory pollSubject) public\n    isMember(msg.sender) isNotEmpty(pollSubject) {\n        booleanPolls.push(\n            BooleanPoll(\n                booleanPolls.length, pollSubject\n            )\n        );\n    }\n\n    function startQuantityPoll (string memory pollSubject, uint bottomLimit, uint topLimit) public\n    isMember(msg.sender) isNotEmpty(pollSubject) {\n        quantityPolls.push(\n            QuantityPoll(\n                quantityPolls.length, pollSubject, bottomLimit, topLimit\n            )\n        );\n    }\n\n    function startOptionsPoll (string memory pollSubject, string memory options) public\n    isMember(msg.sender) isNotEmpty(pollSubject) {\n        optionsPolls.push(\n            OptionsPoll(\n                optionsPolls.length, pollSubject, options\n            )\n        );\n    }\n\n    function voteOnBooleanPool(uint pollIndex, bool boolean) public\n    isMember(msg.sender) didNotVoteOnBooleanPoll(msg.sender, pollIndex) {\n        booleanPollsVotes[pollIndex].push(\n            BooleanVote(\n                msg.sender, boolean\n            )\n        );\n    }\n\n    function voteOnQuantityPool(uint pollIndex, uint quantity) public\n    isMember(msg.sender) isOnLimit(pollIndex, quantity) didNotVoteOnQuantityPoll(msg.sender, pollIndex) {\n        quantityPollsVotes[pollIndex].push(\n            QuantityVote(\n                msg.sender, quantity\n            )\n        );\n    }\n\n    function voteOnOptionPool(uint pollIndex, uint option) public\n    isMember(msg.sender) didNotVoteOnOptionsPoll(msg.sender, pollIndex) {\n        optionsPollsVotes[pollIndex].push(\n            OptionVote(\n                msg.sender, option\n            )\n        );\n    }\n\n    function buyMembership(string memory buyerName) public payable\n    clubIsAcceptingMembers() moneyIsEnough(msg.value) {\n        if (members.length < MAX_MEMBERS) {  // Dinheiro vai pro fundador\n            contractOwner.transfer(msg.value);\n            members.push(\n                Member(\n                    msg.sender, buyerName, true, false\n                )\n            );\n        }\n        else { // Procura membro que esteja vendendo\n            for (uint i = 0; i < members.length; i++) {\n                if (members[i].isSellingMembership && members[i].wallet != msg.sender) {\n                    members[i] = Member(\n                        msg.sender, buyerName, true, false\n                    );\n                    members[i].wallet.transfer(msg.value); // Dinheiro vai pro membro que ta vendendo\n                    delete members[i]; // Remove o membro que vendeu\n                    members.push(\n                        Member(\n                            msg.sender, buyerName, true, false\n                        )\n                    );\n                }\n            }\n        }\n    }\n\n    function sellMembership () public\n    isMember(msg.sender) {\n        for (uint i = 0; i < members.length; i++) {\n            if (members[i].wallet == msg.sender) {\n                members[i].isSellingMembership = true;\n            }\n        }\n    }\n\n    function enterInClub(address[3] memory newVisitors) public isMember(msg.sender)\n    isMember(msg.sender) {\n        Member memory _msgSender = getMember(msg.sender);\n        if (_msgSender.paidPendencies) {\n            for (uint8 i = 0; i < newVisitors.length; i++) {\n                visitors[visitors.length] = Visitor(newVisitors[i], msg.sender);\n            }\n        }\n    }\n\n    function leaveTheClub() public\n    isMember(msg.sender) {\n        for (uint i = 0; i < visitors.length; i++) {\n            if (visitors[i].memberResponsible == msg.sender) {\n                delete visitors[i];\n            }\n        }\n    }\n\n    //////////////// SIMPLE GETTERS ////////////////\n\n    function getQuantityPollBottomLimit (uint pollIndex) public view returns (uint) {\n        return quantityPolls[pollIndex].bottomLimit;\n    }\n\n    function getQuantityPollTopLimit (uint pollIndex) public view returns (uint) {\n        return quantityPolls[pollIndex].topLimit;\n    }\n\n    function getBooleanPoll (uint pollIndex) public view returns (BooleanPoll memory) {\n        return booleanPolls[pollIndex];\n    }\n\n    function getQuantityPoll (uint pollIndex) public view returns (QuantityPoll memory) {\n        return quantityPolls[pollIndex];\n    }\n\n    function getOptionsPoll (uint pollIndex) public view returns (OptionsPoll memory) {\n        return optionsPolls[pollIndex];\n    }\n\n    function getOptionsPollReturnOptions (uint pollIndex) public view returns (string memory) {\n        return optionsPolls[pollIndex].options;\n    }\n\n    function getBooleanPollVotes (uint pollIndex) public view returns (BooleanVote[] memory) {\n        return booleanPollsVotes[pollIndex];\n    }\n\n    function getQuantityPollVotes (uint pollIndex) public view returns (QuantityVote[] memory) {\n        return quantityPollsVotes[pollIndex];\n    }\n\n    function getOptionsPollVotes (uint pollIndex) public view returns (OptionVote[] memory) {\n        return optionsPollsVotes[pollIndex];\n    }\n\n    function getMember (uint memberIndex) public view returns (Member memory) {\n        return members[memberIndex];\n    }\n\n    function getMember (address memberAddress) public view returns (Member memory) {\n        for (uint i = 0; i < members.length; i++) {\n            if (members[i].wallet == memberAddress) {\n                return members[i];\n            }\n        }\n    }\n\n    function getMembers () public view returns (Member[] memory) {\n        return members;\n    }\n\n    function getMembershipPrice() public pure returns (uint) {\n        return MEMBERSHIP_PRICE_IN_WEI;\n    }\n\n    function getBooleanPollSubject (uint pollIndex) public view returns (string memory) {\n        return booleanPolls[pollIndex].subject;\n    }\n\n    function getQuantityPollSubject (uint pollIndex) public view returns (string memory) {\n        return quantityPolls[pollIndex].subject;\n    }\n\n    function getOptionsPollSubject (uint pollIndex) public view returns (string memory) {\n        return optionsPolls[pollIndex].subject;\n    }\n\n    function getBooleanPollVotesCount (uint pollIndex) public view returns (uint) {\n        return booleanPollsVotes[pollIndex].length;\n    }\n\n    function getQuantityPollVotesCount (uint pollIndex) public view returns (uint) {\n        return quantityPollsVotes[pollIndex].length;\n    }\n\n    function getOptionsPollVotesCount (uint pollIndex) public view returns (uint) {\n        return optionsPollsVotes[pollIndex].length;\n    }\n\n    //////////////// PRIVATE FUNCTIONS ////////////////\n\n    function stringsAreEqual (string memory a, string memory b) private pure returns (bool) {\n        return (keccak256(abi.encodePacked((a))) == keccak256(abi.encodePacked((b))) );\n    }\n\n    function alreadyVotedOnBooleanPoll (address memberAddress, uint pollIndex) private view returns (bool) {\n        for (uint i = 0; i < booleanPollsVotes[pollIndex].length; i++) {\n            if (memberAddress == booleanPollsVotes[pollIndex][i].owner) {\n                return true;\n            }\n        }\n        return false;\n    }\n\n    function alreadyVotedOnQuantityPoll (address memberAddress, uint pollIndex) private view returns (bool) {\n        for (uint i = 0; i < quantityPollsVotes[pollIndex].length; i++) {\n            if (memberAddress == quantityPollsVotes[pollIndex][i].owner) {\n                return true;\n            }\n        }\n        return false;\n    }\n\n    function alreadyVotedOnOptionsPoll (address memberAddress, uint pollIndex) private view returns (bool) {\n        for (uint i = 0; i < optionsPollsVotes[pollIndex].length; i++) {\n            if (memberAddress == optionsPollsVotes[pollIndex][i].owner) {\n                return true;\n            }\n        }\n        return false;\n    }\n}",
  "sourcePath": "/home/hugo/Documents/inf1305-dap/contracts/Chainclub.sol",
  "compiler": {
    "name": "solc",
    "version": "0.5.8+commit.23d335f2.Emscripten.clang"
  },
  "schemaVersion": "3.0.16",
  "updatedAt": "2019-12-12T00:26:23.014Z",
  "devdoc": {
    "methods": {}
  },
  "userdoc": {
    "methods": {
      "getQuantityPollBottomLimit(uint256)": {
        "notice": "///////////// SIMPLE GETTERS ////////////////"
      }
    }
  }
}