{
  "contractName": "Chainclub",
  "abi": [
    {
      "inputs": [
        {
          "name": "yourFullName",
          "type": "string"
        }
      ],
      "payable": false,
      "stateMutability": "nonpayable",
      "type": "constructor"
    },
    {
      "constant": false,
      "inputs": [
        {
          "name": "pollSubject",
          "type": "string"
        }
      ],
      "name": "startBooleanPoll",
      "outputs": [],
      "payable": false,
      "stateMutability": "nonpayable",
      "type": "function"
    },
    {
      "constant": false,
      "inputs": [
        {
          "name": "pollSubject",
          "type": "string"
        },
        {
          "name": "bottomLimit",
          "type": "uint256"
        },
        {
          "name": "topLimit",
          "type": "uint256"
        }
      ],
      "name": "startQuantityPoll",
      "outputs": [],
      "payable": false,
      "stateMutability": "nonpayable",
      "type": "function"
    },
    {
      "constant": false,
      "inputs": [
        {
          "name": "pollSubject",
          "type": "string"
        },
        {
          "name": "options",
          "type": "string[]"
        }
      ],
      "name": "startOptionsPoll",
      "outputs": [],
      "payable": false,
      "stateMutability": "nonpayable",
      "type": "function"
    },
    {
      "constant": false,
      "inputs": [
        {
          "name": "pollIndex",
          "type": "uint256"
        },
        {
          "name": "boolean",
          "type": "bool"
        }
      ],
      "name": "voteOnBooleanPool",
      "outputs": [],
      "payable": false,
      "stateMutability": "nonpayable",
      "type": "function"
    },
    {
      "constant": false,
      "inputs": [
        {
          "name": "pollIndex",
          "type": "uint256"
        },
        {
          "name": "quantity",
          "type": "uint256"
        }
      ],
      "name": "voteOnQuantityPool",
      "outputs": [],
      "payable": false,
      "stateMutability": "nonpayable",
      "type": "function"
    },
    {
      "constant": false,
      "inputs": [
        {
          "name": "pollIndex",
          "type": "uint256"
        },
        {
          "name": "option",
          "type": "uint256"
        }
      ],
      "name": "voteOnOptionPool",
      "outputs": [],
      "payable": false,
      "stateMutability": "nonpayable",
      "type": "function"
    },
    {
      "constant": false,
      "inputs": [
        {
          "name": "buyerName",
          "type": "string"
        }
      ],
      "name": "buyMembership",
      "outputs": [],
      "payable": true,
      "stateMutability": "payable",
      "type": "function"
    },
    {
      "constant": false,
      "inputs": [],
      "name": "sellMembership",
      "outputs": [],
      "payable": false,
      "stateMutability": "nonpayable",
      "type": "function"
    },
    {
      "constant": true,
      "inputs": [
        {
          "name": "pollIndex",
          "type": "uint256"
        }
      ],
      "name": "getQuantityPollBottomLimit",
      "outputs": [
        {
          "name": "",
          "type": "uint256"
        }
      ],
      "payable": false,
      "stateMutability": "view",
      "type": "function"
    },
    {
      "constant": true,
      "inputs": [
        {
          "name": "pollIndex",
          "type": "uint256"
        }
      ],
      "name": "getQuantityPollTopLimit",
      "outputs": [
        {
          "name": "",
          "type": "uint256"
        }
      ],
      "payable": false,
      "stateMutability": "view",
      "type": "function"
    },
    {
      "constant": true,
      "inputs": [
        {
          "name": "pollIndex",
          "type": "uint256"
        }
      ],
      "name": "getBooleanPoll",
      "outputs": [
        {
          "components": [
            {
              "name": "pollIndex",
              "type": "uint256"
            },
            {
              "name": "subject",
              "type": "string"
            }
          ],
          "name": "",
          "type": "tuple"
        }
      ],
      "payable": false,
      "stateMutability": "view",
      "type": "function"
    },
    {
      "constant": true,
      "inputs": [
        {
          "name": "pollIndex",
          "type": "uint256"
        }
      ],
      "name": "getQuantityPoll",
      "outputs": [
        {
          "components": [
            {
              "name": "pollIndex",
              "type": "uint256"
            },
            {
              "name": "subject",
              "type": "string"
            },
            {
              "name": "bottomLimit",
              "type": "uint256"
            },
            {
              "name": "topLimit",
              "type": "uint256"
            }
          ],
          "name": "",
          "type": "tuple"
        }
      ],
      "payable": false,
      "stateMutability": "view",
      "type": "function"
    },
    {
      "constant": true,
      "inputs": [
        {
          "name": "pollIndex",
          "type": "uint256"
        }
      ],
      "name": "getOptionsPoll",
      "outputs": [
        {
          "components": [
            {
              "name": "pollIndex",
              "type": "uint256"
            },
            {
              "name": "subject",
              "type": "string"
            },
            {
              "name": "options",
              "type": "string[]"
            }
          ],
          "name": "",
          "type": "tuple"
        }
      ],
      "payable": false,
      "stateMutability": "view",
      "type": "function"
    },
    {
      "constant": true,
      "inputs": [
        {
          "name": "pollIndex",
          "type": "uint256"
        }
      ],
      "name": "getBooleanPollVotes",
      "outputs": [
        {
          "components": [
            {
              "name": "owner",
              "type": "address"
            },
            {
              "name": "yesOrNo",
              "type": "bool"
            }
          ],
          "name": "",
          "type": "tuple[]"
        }
      ],
      "payable": false,
      "stateMutability": "view",
      "type": "function"
    },
    {
      "constant": true,
      "inputs": [
        {
          "name": "pollIndex",
          "type": "uint256"
        }
      ],
      "name": "getQuantityPollVotes",
      "outputs": [
        {
          "components": [
            {
              "name": "owner",
              "type": "address"
            },
            {
              "name": "quantity",
              "type": "uint256"
            }
          ],
          "name": "",
          "type": "tuple[]"
        }
      ],
      "payable": false,
      "stateMutability": "view",
      "type": "function"
    },
    {
      "constant": true,
      "inputs": [
        {
          "name": "pollIndex",
          "type": "uint256"
        }
      ],
      "name": "getOptionsPollVotes",
      "outputs": [
        {
          "components": [
            {
              "name": "owner",
              "type": "address"
            },
            {
              "name": "optionIndex",
              "type": "uint256"
            }
          ],
          "name": "",
          "type": "tuple[]"
        }
      ],
      "payable": false,
      "stateMutability": "view",
      "type": "function"
    },
    {
      "constant": true,
      "inputs": [
        {
          "name": "memberAddress",
          "type": "address"
        }
      ],
      "name": "getMember",
      "outputs": [
        {
          "components": [
            {
              "name": "wallet",
              "type": "address"
            },
            {
              "name": "name",
              "type": "string"
            },
            {
              "name": "paidLastMonth",
              "type": "bool"
            },
            {
              "name": "isSellingMembership",
              "type": "bool"
            }
          ],
          "name": "",
          "type": "tuple"
        }
      ],
      "payable": false,
      "stateMutability": "view",
      "type": "function"
    },
    {
      "constant": true,
      "inputs": [
        {
          "name": "memberIndex",
          "type": "uint256"
        }
      ],
      "name": "getMember",
      "outputs": [
        {
          "components": [
            {
              "name": "wallet",
              "type": "address"
            },
            {
              "name": "name",
              "type": "string"
            },
            {
              "name": "paidLastMonth",
              "type": "bool"
            },
            {
              "name": "isSellingMembership",
              "type": "bool"
            }
          ],
          "name": "",
          "type": "tuple"
        }
      ],
      "payable": false,
      "stateMutability": "view",
      "type": "function"
    },
    {
      "constant": true,
      "inputs": [],
      "name": "getMembers",
      "outputs": [
        {
          "components": [
            {
              "name": "wallet",
              "type": "address"
            },
            {
              "name": "name",
              "type": "string"
            },
            {
              "name": "paidLastMonth",
              "type": "bool"
            },
            {
              "name": "isSellingMembership",
              "type": "bool"
            }
          ],
          "name": "",
          "type": "tuple[]"
        }
      ],
      "payable": false,
      "stateMutability": "view",
      "type": "function"
    },
    {
      "constant": true,
      "inputs": [],
      "name": "getMembershipPrice",
      "outputs": [
        {
          "name": "",
          "type": "uint256"
        }
      ],
      "payable": false,
      "stateMutability": "pure",
      "type": "function"
    },
    {
      "constant": true,
      "inputs": [
        {
          "name": "pollIndex",
          "type": "uint256"
        }
      ],
      "name": "getBooleanPollSubject",
      "outputs": [
        {
          "name": "",
          "type": "string"
        }
      ],
      "payable": false,
      "stateMutability": "view",
      "type": "function"
    },
    {
      "constant": true,
      "inputs": [
        {
          "name": "pollIndex",
          "type": "uint256"
        }
      ],
      "name": "getQuantityPollSubject",
      "outputs": [
        {
          "name": "",
          "type": "string"
        }
      ],
      "payable": false,
      "stateMutability": "view",
      "type": "function"
    },
    {
      "constant": true,
      "inputs": [
        {
          "name": "pollIndex",
          "type": "uint256"
        }
      ],
      "name": "getOptionsPollSubject",
      "outputs": [
        {
          "name": "",
          "type": "string"
        }
      ],
      "payable": false,
      "stateMutability": "view",
      "type": "function"
    },
    {
      "constant": true,
      "inputs": [
        {
          "name": "pollIndex",
          "type": "uint256"
        }
      ],
      "name": "getBooleanPollVotesCount",
      "outputs": [
        {
          "name": "",
          "type": "uint256"
        }
      ],
      "payable": false,
      "stateMutability": "view",
      "type": "function"
    },
    {
      "constant": true,
      "inputs": [
        {
          "name": "pollIndex",
          "type": "uint256"
        }
      ],
      "name": "getQuantityPollVotesCount",
      "outputs": [
        {
          "name": "",
          "type": "uint256"
        }
      ],
      "payable": false,
      "stateMutability": "view",
      "type": "function"
    },
    {
      "constant": true,
      "inputs": [
        {
          "name": "pollIndex",
          "type": "uint256"
        }
      ],
      "name": "getOptionsPollVotesCount",
      "outputs": [
        {
          "name": "",
          "type": "uint256"
        }
      ],
      "payable": false,
      "stateMutability": "view",
      "type": "function"
    }
  ],
  "bytecode": "0x60806040523480156200001157600080fd5b506040516200330c3803806200330c83398101806040526200003791908101906200029c565b336000806101000a81548173ffffffffffffffffffffffffffffffffffffffff021916908373ffffffffffffffffffffffffffffffffffffffff160217905550600160405180608001604052803373ffffffffffffffffffffffffffffffffffffffff168152602001838152602001600115158152602001600015158152509080600181540180825580915050906001820390600052602060002090600302016000909192909190915060008201518160000160006101000a81548173ffffffffffffffffffffffffffffffffffffffff021916908373ffffffffffffffffffffffffffffffffffffffff16021790555060208201518160010190805190602001906200014692919062000191565b5060408201518160020160006101000a81548160ff02191690831515021790555060608201518160020160016101000a81548160ff0219169083151502179055505050505062000372565b828054600181600116156101000203166002900490600052602060002090601f016020900481019282601f10620001d457805160ff191683800117855562000205565b8280016001018555821562000205579182015b8281111562000204578251825591602001919060010190620001e7565b5b50905062000214919062000218565b5090565b6200023d91905b80821115620002395760008160009055506001016200021f565b5090565b90565b600082601f8301126200025257600080fd5b81516200026962000263826200030f565b620002e1565b915080825260208301602083018583830111156200028657600080fd5b620002938382846200033c565b50505092915050565b600060208284031215620002af57600080fd5b600082015167ffffffffffffffff811115620002ca57600080fd5b620002d88482850162000240565b91505092915050565b6000604051905081810181811067ffffffffffffffff821117156200030557600080fd5b8060405250919050565b600067ffffffffffffffff8211156200032757600080fd5b601f19601f8301169050602081019050919050565b60005b838110156200035c5780820151818401526020810190506200033f565b838111156200036c576000848401525b50505050565b612f8a80620003826000396000f3fe6080604052600436106101815760003560e01c8063911c8107116100d1578063b14e4d161161008a578063dd4f33e611610064578063dd4f33e614610609578063e24bb95614610632578063f267efae1461066f578063f2d624071461069857610181565b8063b14e4d1614610566578063ba53e715146105a3578063ce5717f2146105e057610181565b8063911c81071461043057806393671a95146104475780639eab525314610484578063ab3545e5146104af578063ad890567146104ec578063aeceff6b1461052957610181565b80632ada25961161013e57806348b989581161011857806348b989581461038557806352ac34dd146103a15780636aefb518146103ca5780637645154c146103f357610181565b80632ada2596146102ce5780633e0582c21461030b57806344966dc81461034857610181565b80630f43f472146101865780631278076a146101af5780631b65db3d146101da5780631bcd29f81461021757806327e6af071461025457806329791e8e14610291575b600080fd5b34801561019257600080fd5b506101ad60048036036101a891908101906123dc565b6106d5565b005b3480156101bb57600080fd5b506101c4610792565b6040516101d19190612c45565b60405180910390f35b3480156101e657600080fd5b5061020160048036036101fc91908101906124af565b61079e565b60405161020e9190612c45565b60405180910390f35b34801561022357600080fd5b5061023e600480360361023991908101906124af565b6107be565b60405161024b9190612b57565b60405180910390f35b34801561026057600080fd5b5061027b600480360361027691908101906124af565b610890565b6040516102889190612c45565b60405180910390f35b34801561029d57600080fd5b506102b860048036036102b391908101906124af565b6108b8565b6040516102c59190612b13565b60405180910390f35b3480156102da57600080fd5b506102f560048036036102f09190810190612372565b610997565b6040516103029190612bdf565b60405180910390f35b34801561031757600080fd5b50610332600480360361032d91908101906124af565b610b94565b60405161033f9190612c01565b60405180910390f35b34801561035457600080fd5b5061036f600480360361036a91908101906124af565b610d5e565b60405161037c9190612b9b565b60405180910390f35b61039f600480360361039a919081019061239b565b610e1e565b005b3480156103ad57600080fd5b506103c860048036036103c39190810190612514565b611101565b005b3480156103d657600080fd5b506103f160048036036103ec91908101906124d8565b6111da565b005b3480156103ff57600080fd5b5061041a600480360361041591908101906124af565b6112c7565b6040516104279190612c45565b60405180910390f35b34801561043c57600080fd5b506104456112e7565b005b34801561045357600080fd5b5061046e600480360361046991908101906124af565b6113b3565b60405161047b9190612b9b565b60405180910390f35b34801561049057600080fd5b50610499611473565b6040516104a69190612b35565b60405180910390f35b3480156104bb57600080fd5b506104d660048036036104d191908101906124af565b611600565b6040516104e39190612bdf565b60405180910390f35b3480156104f857600080fd5b50610513600480360361050e91908101906124af565b611763565b6040516105209190612c45565b60405180910390f35b34801561053557600080fd5b50610550600480360361054b91908101906124af565b61178b565b60405161055d9190612c45565b60405180910390f35b34801561057257600080fd5b5061058d600480360361058891908101906124af565b6117ab565b60405161059a9190612c23565b60405180910390f35b3480156105af57600080fd5b506105ca60048036036105c591908101906124af565b6118a0565b6040516105d79190612b9b565b60405180910390f35b3480156105ec57600080fd5b506106076004803603610602919081019061239b565b611960565b005b34801561061557600080fd5b50610630600480360361062b9190810190612448565b6119f9565b005b34801561063e57600080fd5b50610659600480360361065491908101906124af565b611ab4565b6040516106669190612b79565b60405180910390f35b34801561067b57600080fd5b5061069660048036036106919190810190612514565b611b86565b005b3480156106a457600080fd5b506106bf60048036036106ba91908101906124af565b611c5f565b6040516106cc9190612bbd565b60405180910390f35b816106ef8160405180602001604052806000815250611d40565b156106f957600080fd5b600360405180606001604052806003805490508152602001858152602001848152509080600181540180825580915050906001820390600052602060002090600302016000909192909190915060008201518160000155602082015181600101908051906020019061076c929190611ff9565b506040820151816002019080519060200190610789929190612079565b50505050505050565b6000633b9aca00905090565b600060076000838152602001908152602001600020805490509050919050565b606060066000838152602001908152602001600020805480602002602001604051908101604052809291908181526020016000905b8282101561088557838290600052602060002090600202016040518060400160405290816000820160009054906101000a900473ffffffffffffffffffffffffffffffffffffffff1673ffffffffffffffffffffffffffffffffffffffff1673ffffffffffffffffffffffffffffffffffffffff168152602001600182015481525050815260200190600101906107f3565b505050509050919050565b60006002828154811061089f57fe5b9060005260206000209060040201600301549050919050565b606060076000838152602001908152602001600020805480602002602001604051908101604052809291908181526020016000905b8282101561098c578382906000526020600020016040518060400160405290816000820160009054906101000a900473ffffffffffffffffffffffffffffffffffffffff1673ffffffffffffffffffffffffffffffffffffffff1673ffffffffffffffffffffffffffffffffffffffff1681526020016000820160149054906101000a900460ff161515151581525050815260200190600101906108ed565b505050509050919050565b61099f6120d9565b60008090505b600180549050811015610b8d578273ffffffffffffffffffffffffffffffffffffffff16600182815481106109d657fe5b906000526020600020906003020160000160009054906101000a900473ffffffffffffffffffffffffffffffffffffffff1673ffffffffffffffffffffffffffffffffffffffff161415610b805760018181548110610a3157fe5b90600052602060002090600302016040518060800160405290816000820160009054906101000a900473ffffffffffffffffffffffffffffffffffffffff1673ffffffffffffffffffffffffffffffffffffffff1673ffffffffffffffffffffffffffffffffffffffff168152602001600182018054600181600116156101000203166002900480601f016020809104026020016040519081016040528092919081815260200182805460018160011615610100020316600290048015610b395780601f10610b0e57610100808354040283529160200191610b39565b820191906000526020600020905b815481529060010190602001808311610b1c57829003601f168201915b505050505081526020016002820160009054906101000a900460ff161515151581526020016002820160019054906101000a900460ff161515151581525050915050610b8f565b80806001019150506109a5565b505b919050565b610b9c61211b565b60038281548110610ba957fe5b906000526020600020906003020160405180606001604052908160008201548152602001600182018054600181600116156101000203166002900480601f016020809104026020016040519081016040528092919081815260200182805460018160011615610100020316600290048015610c655780601f10610c3a57610100808354040283529160200191610c65565b820191906000526020600020905b815481529060010190602001808311610c4857829003601f168201915b5050505050815260200160028201805480602002602001604051908101604052809291908181526020016000905b82821015610d4f578382906000526020600020018054600181600116156101000203166002900480601f016020809104026020016040519081016040528092919081815260200182805460018160011615610100020316600290048015610d3b5780601f10610d1057610100808354040283529160200191610d3b565b820191906000526020600020905b815481529060010190602001808311610d1e57829003601f168201915b505050505081526020019060010190610c93565b50505050815250509050919050565b606060038281548110610d6d57fe5b90600052602060002090600302016001018054600181600116156101000203166002900480601f016020809104026020016040519081016040528092919081815260200182805460018160011615610100020316600290048015610e125780601f10610de757610100808354040283529160200191610e12565b820191906000526020600020905b815481529060010190602001808311610df557829003601f168201915b50505050509050919050565b34633b9aca00811015610e3057600080fd5b600161ffff166001805490501015610eaf576000809054906101000a900473ffffffffffffffffffffffffffffffffffffffff1673ffffffffffffffffffffffffffffffffffffffff166108fc349081150290604051600060405180830381858888f19350505050158015610ea9573d6000803e3d6000fd5b506110fd565b60008090505b6001805490508110156110fb5760018181548110610ecf57fe5b906000526020600020906003020160020160019054906101000a900460ff168015610f6457503373ffffffffffffffffffffffffffffffffffffffff1660018281548110610f1957fe5b906000526020600020906003020160000160009054906101000a900473ffffffffffffffffffffffffffffffffffffffff1673ffffffffffffffffffffffffffffffffffffffff1614155b156110ee5760405180608001604052803373ffffffffffffffffffffffffffffffffffffffff1681526020018481526020016001151581526020016000151581525060018281548110610fb357fe5b906000526020600020906003020160008201518160000160006101000a81548173ffffffffffffffffffffffffffffffffffffffff021916908373ffffffffffffffffffffffffffffffffffffffff1602179055506020820151816001019080519060200190611024929190611ff9565b5060408201518160020160006101000a81548160ff02191690831515021790555060608201518160020160016101000a81548160ff0219169083151502179055509050506001818154811061107557fe5b906000526020600020906003020160000160009054906101000a900473ffffffffffffffffffffffffffffffffffffffff1673ffffffffffffffffffffffffffffffffffffffff166108fc349081150290604051600060405180830381858888f193505050501580156110ec573d6000803e3d6000fd5b505b8080600101915050610eb5565b505b5050565b338261110d8282611d99565b1561111757600080fd5b6005600085815260200190815260200160002060405180604001604052803373ffffffffffffffffffffffffffffffffffffffff168152602001858152509080600181540180825580915050906001820390600052602060002090600202016000909192909190915060008201518160000160006101000a81548173ffffffffffffffffffffffffffffffffffffffff021916908373ffffffffffffffffffffffffffffffffffffffff1602179055506020820151816001015550505050505050565b33826111e68282611e65565b156111f057600080fd5b6007600085815260200190815260200160002060405180604001604052803373ffffffffffffffffffffffffffffffffffffffff16815260200185151581525090806001815401808255809150509060018203906000526020600020016000909192909190915060008201518160000160006101000a81548173ffffffffffffffffffffffffffffffffffffffff021916908373ffffffffffffffffffffffffffffffffffffffff16021790555060208201518160000160146101000a81548160ff02191690831515021790555050505050505050565b600060056000838152602001908152602001600020805490509050919050565b60008090505b6001805490508110156113b0573373ffffffffffffffffffffffffffffffffffffffff166001828154811061131e57fe5b906000526020600020906003020160000160009054906101000a900473ffffffffffffffffffffffffffffffffffffffff1673ffffffffffffffffffffffffffffffffffffffff1614156113a357600180828154811061137a57fe5b906000526020600020906003020160020160016101000a81548160ff0219169083151502179055505b80806001019150506112ed565b50565b6060600282815481106113c257fe5b90600052602060002090600402016001018054600181600116156101000203166002900480601f0160208091040260200160405190810160405280929190818152602001828054600181600116156101000203166002900480156114675780601f1061143c57610100808354040283529160200191611467565b820191906000526020600020905b81548152906001019060200180831161144a57829003601f168201915b50505050509050919050565b60606001805480602002602001604051908101604052809291908181526020016000905b828210156115f757838290600052602060002090600302016040518060800160405290816000820160009054906101000a900473ffffffffffffffffffffffffffffffffffffffff1673ffffffffffffffffffffffffffffffffffffffff1673ffffffffffffffffffffffffffffffffffffffff168152602001600182018054600181600116156101000203166002900480601f0160208091040260200160405190810160405280929190818152602001828054600181600116156101000203166002900480156115a95780601f1061157e576101008083540402835291602001916115a9565b820191906000526020600020905b81548152906001019060200180831161158c57829003601f168201915b505050505081526020016002820160009054906101000a900460ff161515151581526020016002820160019054906101000a900460ff16151515158152505081526020019060010190611497565b50505050905090565b6116086120d9565b6001828154811061161557fe5b90600052602060002090600302016040518060800160405290816000820160009054906101000a900473ffffffffffffffffffffffffffffffffffffffff1673ffffffffffffffffffffffffffffffffffffffff1673ffffffffffffffffffffffffffffffffffffffff168152602001600182018054600181600116156101000203166002900480601f01602080910402602001604051908101604052809291908181526020018280546001816001161561010002031660029004801561171d5780601f106116f25761010080835404028352916020019161171d565b820191906000526020600020905b81548152906001019060200180831161170057829003601f168201915b505050505081526020016002820160009054906101000a900460ff161515151581526020016002820160019054906101000a900460ff1615151515815250509050919050565b60006002828154811061177257fe5b9060005260206000209060040201600201549050919050565b600060066000838152602001908152602001600020805490509050919050565b6117b361213c565b600282815481106117c057fe5b906000526020600020906004020160405180608001604052908160008201548152602001600182018054600181600116156101000203166002900480601f01602080910402602001604051908101604052809291908181526020018280546001816001161561010002031660029004801561187c5780601f106118515761010080835404028352916020019161187c565b820191906000526020600020905b81548152906001019060200180831161185f57829003601f168201915b50505050508152602001600282015481526020016003820154815250509050919050565b6060600482815481106118af57fe5b90600052602060002090600202016001018054600181600116156101000203166002900480601f0160208091040260200160405190810160405280929190818152602001828054600181600116156101000203166002900480156119545780601f1061192957610100808354040283529160200191611954565b820191906000526020600020905b81548152906001019060200180831161193757829003601f168201915b50505050509050919050565b8061197a8160405180602001604052806000815250611d40565b1561198457600080fd5b60046040518060400160405280600480549050815260200184815250908060018154018082558091505090600182039060005260206000209060020201600090919290919091506000820151816000015560208201518160010190805190602001906119f1929190611ff9565b505050505050565b82611a138160405180602001604052806000815250611d40565b15611a1d57600080fd5b6002604051806080016040528060028054905081526020018681526020018581526020018481525090806001815401808255809150509060018203906000526020600020906004020160009091929091909150600082015181600001556020820151816001019080519060200190611a96929190611ff9565b50604082015181600201556060820151816003015550505050505050565b606060056000838152602001908152602001600020805480602002602001604051908101604052809291908181526020016000905b82821015611b7b57838290600052602060002090600202016040518060400160405290816000820160009054906101000a900473ffffffffffffffffffffffffffffffffffffffff1673ffffffffffffffffffffffffffffffffffffffff1673ffffffffffffffffffffffffffffffffffffffff16815260200160018201548152505081526020019060010190611ae9565b505050509050919050565b3382611b928282611f2d565b15611b9c57600080fd5b6006600085815260200190815260200160002060405180604001604052803373ffffffffffffffffffffffffffffffffffffffff168152602001858152509080600181540180825580915050906001820390600052602060002090600202016000909192909190915060008201518160000160006101000a81548173ffffffffffffffffffffffffffffffffffffffff021916908373ffffffffffffffffffffffffffffffffffffffff1602179055506020820151816001015550505050505050565b611c67612164565b60048281548110611c7457fe5b906000526020600020906002020160405180604001604052908160008201548152602001600182018054600181600116156101000203166002900480601f016020809104026020016040519081016040528092919081815260200182805460018160011615610100020316600290048015611d305780601f10611d0557610100808354040283529160200191611d30565b820191906000526020600020905b815481529060010190602001808311611d1357829003601f168201915b5050505050815250509050919050565b600081604051602001611d539190612afc565b6040516020818303038152906040528051906020012083604051602001611d7a9190612afc565b6040516020818303038152906040528051906020012014905092915050565b600080600090505b6005600084815260200190815260200160002080549050811015611e5957600560008481526020019081526020016000208181548110611ddd57fe5b906000526020600020906002020160000160009054906101000a900473ffffffffffffffffffffffffffffffffffffffff1673ffffffffffffffffffffffffffffffffffffffff168473ffffffffffffffffffffffffffffffffffffffff161415611e4c576001915050611e5f565b8080600101915050611da1565b50600090505b92915050565b600080600090505b6007600084815260200190815260200160002080549050811015611f2157600760008481526020019081526020016000208181548110611ea957fe5b9060005260206000200160000160009054906101000a900473ffffffffffffffffffffffffffffffffffffffff1673ffffffffffffffffffffffffffffffffffffffff168473ffffffffffffffffffffffffffffffffffffffff161415611f14576001915050611f27565b8080600101915050611e6d565b50600090505b92915050565b600080600090505b6006600084815260200190815260200160002080549050811015611fed57600660008481526020019081526020016000208181548110611f7157fe5b906000526020600020906002020160000160009054906101000a900473ffffffffffffffffffffffffffffffffffffffff1673ffffffffffffffffffffffffffffffffffffffff168473ffffffffffffffffffffffffffffffffffffffff161415611fe0576001915050611ff3565b8080600101915050611f35565b50600090505b92915050565b828054600181600116156101000203166002900490600052602060002090601f016020900481019282601f1061203a57805160ff1916838001178555612068565b82800160010185558215612068579182015b8281111561206757825182559160200191906001019061204c565b5b509050612075919061217e565b5090565b8280548282559060005260206000209081019282156120c8579160200282015b828111156120c75782518290805190602001906120b7929190611ff9565b5091602001919060010190612099565b5b5090506120d591906121a3565b5090565b6040518060800160405280600073ffffffffffffffffffffffffffffffffffffffff168152602001606081526020016000151581526020016000151581525090565b60405180606001604052806000815260200160608152602001606081525090565b6040518060800160405280600081526020016060815260200160008152602001600081525090565b604051806040016040528060008152602001606081525090565b6121a091905b8082111561219c576000816000905550600101612184565b5090565b90565b6121cc91905b808211156121c857600081816121bf91906121cf565b506001016121a9565b5090565b90565b50805460018160011615610100020316600290046000825580601f106121f55750612214565b601f016020900490600052602060002090810190612213919061217e565b5b50565b60008135905061222681612f0b565b92915050565b600082601f83011261223d57600080fd5b813561225061224b82612c8d565b612c60565b9150818183526020840193506020810190508360005b83811015612296578135860161227c88826122b5565b845260208401935060208301925050600181019050612266565b5050505092915050565b6000813590506122af81612f22565b92915050565b600082601f8301126122c657600080fd5b81356122d96122d482612cb5565b612c60565b915080825260208301602083018583830111156122f557600080fd5b612300838284612eb8565b50505092915050565b600082601f83011261231a57600080fd5b813561232d61232882612ce1565b612c60565b9150808252602083016020830185838301111561234957600080fd5b612354838284612eb8565b50505092915050565b60008135905061236c81612f39565b92915050565b60006020828403121561238457600080fd5b600061239284828501612217565b91505092915050565b6000602082840312156123ad57600080fd5b600082013567ffffffffffffffff8111156123c757600080fd5b6123d384828501612309565b91505092915050565b600080604083850312156123ef57600080fd5b600083013567ffffffffffffffff81111561240957600080fd5b61241585828601612309565b925050602083013567ffffffffffffffff81111561243257600080fd5b61243e8582860161222c565b9150509250929050565b60008060006060848603121561245d57600080fd5b600084013567ffffffffffffffff81111561247757600080fd5b61248386828701612309565b93505060206124948682870161235d565b92505060406124a58682870161235d565b9150509250925092565b6000602082840312156124c157600080fd5b60006124cf8482850161235d565b91505092915050565b600080604083850312156124eb57600080fd5b60006124f98582860161235d565b925050602061250a858286016122a0565b9150509250929050565b6000806040838503121561252757600080fd5b60006125358582860161235d565b92505060206125468582860161235d565b9150509250929050565b600061255c838361285b565b905092915050565b600061257083836128d1565b60408301905092915050565b60006125888383612963565b905092915050565b600061259c83836129c6565b60408301905092915050565b60006125b48383612aaf565b60408301905092915050565b6125c981612e70565b82525050565b6125d881612e5e565b82525050565b60006125e982612d4e565b6125f38185612ddc565b93508360208202850161260585612d0d565b8060005b8581101561264157848403895281516126228582612550565b945061262d83612d9b565b925060208a01995050600181019050612609565b50829750879550505050505092915050565b600061265e82612d59565b6126688185612ded565b935061267383612d1a565b8060005b838110156126a457815161268b8882612564565b975061269683612da8565b925050600181019050612677565b5085935050505092915050565b60006126bc82612d64565b6126c68185612dfe565b9350836020820285016126d885612d27565b8060005b8581101561271457848403895281516126f5858261257c565b945061270083612db5565b925060208a019950506001810190506126dc565b50829750879550505050505092915050565b600061273182612d6f565b61273b8185612e0f565b935061274683612d34565b8060005b8381101561277757815161275e8882612590565b975061276983612dc2565b92505060018101905061274a565b5085935050505092915050565b600061278f82612d7a565b6127998185612e20565b93506127a483612d41565b8060005b838110156127d55781516127bc88826125a8565b97506127c783612dcf565b9250506001810190506127a8565b5085935050505092915050565b6127eb81612e82565b82525050565b60006127fc82612d90565b6128068185612e42565b9350612816818560208601612ec7565b61281f81612efa565b840191505092915050565b600061283582612d90565b61283f8185612e53565b935061284f818560208601612ec7565b80840191505092915050565b600061286682612d85565b6128708185612e31565b9350612880818560208601612ec7565b61288981612efa565b840191505092915050565b60006040830160008301516128ac6000860182612ade565b50602083015184820360208601526128c4828261285b565b9150508091505092915050565b6040820160008201516128e760008501826125cf565b5060208201516128fa60208501826127e2565b50505050565b600060808301600083015161291860008601826125c0565b5060208301518482036020860152612930828261285b565b915050604083015161294560408601826127e2565b50606083015161295860608601826127e2565b508091505092915050565b600060808301600083015161297b60008601826125c0565b5060208301518482036020860152612993828261285b565b91505060408301516129a860408601826127e2565b5060608301516129bb60608601826127e2565b508091505092915050565b6040820160008201516129dc60008501826125cf565b5060208201516129ef6020850182612ade565b50505050565b6000606083016000830151612a0d6000860182612ade565b5060208301518482036020860152612a25828261285b565b91505060408301518482036040860152612a3f82826125de565b9150508091505092915050565b6000608083016000830151612a646000860182612ade565b5060208301518482036020860152612a7c828261285b565b9150506040830151612a916040860182612ade565b506060830151612aa46060860182612ade565b508091505092915050565b604082016000820151612ac560008501826125cf565b506020820151612ad86020850182612ade565b50505050565b612ae781612eae565b82525050565b612af681612eae565b82525050565b6000612b08828461282a565b915081905092915050565b60006020820190508181036000830152612b2d8184612653565b905092915050565b60006020820190508181036000830152612b4f81846126b1565b905092915050565b60006020820190508181036000830152612b718184612726565b905092915050565b60006020820190508181036000830152612b938184612784565b905092915050565b60006020820190508181036000830152612bb581846127f1565b905092915050565b60006020820190508181036000830152612bd78184612894565b905092915050565b60006020820190508181036000830152612bf98184612900565b905092915050565b60006020820190508181036000830152612c1b81846129f5565b905092915050565b60006020820190508181036000830152612c3d8184612a4c565b905092915050565b6000602082019050612c5a6000830184612aed565b92915050565b6000604051905081810181811067ffffffffffffffff82111715612c8357600080fd5b8060405250919050565b600067ffffffffffffffff821115612ca457600080fd5b602082029050602081019050919050565b600067ffffffffffffffff821115612ccc57600080fd5b601f19601f8301169050602081019050919050565b600067ffffffffffffffff821115612cf857600080fd5b601f19601f8301169050602081019050919050565b6000602082019050919050565b6000602082019050919050565b6000602082019050919050565b6000602082019050919050565b6000602082019050919050565b600081519050919050565b600081519050919050565b600081519050919050565b600081519050919050565b600081519050919050565b600081519050919050565b600081519050919050565b6000602082019050919050565b6000602082019050919050565b6000602082019050919050565b6000602082019050919050565b6000602082019050919050565b600082825260208201905092915050565b600082825260208201905092915050565b600082825260208201905092915050565b600082825260208201905092915050565b600082825260208201905092915050565b600082825260208201905092915050565b600082825260208201905092915050565b600081905092915050565b6000612e6982612e8e565b9050919050565b6000612e7b82612e8e565b9050919050565b60008115159050919050565b600073ffffffffffffffffffffffffffffffffffffffff82169050919050565b6000819050919050565b82818337600083830152505050565b60005b83811015612ee5578082015181840152602081019050612eca565b83811115612ef4576000848401525b50505050565b6000601f19601f8301169050919050565b612f1481612e5e565b8114612f1f57600080fd5b50565b612f2b81612e82565b8114612f3657600080fd5b50565b612f4281612eae565b8114612f4d57600080fd5b5056fea265627a7a72305820833b29a8bd20b92395108d06779092e69892e8422c49d68b784215a123e9004b6c6578706572696d656e74616cf50037",
  "source": "pragma solidity >=0.4.22 <0.6.0;\npragma experimental ABIEncoderV2;\n\ncontract Chainclub {\n    \n    struct Member {\n        address payable wallet;\n        string name;\n        bool paidLastMonth;\n        bool isSellingMembership;\n    }\n    \n    struct BooleanPoll {    \n        uint pollIndex;\n        string subject;     // Ex: Vamos investir em algo para o clube?\n    }\n    \n    struct OptionsPoll {    \n        uint pollIndex; \n        string subject;     // Ex: No que vamos investir?\n        string[] options;   // \"Piscina de ondas\", \"Pista de corrida\", \"Torre de bung jump\"\n    }\n    \n    struct QuantityPoll {\n        uint pollIndex;\n        string subject;     // Ex: Quantos reais gastaremos no nosso novo investimento?\n        uint bottomLimit;\n        uint topLimit;\n    }\n    \n    struct BooleanVote {\n        address owner;\n        bool yesOrNo;\n    }\n    \n    struct OptionVote {\n        address owner;\n        uint optionIndex;\n    }\n\n    struct QuantityVote {\n        address owner;\n        uint quantity;      \n    }\n    \n    modifier didNotVoteOnBooleanPoll(address memberAddress, uint pollIndex) {\n        require(!alreadyVotedOnBooleanPoll(memberAddress, pollIndex));_;\n    }\n    \n    modifier didNotVoteOnQuantityPoll(address memberAddress, uint pollIndex) {\n        require(!alreadyVotedOnQuantityPoll(memberAddress, pollIndex));_;\n    }\n    \n    modifier didNotVoteOnOptionsPoll(address memberAddress, uint pollIndex) {\n        require(!alreadyVotedOnOptionsPoll(memberAddress, pollIndex));_;\n    }\n    \n    modifier isNotEmpty(string memory pollSubject) { \n        require(!stringsAreEqual(pollSubject, \"\")); _; \n    }\n    \n    modifier moneyIsEnough(uint value) { \n        require(value >= MEMBERSHIP_PRICE_IN_WEI); _; \n    }\n    \n    // Enums\n    uint16 constant MAX_MEMBERS = 1;\n    uint constant MEMBERSHIP_PRICE_IN_WEI = 1000000000;\n    \n    address payable contractOwner;\n    \n    Member[] members; // guarda todos membros \n    QuantityPoll[] quantityPolls;   // guarda todas enquetes de quantidade\n    OptionsPoll[] optionsPolls;     // guarda todas enquetes de opes\n    BooleanPoll[] booleanPolls;     // guarda todas enquetes de sim / nao\n    mapping (uint => QuantityVote[]) quantityPollsVotes;    // d o ndice da enquete e recebe um array de votos\n    mapping (uint => OptionVote[]) optionsPollsVotes;       // d o ndice da enquete e recebe um array de votos\n    mapping (uint => BooleanVote[]) booleanPollsVotes;      // d o ndice da enquete e recebe um array de votos\n\n    constructor(string memory yourFullName) public {\n        contractOwner = msg.sender;\n        members.push(\n            Member(\n                msg.sender, yourFullName, true, false\n            )\n        );\n    }\n    \n    function startBooleanPoll (string memory pollSubject) public isNotEmpty(pollSubject) {\n        booleanPolls.push(\n            BooleanPoll(\n                booleanPolls.length, pollSubject\n            )\n        );\n    }\n    \n    function startQuantityPoll (string memory pollSubject, uint bottomLimit, uint topLimit) public isNotEmpty(pollSubject) {\n        quantityPolls.push(\n            QuantityPoll(\n                quantityPolls.length, pollSubject, bottomLimit, topLimit\n            )\n        );\n    }\n    \n    function startOptionsPoll (string memory pollSubject, string[] memory options) public isNotEmpty(pollSubject) {\n        optionsPolls.push(\n            OptionsPoll(\n                optionsPolls.length, pollSubject, options\n            )\n        );\n    }\n    \n    function voteOnBooleanPool(uint pollIndex, bool boolean) public didNotVoteOnBooleanPoll(msg.sender, pollIndex) {\n        booleanPollsVotes[pollIndex].push(\n            BooleanVote(\n                msg.sender, boolean\n            )\n        );\n    }\n    \n    function voteOnQuantityPool(uint pollIndex, uint quantity) public didNotVoteOnQuantityPoll(msg.sender, pollIndex) {\n        quantityPollsVotes[pollIndex].push(\n            QuantityVote(\n                msg.sender, quantity\n            )\n        );\n    }\n    \n    function voteOnOptionPool(uint pollIndex, uint option) public didNotVoteOnOptionsPoll(msg.sender, pollIndex) {\n        optionsPollsVotes[pollIndex].push(\n            OptionVote(\n                msg.sender, option\n            )\n        );\n    }\n    \n    function buyMembership(string memory buyerName) payable public moneyIsEnough(msg.value) {\n        \n        // Dinheiro vai pro fundador\n        if (members.length < MAX_MEMBERS) {\n            contractOwner.transfer(msg.value);\n        }\n        \n        // Procura membro que esteja vendendo\n        else { \n            for (uint i = 0; i < members.length; i++) {\n                \n                if (members[i].isSellingMembership && members[i].wallet != msg.sender) {\n                    members[i] = Member(\n                        msg.sender, buyerName, true, false\n                    );\n                    \n                    // Dinheiro vai pro membro que ta vendendo\n                    members[i].wallet.transfer(msg.value);\n                }\n            }\n        }\n    }\n    \n    function sellMembership () public {\n        for (uint i = 0; i < members.length; i++) {\n            if (members[i].wallet == msg.sender) {\n                members[i].isSellingMembership = true;\n            }\n        }\n        \n    }\n    \n    //////////////// SIMPLE GETTERS ////////////////\n\n    function getQuantityPollBottomLimit (uint pollIndex) public view returns (uint) {\n        return quantityPolls[pollIndex].bottomLimit;\n    }\n\n    function getQuantityPollTopLimit (uint pollIndex) public view returns (uint) {\n        return quantityPolls[pollIndex].topLimit;\n    }\n    \n    function getBooleanPoll (uint pollIndex) public view returns (BooleanPoll memory) {\n        return booleanPolls[pollIndex];\n    }\n    \n    function getQuantityPoll (uint pollIndex) public view returns (QuantityPoll memory) {\n        return quantityPolls[pollIndex];\n    }\n    \n    function getOptionsPoll (uint pollIndex) public view returns (OptionsPoll memory) {\n        return optionsPolls[pollIndex];\n    }\n    \n    function getBooleanPollVotes (uint pollIndex) public view returns (BooleanVote[] memory) {\n        return booleanPollsVotes[pollIndex];\n    }\n    \n    function getQuantityPollVotes (uint pollIndex) public view returns (QuantityVote[] memory) {\n        return quantityPollsVotes[pollIndex];\n    }\n    \n    function getOptionsPollVotes (uint pollIndex) public view returns (OptionVote[] memory) {\n        return optionsPollsVotes[pollIndex];\n    }\n    \n    function getMember (uint memberIndex) public view returns (Member memory) {\n        return members[memberIndex];\n    }\n    \n    function getMember (address memberAddress) public view returns (Member memory) {\n        for (uint i = 0; i < members.length; i++) {\n            if (members[i].wallet == memberAddress) {\n                return members[i];\n            }\n        }\n    }\n    \n    function getMembers () public view returns (Member[] memory) {\n        return members;\n    }\n    \n    function getMembershipPrice() public pure returns (uint) {\n        return MEMBERSHIP_PRICE_IN_WEI;\n    }\n    \n    ///// FUNCOES QUE BUGAM NO REMIX IDE SEM ENABLE OPTIMIZATION //////\n    \n    function getBooleanPollSubject (uint pollIndex) public view returns (string memory) {\n        return booleanPolls[pollIndex].subject;\n    }\n    \n    function getQuantityPollSubject (uint pollIndex) public view returns (string memory) {\n        return quantityPolls[pollIndex].subject;\n    }\n    \n    function getOptionsPollSubject (uint pollIndex) public view returns (string memory) {\n        return optionsPolls[pollIndex].subject;\n    }\n    \n    function getBooleanPollVotesCount (uint pollIndex) public view returns (uint) {\n        return booleanPollsVotes[pollIndex].length;\n    }\n    \n    function getQuantityPollVotesCount (uint pollIndex) public view returns (uint) {\n        return quantityPollsVotes[pollIndex].length;\n    }\n    \n    function getOptionsPollVotesCount (uint pollIndex) public view returns (uint) {\n        return optionsPollsVotes[pollIndex].length;\n    }\n    \n    //////////////// PRIVATE FUNCTIONS ////////////////\n    \n    function stringsAreEqual (string memory a, string memory b) private pure returns (bool) {\n        return (keccak256(abi.encodePacked((a))) == keccak256(abi.encodePacked((b))) );\n    }\n    \n    function alreadyVotedOnBooleanPoll (address memberAddress, uint pollIndex) private view returns (bool) {\n        for (uint i = 0; i < booleanPollsVotes[pollIndex].length; i++) {\n            if (memberAddress == booleanPollsVotes[pollIndex][i].owner) {\n                return true;\n            }\n        }\n        return false;\n    }\n    \n    function alreadyVotedOnQuantityPoll (address memberAddress, uint pollIndex) private view returns (bool) {\n        for (uint i = 0; i < quantityPollsVotes[pollIndex].length; i++) {\n            if (memberAddress == quantityPollsVotes[pollIndex][i].owner) {\n                return true;\n            }\n        }\n        return false;\n    }\n    \n    function alreadyVotedOnOptionsPoll (address memberAddress, uint pollIndex) private view returns (bool) {\n        for (uint i = 0; i < optionsPollsVotes[pollIndex].length; i++) {\n            if (memberAddress == optionsPollsVotes[pollIndex][i].owner) {\n                return true;\n            }\n        }\n        return false;\n    }\n}",
  "sourcePath": "/home/hugo/Documents/inf1305-dap/contracts/Chainclub.sol",
  "compiler": {
    "name": "solc",
    "version": "0.5.8+commit.23d335f2.Emscripten.clang"
  },
  "schemaVersion": "3.0.16",
  "updatedAt": "2019-12-06T04:38:15.322Z",
  "devdoc": {
    "methods": {}
  },
  "userdoc": {
    "methods": {
      "getBooleanPollSubject(uint256)": {
        "notice": "// FUNCOES QUE BUGAM NO REMIX IDE SEM ENABLE OPTIMIZATION //////"
      },
      "getQuantityPollBottomLimit(uint256)": {
        "notice": "///////////// SIMPLE GETTERS ////////////////"
      }
    }
  }
}