{
  "contractName": "Chainclub",
  "abi": [
    {
      "inputs": [
        {
          "internalType": "string",
          "name": "yourFullName",
          "type": "string"
        }
      ],
      "payable": true,
      "stateMutability": "payable",
      "type": "constructor"
    },
    {
      "constant": false,
      "inputs": [
        {
          "internalType": "string",
          "name": "pollSubject",
          "type": "string"
        }
      ],
      "name": "startBooleanPoll",
      "outputs": [],
      "payable": false,
      "stateMutability": "nonpayable",
      "type": "function"
    },
    {
      "constant": false,
      "inputs": [
        {
          "internalType": "string",
          "name": "pollSubject",
          "type": "string"
        },
        {
          "internalType": "uint256",
          "name": "bottomLimit",
          "type": "uint256"
        },
        {
          "internalType": "uint256",
          "name": "topLimit",
          "type": "uint256"
        }
      ],
      "name": "startQuantityPoll",
      "outputs": [],
      "payable": false,
      "stateMutability": "nonpayable",
      "type": "function"
    },
    {
      "constant": false,
      "inputs": [
        {
          "internalType": "string",
          "name": "pollSubject",
          "type": "string"
        },
        {
          "internalType": "string[]",
          "name": "options",
          "type": "string[]"
        }
      ],
      "name": "startOptionsPoll",
      "outputs": [],
      "payable": false,
      "stateMutability": "nonpayable",
      "type": "function"
    },
    {
      "constant": false,
      "inputs": [
        {
          "internalType": "uint256",
          "name": "pollIndex",
          "type": "uint256"
        },
        {
          "internalType": "bool",
          "name": "boolean",
          "type": "bool"
        }
      ],
      "name": "voteOnBooleanPool",
      "outputs": [],
      "payable": false,
      "stateMutability": "nonpayable",
      "type": "function"
    },
    {
      "constant": false,
      "inputs": [
        {
          "internalType": "uint256",
          "name": "pollIndex",
          "type": "uint256"
        },
        {
          "internalType": "uint256",
          "name": "quantity",
          "type": "uint256"
        }
      ],
      "name": "voteOnQuantityPool",
      "outputs": [],
      "payable": false,
      "stateMutability": "nonpayable",
      "type": "function"
    },
    {
      "constant": false,
      "inputs": [
        {
          "internalType": "uint256",
          "name": "pollIndex",
          "type": "uint256"
        },
        {
          "internalType": "uint256",
          "name": "option",
          "type": "uint256"
        }
      ],
      "name": "voteOnOptionPool",
      "outputs": [],
      "payable": false,
      "stateMutability": "nonpayable",
      "type": "function"
    },
    {
      "constant": false,
      "inputs": [
        {
          "internalType": "string",
          "name": "buyerName",
          "type": "string"
        }
      ],
      "name": "buyMembership",
      "outputs": [],
      "payable": true,
      "stateMutability": "payable",
      "type": "function"
    },
    {
      "constant": false,
      "inputs": [],
      "name": "sellMembership",
      "outputs": [],
      "payable": false,
      "stateMutability": "nonpayable",
      "type": "function"
    },
    {
      "constant": false,
      "inputs": [
        {
          "internalType": "address[3]",
          "name": "newVisitors",
          "type": "address[3]"
        }
      ],
      "name": "enterInClub",
      "outputs": [],
      "payable": false,
      "stateMutability": "nonpayable",
      "type": "function"
    },
    {
      "constant": false,
      "inputs": [],
      "name": "leaveTheClub",
      "outputs": [],
      "payable": false,
      "stateMutability": "nonpayable",
      "type": "function"
    },
    {
      "constant": true,
      "inputs": [
        {
          "internalType": "uint256",
          "name": "pollIndex",
          "type": "uint256"
        }
      ],
      "name": "getQuantityPollBottomLimit",
      "outputs": [
        {
          "internalType": "uint256",
          "name": "",
          "type": "uint256"
        }
      ],
      "payable": false,
      "stateMutability": "view",
      "type": "function"
    },
    {
      "constant": true,
      "inputs": [
        {
          "internalType": "uint256",
          "name": "pollIndex",
          "type": "uint256"
        }
      ],
      "name": "getQuantityPollTopLimit",
      "outputs": [
        {
          "internalType": "uint256",
          "name": "",
          "type": "uint256"
        }
      ],
      "payable": false,
      "stateMutability": "view",
      "type": "function"
    },
    {
      "constant": true,
      "inputs": [
        {
          "internalType": "uint256",
          "name": "pollIndex",
          "type": "uint256"
        }
      ],
      "name": "getBooleanPoll",
      "outputs": [
        {
          "components": [
            {
              "internalType": "uint256",
              "name": "pollIndex",
              "type": "uint256"
            },
            {
              "internalType": "string",
              "name": "subject",
              "type": "string"
            }
          ],
          "internalType": "struct Chainclub.BooleanPoll",
          "name": "",
          "type": "tuple"
        }
      ],
      "payable": false,
      "stateMutability": "view",
      "type": "function"
    },
    {
      "constant": true,
      "inputs": [
        {
          "internalType": "uint256",
          "name": "pollIndex",
          "type": "uint256"
        }
      ],
      "name": "getQuantityPoll",
      "outputs": [
        {
          "components": [
            {
              "internalType": "uint256",
              "name": "pollIndex",
              "type": "uint256"
            },
            {
              "internalType": "string",
              "name": "subject",
              "type": "string"
            },
            {
              "internalType": "uint256",
              "name": "bottomLimit",
              "type": "uint256"
            },
            {
              "internalType": "uint256",
              "name": "topLimit",
              "type": "uint256"
            }
          ],
          "internalType": "struct Chainclub.QuantityPoll",
          "name": "",
          "type": "tuple"
        }
      ],
      "payable": false,
      "stateMutability": "view",
      "type": "function"
    },
    {
      "constant": true,
      "inputs": [
        {
          "internalType": "uint256",
          "name": "pollIndex",
          "type": "uint256"
        }
      ],
      "name": "getOptionsPoll",
      "outputs": [
        {
          "components": [
            {
              "internalType": "uint256",
              "name": "pollIndex",
              "type": "uint256"
            },
            {
              "internalType": "string",
              "name": "subject",
              "type": "string"
            },
            {
              "internalType": "string[]",
              "name": "options",
              "type": "string[]"
            }
          ],
          "internalType": "struct Chainclub.OptionsPoll",
          "name": "",
          "type": "tuple"
        }
      ],
      "payable": false,
      "stateMutability": "view",
      "type": "function"
    },
    {
      "constant": true,
      "inputs": [
        {
          "internalType": "uint256",
          "name": "pollIndex",
          "type": "uint256"
        }
      ],
      "name": "getBooleanPollVotes",
      "outputs": [
        {
          "components": [
            {
              "internalType": "address",
              "name": "owner",
              "type": "address"
            },
            {
              "internalType": "bool",
              "name": "yesOrNo",
              "type": "bool"
            }
          ],
          "internalType": "struct Chainclub.BooleanVote[]",
          "name": "",
          "type": "tuple[]"
        }
      ],
      "payable": false,
      "stateMutability": "view",
      "type": "function"
    },
    {
      "constant": true,
      "inputs": [
        {
          "internalType": "uint256",
          "name": "pollIndex",
          "type": "uint256"
        }
      ],
      "name": "getQuantityPollVotes",
      "outputs": [
        {
          "components": [
            {
              "internalType": "address",
              "name": "owner",
              "type": "address"
            },
            {
              "internalType": "uint256",
              "name": "quantity",
              "type": "uint256"
            }
          ],
          "internalType": "struct Chainclub.QuantityVote[]",
          "name": "",
          "type": "tuple[]"
        }
      ],
      "payable": false,
      "stateMutability": "view",
      "type": "function"
    },
    {
      "constant": true,
      "inputs": [
        {
          "internalType": "uint256",
          "name": "pollIndex",
          "type": "uint256"
        }
      ],
      "name": "getOptionsPollVotes",
      "outputs": [
        {
          "components": [
            {
              "internalType": "address",
              "name": "owner",
              "type": "address"
            },
            {
              "internalType": "uint256",
              "name": "optionIndex",
              "type": "uint256"
            }
          ],
          "internalType": "struct Chainclub.OptionVote[]",
          "name": "",
          "type": "tuple[]"
        }
      ],
      "payable": false,
      "stateMutability": "view",
      "type": "function"
    },
    {
      "constant": true,
      "inputs": [
        {
          "internalType": "address",
          "name": "memberAddress",
          "type": "address"
        }
      ],
      "name": "getMember",
      "outputs": [
        {
          "components": [
            {
              "internalType": "address payable",
              "name": "wallet",
              "type": "address"
            },
            {
              "internalType": "string",
              "name": "name",
              "type": "string"
            },
            {
              "internalType": "bool",
              "name": "paidPendencies",
              "type": "bool"
            },
            {
              "internalType": "bool",
              "name": "isSellingMembership",
              "type": "bool"
            }
          ],
          "internalType": "struct Chainclub.Member",
          "name": "",
          "type": "tuple"
        }
      ],
      "payable": false,
      "stateMutability": "view",
      "type": "function"
    },
    {
      "constant": true,
      "inputs": [
        {
          "internalType": "uint256",
          "name": "memberIndex",
          "type": "uint256"
        }
      ],
      "name": "getMember",
      "outputs": [
        {
          "components": [
            {
              "internalType": "address payable",
              "name": "wallet",
              "type": "address"
            },
            {
              "internalType": "string",
              "name": "name",
              "type": "string"
            },
            {
              "internalType": "bool",
              "name": "paidPendencies",
              "type": "bool"
            },
            {
              "internalType": "bool",
              "name": "isSellingMembership",
              "type": "bool"
            }
          ],
          "internalType": "struct Chainclub.Member",
          "name": "",
          "type": "tuple"
        }
      ],
      "payable": false,
      "stateMutability": "view",
      "type": "function"
    },
    {
      "constant": true,
      "inputs": [],
      "name": "getMembers",
      "outputs": [
        {
          "components": [
            {
              "internalType": "address payable",
              "name": "wallet",
              "type": "address"
            },
            {
              "internalType": "string",
              "name": "name",
              "type": "string"
            },
            {
              "internalType": "bool",
              "name": "paidPendencies",
              "type": "bool"
            },
            {
              "internalType": "bool",
              "name": "isSellingMembership",
              "type": "bool"
            }
          ],
          "internalType": "struct Chainclub.Member[]",
          "name": "",
          "type": "tuple[]"
        }
      ],
      "payable": false,
      "stateMutability": "view",
      "type": "function"
    },
    {
      "constant": true,
      "inputs": [],
      "name": "getMembershipPrice",
      "outputs": [
        {
          "internalType": "uint256",
          "name": "",
          "type": "uint256"
        }
      ],
      "payable": false,
      "stateMutability": "pure",
      "type": "function"
    },
    {
      "constant": true,
      "inputs": [
        {
          "internalType": "uint256",
          "name": "pollIndex",
          "type": "uint256"
        }
      ],
      "name": "getBooleanPollSubject",
      "outputs": [
        {
          "internalType": "string",
          "name": "",
          "type": "string"
        }
      ],
      "payable": false,
      "stateMutability": "view",
      "type": "function"
    },
    {
      "constant": true,
      "inputs": [
        {
          "internalType": "uint256",
          "name": "pollIndex",
          "type": "uint256"
        }
      ],
      "name": "getQuantityPollSubject",
      "outputs": [
        {
          "internalType": "string",
          "name": "",
          "type": "string"
        }
      ],
      "payable": false,
      "stateMutability": "view",
      "type": "function"
    },
    {
      "constant": true,
      "inputs": [
        {
          "internalType": "uint256",
          "name": "pollIndex",
          "type": "uint256"
        }
      ],
      "name": "getOptionsPollSubject",
      "outputs": [
        {
          "internalType": "string",
          "name": "",
          "type": "string"
        }
      ],
      "payable": false,
      "stateMutability": "view",
      "type": "function"
    },
    {
      "constant": true,
      "inputs": [
        {
          "internalType": "uint256",
          "name": "pollIndex",
          "type": "uint256"
        }
      ],
      "name": "getBooleanPollVotesCount",
      "outputs": [
        {
          "internalType": "uint256",
          "name": "",
          "type": "uint256"
        }
      ],
      "payable": false,
      "stateMutability": "view",
      "type": "function"
    },
    {
      "constant": true,
      "inputs": [
        {
          "internalType": "uint256",
          "name": "pollIndex",
          "type": "uint256"
        }
      ],
      "name": "getQuantityPollVotesCount",
      "outputs": [
        {
          "internalType": "uint256",
          "name": "",
          "type": "uint256"
        }
      ],
      "payable": false,
      "stateMutability": "view",
      "type": "function"
    },
    {
      "constant": true,
      "inputs": [
        {
          "internalType": "uint256",
          "name": "pollIndex",
          "type": "uint256"
        }
      ],
      "name": "getOptionsPollVotesCount",
      "outputs": [
        {
          "internalType": "uint256",
          "name": "",
          "type": "uint256"
        }
      ],
      "payable": false,
      "stateMutability": "view",
      "type": "function"
    }
  ],
  "bytecode": "0x60806040526040516200473a3803806200473a83398181016040526200002991908101906200028e565b336000806101000a81548173ffffffffffffffffffffffffffffffffffffffff021916908373ffffffffffffffffffffffffffffffffffffffff160217905550600160405180608001604052803373ffffffffffffffffffffffffffffffffffffffff168152602001838152602001600115158152602001600015158152509080600181540180825580915050906001820390600052602060002090600302016000909192909190915060008201518160000160006101000a81548173ffffffffffffffffffffffffffffffffffffffff021916908373ffffffffffffffffffffffffffffffffffffffff16021790555060208201518160010190805190602001906200013892919062000183565b5060408201518160020160006101000a81548160ff02191690831515021790555060608201518160020160016101000a81548160ff0219169083151502179055505050505062000364565b828054600181600116156101000203166002900490600052602060002090601f016020900481019282601f10620001c657805160ff1916838001178555620001f7565b82800160010185558215620001f7579182015b82811115620001f6578251825591602001919060010190620001d9565b5b5090506200020691906200020a565b5090565b6200022f91905b808211156200022b57600081600090555060010162000211565b5090565b90565b600082601f8301126200024457600080fd5b81516200025b620002558262000301565b620002d3565b915080825260208301602083018583830111156200027857600080fd5b620002858382846200032e565b50505092915050565b600060208284031215620002a157600080fd5b600082015167ffffffffffffffff811115620002bc57600080fd5b620002ca8482850162000232565b91505092915050565b6000604051905081810181811067ffffffffffffffff82111715620002f757600080fd5b8060405250919050565b600067ffffffffffffffff8211156200031957600080fd5b601f19601f8301169050602081019050919050565b60005b838110156200034e57808201518184015260208101905062000331565b838111156200035e576000848401525b50505050565b6143c680620003746000396000f3fe6080604052600436106101b75760003560e01c806393671a95116100ec578063b14e4d161161008a578063dd4f33e611610064578063dd4f33e61461067f578063e24bb956146106a8578063f267efae146106e5578063f2d624071461070e576101b7565b8063b14e4d16146105dc578063ba53e71514610619578063ce5717f214610656576101b7565b8063ab3545e5116100c6578063ab3545e51461050e578063ac9525271461054b578063ad89056714610562578063aeceff6b1461059f576101b7565b806393671a951461047d5780639eab5253146104ba578063a4177cc9146104e5576101b7565b80633e0582c21161015957806352ac34dd1161013357806352ac34dd146103d75780636aefb518146104005780637645154c14610429578063911c810714610466576101b7565b80633e0582c21461034157806344966dc81461037e57806348b98958146103bb576101b7565b80631bcd29f8116101955780631bcd29f81461024d57806327e6af071461028a57806329791e8e146102c75780632ada259614610304576101b7565b80630f43f472146101bc5780631278076a146101e55780631b65db3d14610210575b600080fd5b3480156101c857600080fd5b506101e360048036036101de9190810190613552565b61074b565b005b3480156101f157600080fd5b506101fa61091e565b6040516102079190614047565b60405180910390f35b34801561021c57600080fd5b5061023760048036036102329190810190613625565b61092a565b6040516102449190614047565b60405180910390f35b34801561025957600080fd5b50610274600480360361026f9190810190613625565b61094a565b6040516102819190613e99565b60405180910390f35b34801561029657600080fd5b506102b160048036036102ac9190810190613625565b610a1c565b6040516102be9190614047565b60405180910390f35b3480156102d357600080fd5b506102ee60048036036102e99190810190613625565b610a44565b6040516102fb9190613e55565b60405180910390f35b34801561031057600080fd5b5061032b600480360361032691908101906134bf565b610b23565b6040516103389190613fe1565b60405180910390f35b34801561034d57600080fd5b5061036860048036036103639190810190613625565b610d20565b6040516103759190614003565b60405180910390f35b34801561038a57600080fd5b506103a560048036036103a09190810190613625565b610eea565b6040516103b29190613edd565b60405180910390f35b6103d560048036036103d09190810190613511565b610faa565b005b3480156103e357600080fd5b506103fe60048036036103f9919081019061368a565b611615565b005b34801561040c57600080fd5b506104276004803603610422919081019061364e565b611893565b005b34801561043557600080fd5b50610450600480360361044b9190810190613625565b611a96565b60405161045d9190614047565b60405180910390f35b34801561047257600080fd5b5061047b611ab6565b005b34801561048957600080fd5b506104a4600480360361049f9190810190613625565b611c62565b6040516104b19190613edd565b60405180910390f35b3480156104c657600080fd5b506104cf611d22565b6040516104dc9190613e77565b60405180910390f35b3480156104f157600080fd5b5061050c600480360361050791908101906134e8565b611eaf565b005b34801561051a57600080fd5b5061053560048036036105309190810190613625565b6121b5565b6040516105429190613fe1565b60405180910390f35b34801561055757600080fd5b50610560612318565b005b34801561056e57600080fd5b5061058960048036036105849190810190613625565b6124fa565b6040516105969190614047565b60405180910390f35b3480156105ab57600080fd5b506105c660048036036105c19190810190613625565b612522565b6040516105d39190614047565b60405180910390f35b3480156105e857600080fd5b5061060360048036036105fe9190810190613625565b612542565b6040516106109190614025565b60405180910390f35b34801561062557600080fd5b50610640600480360361063b9190810190613625565b612637565b60405161064d9190613edd565b60405180910390f35b34801561066257600080fd5b5061067d60048036036106789190810190613511565b6126f7565b005b34801561068b57600080fd5b506106a660048036036106a191908101906135be565b6128a6565b005b3480156106b457600080fd5b506106cf60048036036106ca9190810190613625565b612a77565b6040516106dc9190613ebb565b60405180910390f35b3480156106f157600080fd5b5061070c6004803603610707919081019061368a565b612b49565b005b34801561071a57600080fd5b5061073560048036036107309190810190613625565b612d38565b6040516107429190613fbf565b60405180910390f35b33600080905060008090505b6001805490508110156107e8573373ffffffffffffffffffffffffffffffffffffffff166001828154811061078857fe5b906000526020600020906003020160000160009054906101000a900473ffffffffffffffffffffffffffffffffffffffff1673ffffffffffffffffffffffffffffffffffffffff1614156107db57600191505b8080600101915050610757565b5080610829576040517f08c379a000000000000000000000000000000000000000000000000000000000815260040161082090613f5f565b60405180910390fd5b836108438160405180602001604052806000815250612e19565b15610883576040517f08c379a000000000000000000000000000000000000000000000000000000000815260040161087a90613f7f565b60405180910390fd5b60046040518060600160405280600480549050815260200187815260200186815250908060018154018082558091505090600182039060005260206000209060030201600090919290919091506000820151816000015560208201518160010190805190602001906108f69291906130d2565b506040820151816002019080519060200190610913929190613152565b505050505050505050565b6000633b9aca00905090565b600060086000838152602001908152602001600020805490509050919050565b606060076000838152602001908152602001600020805480602002602001604051908101604052809291908181526020016000905b82821015610a1157838290600052602060002090600202016040518060400160405290816000820160009054906101000a900473ffffffffffffffffffffffffffffffffffffffff1673ffffffffffffffffffffffffffffffffffffffff1673ffffffffffffffffffffffffffffffffffffffff1681526020016001820154815250508152602001906001019061097f565b505050509050919050565b600060038281548110610a2b57fe5b9060005260206000209060040201600301549050919050565b606060086000838152602001908152602001600020805480602002602001604051908101604052809291908181526020016000905b82821015610b18578382906000526020600020016040518060400160405290816000820160009054906101000a900473ffffffffffffffffffffffffffffffffffffffff1673ffffffffffffffffffffffffffffffffffffffff1673ffffffffffffffffffffffffffffffffffffffff1681526020016000820160149054906101000a900460ff16151515158152505081526020019060010190610a79565b505050509050919050565b610b2b6131b2565b60008090505b600180549050811015610d19578273ffffffffffffffffffffffffffffffffffffffff1660018281548110610b6257fe5b906000526020600020906003020160000160009054906101000a900473ffffffffffffffffffffffffffffffffffffffff1673ffffffffffffffffffffffffffffffffffffffff161415610d0c5760018181548110610bbd57fe5b90600052602060002090600302016040518060800160405290816000820160009054906101000a900473ffffffffffffffffffffffffffffffffffffffff1673ffffffffffffffffffffffffffffffffffffffff1673ffffffffffffffffffffffffffffffffffffffff168152602001600182018054600181600116156101000203166002900480601f016020809104026020016040519081016040528092919081815260200182805460018160011615610100020316600290048015610cc55780601f10610c9a57610100808354040283529160200191610cc5565b820191906000526020600020905b815481529060010190602001808311610ca857829003601f168201915b505050505081526020016002820160009054906101000a900460ff161515151581526020016002820160019054906101000a900460ff161515151581525050915050610d1b565b8080600101915050610b31565b505b919050565b610d286131f4565b60048281548110610d3557fe5b906000526020600020906003020160405180606001604052908160008201548152602001600182018054600181600116156101000203166002900480601f016020809104026020016040519081016040528092919081815260200182805460018160011615610100020316600290048015610df15780601f10610dc657610100808354040283529160200191610df1565b820191906000526020600020905b815481529060010190602001808311610dd457829003601f168201915b5050505050815260200160028201805480602002602001604051908101604052809291908181526020016000905b82821015610edb578382906000526020600020018054600181600116156101000203166002900480601f016020809104026020016040519081016040528092919081815260200182805460018160011615610100020316600290048015610ec75780601f10610e9c57610100808354040283529160200191610ec7565b820191906000526020600020905b815481529060010190602001808311610eaa57829003601f168201915b505050505081526020019060010190610e1f565b50505050815250509050919050565b606060048281548110610ef957fe5b90600052602060002090600302016001018054600181600116156101000203166002900480601f016020809104026020016040519081016040528092919081815260200182805460018160011615610100020316600290048015610f9e5780601f10610f7357610100808354040283529160200191610f9e565b820191906000526020600020905b815481529060010190602001808311610f8157829003601f168201915b50505050509050919050565b600080905060008090505b6001805490508110156110055760018181548110610fcf57fe5b906000526020600020906003020160020160019054906101000a900460ff1615610ff857600191505b8080600101915050610fb5565b50808061101c57506103e861ffff16600180549050105b61105b576040517f08c379a000000000000000000000000000000000000000000000000000000000815260040161105290613eff565b60405180910390fd5b34633b9aca008110156110a3576040517f08c379a000000000000000000000000000000000000000000000000000000000815260040161109a90613f1f565b60405180910390fd5b6103e861ffff166001805490501015611234576000809054906101000a900473ffffffffffffffffffffffffffffffffffffffff1673ffffffffffffffffffffffffffffffffffffffff166108fc349081150290604051600060405180830381858888f1935050505015801561111d573d6000803e3d6000fd5b50600160405180608001604052803373ffffffffffffffffffffffffffffffffffffffff168152602001858152602001600115158152602001600015158152509080600181540180825580915050906001820390600052602060002090600302016000909192909190915060008201518160000160006101000a81548173ffffffffffffffffffffffffffffffffffffffff021916908373ffffffffffffffffffffffffffffffffffffffff16021790555060208201518160010190805190602001906111eb9291906130d2565b5060408201518160020160006101000a81548160ff02191690831515021790555060608201518160020160016101000a81548160ff021916908315150217905550505050611610565b60008090505b60018054905081101561160e576001818154811061125457fe5b906000526020600020906003020160020160019054906101000a900460ff1680156112e957503373ffffffffffffffffffffffffffffffffffffffff166001828154811061129e57fe5b906000526020600020906003020160000160009054906101000a900473ffffffffffffffffffffffffffffffffffffffff1673ffffffffffffffffffffffffffffffffffffffff1614155b156116015760405180608001604052803373ffffffffffffffffffffffffffffffffffffffff168152602001858152602001600115158152602001600015158152506001828154811061133857fe5b906000526020600020906003020160008201518160000160006101000a81548173ffffffffffffffffffffffffffffffffffffffff021916908373ffffffffffffffffffffffffffffffffffffffff16021790555060208201518160010190805190602001906113a99291906130d2565b5060408201518160020160006101000a81548160ff02191690831515021790555060608201518160020160016101000a81548160ff021916908315150217905550905050600181815481106113fa57fe5b906000526020600020906003020160000160009054906101000a900473ffffffffffffffffffffffffffffffffffffffff1673ffffffffffffffffffffffffffffffffffffffff166108fc349081150290604051600060405180830381858888f19350505050158015611471573d6000803e3d6000fd5b506001818154811061147f57fe5b9060005260206000209060030201600080820160006101000a81549073ffffffffffffffffffffffffffffffffffffffff02191690556001820160006114c59190613215565b6002820160006101000a81549060ff02191690556002820160016101000a81549060ff02191690555050600160405180608001604052803373ffffffffffffffffffffffffffffffffffffffff168152602001868152602001600115158152602001600015158152509080600181540180825580915050906001820390600052602060002090600302016000909192909190915060008201518160000160006101000a81548173ffffffffffffffffffffffffffffffffffffffff021916908373ffffffffffffffffffffffffffffffffffffffff16021790555060208201518160010190805190602001906115bc9291906130d2565b5060408201518160020160006101000a81548160ff02191690831515021790555060608201518160020160016101000a81548160ff0219169083151502179055505050505b808060010191505061123a565b505b505050565b33600080905060008090505b6001805490508110156116b2573373ffffffffffffffffffffffffffffffffffffffff166001828154811061165257fe5b906000526020600020906003020160000160009054906101000a900473ffffffffffffffffffffffffffffffffffffffff1673ffffffffffffffffffffffffffffffffffffffff1614156116a557600191505b8080600101915050611621565b50806116f3576040517f08c379a00000000000000000000000000000000000000000000000000000000081526004016116ea90613f5f565b60405180910390fd5b8383806003838154811061170357fe5b906000526020600020906004020160020154111580156117415750806003838154811061172c57fe5b90600052602060002090600402016003015410155b611780576040517f08c379a000000000000000000000000000000000000000000000000000000000815260040161177790613f9f565b60405180910390fd5b338661178c8282612e72565b156117cc576040517f08c379a00000000000000000000000000000000000000000000000000000000081526004016117c390613f3f565b60405180910390fd5b6006600089815260200190815260200160002060405180604001604052803373ffffffffffffffffffffffffffffffffffffffff168152602001898152509080600181540180825580915050906001820390600052602060002090600202016000909192909190915060008201518160000160006101000a81548173ffffffffffffffffffffffffffffffffffffffff021916908373ffffffffffffffffffffffffffffffffffffffff160217905550602082015181600101555050505050505050505050565b33600080905060008090505b600180549050811015611930573373ffffffffffffffffffffffffffffffffffffffff16600182815481106118d057fe5b906000526020600020906003020160000160009054906101000a900473ffffffffffffffffffffffffffffffffffffffff1673ffffffffffffffffffffffffffffffffffffffff16141561192357600191505b808060010191505061189f565b5080611971576040517f08c379a000000000000000000000000000000000000000000000000000000000815260040161196890613f5f565b60405180910390fd5b338461197d8282612f3e565b156119bd576040517f08c379a00000000000000000000000000000000000000000000000000000000081526004016119b490613f3f565b60405180910390fd5b6008600087815260200190815260200160002060405180604001604052803373ffffffffffffffffffffffffffffffffffffffff16815260200187151581525090806001815401808255809150509060018203906000526020600020016000909192909190915060008201518160000160006101000a81548173ffffffffffffffffffffffffffffffffffffffff021916908373ffffffffffffffffffffffffffffffffffffffff16021790555060208201518160000160146101000a81548160ff021916908315150217905550505050505050505050565b600060066000838152602001908152602001600020805490509050919050565b33600080905060008090505b600180549050811015611b53573373ffffffffffffffffffffffffffffffffffffffff1660018281548110611af357fe5b906000526020600020906003020160000160009054906101000a900473ffffffffffffffffffffffffffffffffffffffff1673ffffffffffffffffffffffffffffffffffffffff161415611b4657600191505b8080600101915050611ac2565b5080611b94576040517f08c379a0000000000000000000000000000000000000000000000000000000008152600401611b8b90613f5f565b60405180910390fd5b60008090505b600180549050811015611c5d573373ffffffffffffffffffffffffffffffffffffffff1660018281548110611bcb57fe5b906000526020600020906003020160000160009054906101000a900473ffffffffffffffffffffffffffffffffffffffff1673ffffffffffffffffffffffffffffffffffffffff161415611c50576001808281548110611c2757fe5b906000526020600020906003020160020160016101000a81548160ff0219169083151502179055505b8080600101915050611b9a565b505050565b606060038281548110611c7157fe5b90600052602060002090600402016001018054600181600116156101000203166002900480601f016020809104026020016040519081016040528092919081815260200182805460018160011615610100020316600290048015611d165780601f10611ceb57610100808354040283529160200191611d16565b820191906000526020600020905b815481529060010190602001808311611cf957829003601f168201915b50505050509050919050565b60606001805480602002602001604051908101604052809291908181526020016000905b82821015611ea657838290600052602060002090600302016040518060800160405290816000820160009054906101000a900473ffffffffffffffffffffffffffffffffffffffff1673ffffffffffffffffffffffffffffffffffffffff1673ffffffffffffffffffffffffffffffffffffffff168152602001600182018054600181600116156101000203166002900480601f016020809104026020016040519081016040528092919081815260200182805460018160011615610100020316600290048015611e585780601f10611e2d57610100808354040283529160200191611e58565b820191906000526020600020905b815481529060010190602001808311611e3b57829003601f168201915b505050505081526020016002820160009054906101000a900460ff161515151581526020016002820160019054906101000a900460ff16151515158152505081526020019060010190611d46565b50505050905090565b33600080905060008090505b600180549050811015611f4c573373ffffffffffffffffffffffffffffffffffffffff1660018281548110611eec57fe5b906000526020600020906003020160000160009054906101000a900473ffffffffffffffffffffffffffffffffffffffff1673ffffffffffffffffffffffffffffffffffffffff161415611f3f57600191505b8080600101915050611ebb565b5080611f8d576040517f08c379a0000000000000000000000000000000000000000000000000000000008152600401611f8490613f5f565b60405180910390fd5b33600080905060008090505b60018054905081101561202a573373ffffffffffffffffffffffffffffffffffffffff1660018281548110611fca57fe5b906000526020600020906003020160000160009054906101000a900473ffffffffffffffffffffffffffffffffffffffff1673ffffffffffffffffffffffffffffffffffffffff16141561201d57600191505b8080600101915050611f99565b508061206b576040517f08c379a000000000000000000000000000000000000000000000000000000000815260040161206290613f5f565b60405180910390fd5b6120736131b2565b61207c33610b23565b90508060400151156121ad5760008090505b60038160ff1610156121ab576040518060400160405280888360ff16600381106120b457fe5b602002015173ffffffffffffffffffffffffffffffffffffffff1681526020013373ffffffffffffffffffffffffffffffffffffffff1681525060028080549050815481106120ff57fe5b906000526020600020906002020160008201518160000160006101000a81548173ffffffffffffffffffffffffffffffffffffffff021916908373ffffffffffffffffffffffffffffffffffffffff16021790555060208201518160010160006101000a81548173ffffffffffffffffffffffffffffffffffffffff021916908373ffffffffffffffffffffffffffffffffffffffff160217905550905050808060010191505061208e565b505b505050505050565b6121bd6131b2565b600182815481106121ca57fe5b90600052602060002090600302016040518060800160405290816000820160009054906101000a900473ffffffffffffffffffffffffffffffffffffffff1673ffffffffffffffffffffffffffffffffffffffff1673ffffffffffffffffffffffffffffffffffffffff168152602001600182018054600181600116156101000203166002900480601f0160208091040260200160405190810160405280929190818152602001828054600181600116156101000203166002900480156122d25780601f106122a7576101008083540402835291602001916122d2565b820191906000526020600020905b8154815290600101906020018083116122b557829003601f168201915b505050505081526020016002820160009054906101000a900460ff161515151581526020016002820160019054906101000a900460ff1615151515815250509050919050565b33600080905060008090505b6001805490508110156123b5573373ffffffffffffffffffffffffffffffffffffffff166001828154811061235557fe5b906000526020600020906003020160000160009054906101000a900473ffffffffffffffffffffffffffffffffffffffff1673ffffffffffffffffffffffffffffffffffffffff1614156123a857600191505b8080600101915050612324565b50806123f6576040517f08c379a00000000000000000000000000000000000000000000000000000000081526004016123ed90613f5f565b60405180910390fd5b60008090505b6002805490508110156124f5573373ffffffffffffffffffffffffffffffffffffffff166002828154811061242d57fe5b906000526020600020906002020160010160009054906101000a900473ffffffffffffffffffffffffffffffffffffffff1673ffffffffffffffffffffffffffffffffffffffff1614156124e8576002818154811061248857fe5b9060005260206000209060020201600080820160006101000a81549073ffffffffffffffffffffffffffffffffffffffff02191690556001820160006101000a81549073ffffffffffffffffffffffffffffffffffffffff021916905550505b80806001019150506123fc565b505050565b60006003828154811061250957fe5b9060005260206000209060040201600201549050919050565b600060076000838152602001908152602001600020805490509050919050565b61254a61325d565b6003828154811061255757fe5b906000526020600020906004020160405180608001604052908160008201548152602001600182018054600181600116156101000203166002900480601f0160208091040260200160405190810160405280929190818152602001828054600181600116156101000203166002900480156126135780601f106125e857610100808354040283529160200191612613565b820191906000526020600020905b8154815290600101906020018083116125f657829003601f168201915b50505050508152602001600282015481526020016003820154815250509050919050565b60606005828154811061264657fe5b90600052602060002090600202016001018054600181600116156101000203166002900480601f0160208091040260200160405190810160405280929190818152602001828054600181600116156101000203166002900480156126eb5780601f106126c0576101008083540402835291602001916126eb565b820191906000526020600020905b8154815290600101906020018083116126ce57829003601f168201915b50505050509050919050565b33600080905060008090505b600180549050811015612794573373ffffffffffffffffffffffffffffffffffffffff166001828154811061273457fe5b906000526020600020906003020160000160009054906101000a900473ffffffffffffffffffffffffffffffffffffffff1673ffffffffffffffffffffffffffffffffffffffff16141561278757600191505b8080600101915050612703565b50806127d5576040517f08c379a00000000000000000000000000000000000000000000000000000000081526004016127cc90613f5f565b60405180910390fd5b826127ef8160405180602001604052806000815250612e19565b1561282f576040517f08c379a000000000000000000000000000000000000000000000000000000000815260040161282690613f7f565b60405180910390fd5b600560405180604001604052806005805490508152602001868152509080600181540180825580915050906001820390600052602060002090600202016000909192909190915060008201518160000155602082015181600101908051906020019061289c9291906130d2565b5050505050505050565b33600080905060008090505b600180549050811015612943573373ffffffffffffffffffffffffffffffffffffffff16600182815481106128e357fe5b906000526020600020906003020160000160009054906101000a900473ffffffffffffffffffffffffffffffffffffffff1673ffffffffffffffffffffffffffffffffffffffff16141561293657600191505b80806001019150506128b2565b5080612984576040517f08c379a000000000000000000000000000000000000000000000000000000000815260040161297b90613f5f565b60405180910390fd5b8461299e8160405180602001604052806000815250612e19565b156129de576040517f08c379a00000000000000000000000000000000000000000000000000000000081526004016129d590613f7f565b60405180910390fd5b6003604051806080016040528060038054905081526020018881526020018781526020018681525090806001815401808255809150509060018203906000526020600020906004020160009091929091909150600082015181600001556020820151816001019080519060200190612a579291906130d2565b506040820151816002015560608201518160030155505050505050505050565b606060066000838152602001908152602001600020805480602002602001604051908101604052809291908181526020016000905b82821015612b3e57838290600052602060002090600202016040518060400160405290816000820160009054906101000a900473ffffffffffffffffffffffffffffffffffffffff1673ffffffffffffffffffffffffffffffffffffffff1673ffffffffffffffffffffffffffffffffffffffff16815260200160018201548152505081526020019060010190612aac565b505050509050919050565b33600080905060008090505b600180549050811015612be6573373ffffffffffffffffffffffffffffffffffffffff1660018281548110612b8657fe5b906000526020600020906003020160000160009054906101000a900473ffffffffffffffffffffffffffffffffffffffff1673ffffffffffffffffffffffffffffffffffffffff161415612bd957600191505b8080600101915050612b55565b5080612c27576040517f08c379a0000000000000000000000000000000000000000000000000000000008152600401612c1e90613f5f565b60405180910390fd5b3384612c338282613006565b15612c73576040517f08c379a0000000000000000000000000000000000000000000000000000000008152600401612c6a90613f3f565b60405180910390fd5b6007600087815260200190815260200160002060405180604001604052803373ffffffffffffffffffffffffffffffffffffffff168152602001878152509080600181540180825580915050906001820390600052602060002090600202016000909192909190915060008201518160000160006101000a81548173ffffffffffffffffffffffffffffffffffffffff021916908373ffffffffffffffffffffffffffffffffffffffff16021790555060208201518160010155505050505050505050565b612d40613285565b60058281548110612d4d57fe5b906000526020600020906002020160405180604001604052908160008201548152602001600182018054600181600116156101000203166002900480601f016020809104026020016040519081016040528092919081815260200182805460018160011615610100020316600290048015612e095780601f10612dde57610100808354040283529160200191612e09565b820191906000526020600020905b815481529060010190602001808311612dec57829003601f168201915b5050505050815250509050919050565b600081604051602001612e2c9190613e3e565b6040516020818303038152906040528051906020012083604051602001612e539190613e3e565b6040516020818303038152906040528051906020012014905092915050565b600080600090505b6006600084815260200190815260200160002080549050811015612f3257600660008481526020019081526020016000208181548110612eb657fe5b906000526020600020906002020160000160009054906101000a900473ffffffffffffffffffffffffffffffffffffffff1673ffffffffffffffffffffffffffffffffffffffff168473ffffffffffffffffffffffffffffffffffffffff161415612f25576001915050612f38565b8080600101915050612e7a565b50600090505b92915050565b600080600090505b6008600084815260200190815260200160002080549050811015612ffa57600860008481526020019081526020016000208181548110612f8257fe5b9060005260206000200160000160009054906101000a900473ffffffffffffffffffffffffffffffffffffffff1673ffffffffffffffffffffffffffffffffffffffff168473ffffffffffffffffffffffffffffffffffffffff161415612fed576001915050613000565b8080600101915050612f46565b50600090505b92915050565b600080600090505b60076000848152602001908152602001600020805490508110156130c65760076000848152602001908152602001600020818154811061304a57fe5b906000526020600020906002020160000160009054906101000a900473ffffffffffffffffffffffffffffffffffffffff1673ffffffffffffffffffffffffffffffffffffffff168473ffffffffffffffffffffffffffffffffffffffff1614156130b95760019150506130cc565b808060010191505061300e565b50600090505b92915050565b828054600181600116156101000203166002900490600052602060002090601f016020900481019282601f1061311357805160ff1916838001178555613141565b82800160010185558215613141579182015b82811115613140578251825591602001919060010190613125565b5b50905061314e919061329f565b5090565b8280548282559060005260206000209081019282156131a1579160200282015b828111156131a05782518290805190602001906131909291906130d2565b5091602001919060010190613172565b5b5090506131ae91906132c4565b5090565b6040518060800160405280600073ffffffffffffffffffffffffffffffffffffffff168152602001606081526020016000151581526020016000151581525090565b60405180606001604052806000815260200160608152602001606081525090565b50805460018160011615610100020316600290046000825580601f1061323b575061325a565b601f016020900490600052602060002090810190613259919061329f565b5b50565b6040518060800160405280600081526020016060815260200160008152602001600081525090565b604051806040016040528060008152602001606081525090565b6132c191905b808211156132bd5760008160009055506001016132a5565b5090565b90565b6132ed91905b808211156132e957600081816132e09190613215565b506001016132ca565b5090565b90565b6000813590506132ff8161433e565b92915050565b600082601f83011261331657600080fd5b60036133296133248261408f565b614062565b9150818385602084028201111561333f57600080fd5b60005b8381101561336f578161335588826132f0565b845260208401935060208301925050600181019050613342565b5050505092915050565b600082601f83011261338a57600080fd5b813561339d613398826140b1565b614062565b9150818183526020840193506020810190508360005b838110156133e357813586016133c98882613402565b8452602084019350602083019250506001810190506133b3565b5050505092915050565b6000813590506133fc81614355565b92915050565b600082601f83011261341357600080fd5b8135613426613421826140d9565b614062565b9150808252602083016020830185838301111561344257600080fd5b61344d8382846142eb565b50505092915050565b600082601f83011261346757600080fd5b813561347a61347582614105565b614062565b9150808252602083016020830185838301111561349657600080fd5b6134a18382846142eb565b50505092915050565b6000813590506134b98161436c565b92915050565b6000602082840312156134d157600080fd5b60006134df848285016132f0565b91505092915050565b6000606082840312156134fa57600080fd5b600061350884828501613305565b91505092915050565b60006020828403121561352357600080fd5b600082013567ffffffffffffffff81111561353d57600080fd5b61354984828501613456565b91505092915050565b6000806040838503121561356557600080fd5b600083013567ffffffffffffffff81111561357f57600080fd5b61358b85828601613456565b925050602083013567ffffffffffffffff8111156135a857600080fd5b6135b485828601613379565b9150509250929050565b6000806000606084860312156135d357600080fd5b600084013567ffffffffffffffff8111156135ed57600080fd5b6135f986828701613456565b935050602061360a868287016134aa565b925050604061361b868287016134aa565b9150509250925092565b60006020828403121561363757600080fd5b6000613645848285016134aa565b91505092915050565b6000806040838503121561366157600080fd5b600061366f858286016134aa565b9250506020613680858286016133ed565b9150509250929050565b6000806040838503121561369d57600080fd5b60006136ab858286016134aa565b92505060206136bc858286016134aa565b9150509250929050565b60006136d283836139d1565b905092915050565b60006136e68383613c13565b60408301905092915050565b60006136fe8383613ca5565b905092915050565b60006137128383613d08565b60408301905092915050565b600061372a8383613df1565b60408301905092915050565b61373f816142a3565b82525050565b61374e81614291565b82525050565b600061375f82614181565b613769818561420f565b93508360208202850161377b85614131565b8060005b858110156137b7578484038952815161379885826136c6565b94506137a3836141ce565b925060208a0199505060018101905061377f565b50829750879550505050505092915050565b60006137d48261418c565b6137de8185614220565b93506137e983614141565b8060005b8381101561381a57815161380188826136da565b975061380c836141db565b9250506001810190506137ed565b5085935050505092915050565b600061383282614197565b61383c8185614231565b93508360208202850161384e85614151565b8060005b8581101561388a578484038952815161386b85826136f2565b9450613876836141e8565b925060208a01995050600181019050613852565b50829750879550505050505092915050565b60006138a7826141a2565b6138b18185614242565b93506138bc83614161565b8060005b838110156138ed5781516138d48882613706565b97506138df836141f5565b9250506001810190506138c0565b5085935050505092915050565b6000613905826141ad565b61390f8185614253565b935061391a83614171565b8060005b8381101561394b578151613932888261371e565b975061393d83614202565b92505060018101905061391e565b5085935050505092915050565b613961816142b5565b82525050565b6000613972826141c3565b61397c8185614275565b935061398c8185602086016142fa565b6139958161432d565b840191505092915050565b60006139ab826141c3565b6139b58185614286565b93506139c58185602086016142fa565b80840191505092915050565b60006139dc826141b8565b6139e68185614264565b93506139f68185602086016142fa565b6139ff8161432d565b840191505092915050565b6000613a17602783614275565b91507f536f727279206275742077652063616e277420616363657074206d6f7265206d60008301527f656d626572732e000000000000000000000000000000000000000000000000006020830152604082019050919050565b6000613a7d602b83614275565b91507f596f75206e65656420313030303030303030302077656920746f206265636f6d60008301527f652061206d656d6265722e0000000000000000000000000000000000000000006020830152604082019050919050565b6000613ae3601c83614275565b91507f596f7520616c726561647920766f746564207468697320706f6c6c2e000000006000830152602082019050919050565b6000613b23601583614275565b91507f596f7520617265206e6f742061206d656d6265722e00000000000000000000006000830152602082019050919050565b6000613b63601683614275565b91507f506f6c6c207375626a65637420697320656d7074792e000000000000000000006000830152602082019050919050565b6000613ba3601783614275565b91507f56616c7565206973206f7574206f6620626f756e64732e0000000000000000006000830152602082019050919050565b6000604083016000830151613bee6000860182613e20565b5060208301518482036020860152613c0682826139d1565b9150508091505092915050565b604082016000820151613c296000850182613745565b506020820151613c3c6020850182613958565b50505050565b6000608083016000830151613c5a6000860182613736565b5060208301518482036020860152613c7282826139d1565b9150506040830151613c876040860182613958565b506060830151613c9a6060860182613958565b508091505092915050565b6000608083016000830151613cbd6000860182613736565b5060208301518482036020860152613cd582826139d1565b9150506040830151613cea6040860182613958565b506060830151613cfd6060860182613958565b508091505092915050565b604082016000820151613d1e6000850182613745565b506020820151613d316020850182613e20565b50505050565b6000606083016000830151613d4f6000860182613e20565b5060208301518482036020860152613d6782826139d1565b91505060408301518482036040860152613d818282613754565b9150508091505092915050565b6000608083016000830151613da66000860182613e20565b5060208301518482036020860152613dbe82826139d1565b9150506040830151613dd36040860182613e20565b506060830151613de66060860182613e20565b508091505092915050565b604082016000820151613e076000850182613745565b506020820151613e1a6020850182613e20565b50505050565b613e29816142e1565b82525050565b613e38816142e1565b82525050565b6000613e4a82846139a0565b915081905092915050565b60006020820190508181036000830152613e6f81846137c9565b905092915050565b60006020820190508181036000830152613e918184613827565b905092915050565b60006020820190508181036000830152613eb3818461389c565b905092915050565b60006020820190508181036000830152613ed581846138fa565b905092915050565b60006020820190508181036000830152613ef78184613967565b905092915050565b60006020820190508181036000830152613f1881613a0a565b9050919050565b60006020820190508181036000830152613f3881613a70565b9050919050565b60006020820190508181036000830152613f5881613ad6565b9050919050565b60006020820190508181036000830152613f7881613b16565b9050919050565b60006020820190508181036000830152613f9881613b56565b9050919050565b60006020820190508181036000830152613fb881613b96565b9050919050565b60006020820190508181036000830152613fd98184613bd6565b905092915050565b60006020820190508181036000830152613ffb8184613c42565b905092915050565b6000602082019050818103600083015261401d8184613d37565b905092915050565b6000602082019050818103600083015261403f8184613d8e565b905092915050565b600060208201905061405c6000830184613e2f565b92915050565b6000604051905081810181811067ffffffffffffffff8211171561408557600080fd5b8060405250919050565b600067ffffffffffffffff8211156140a657600080fd5b602082029050919050565b600067ffffffffffffffff8211156140c857600080fd5b602082029050602081019050919050565b600067ffffffffffffffff8211156140f057600080fd5b601f19601f8301169050602081019050919050565b600067ffffffffffffffff82111561411c57600080fd5b601f19601f8301169050602081019050919050565b6000819050602082019050919050565b6000819050602082019050919050565b6000819050602082019050919050565b6000819050602082019050919050565b6000819050602082019050919050565b600081519050919050565b600081519050919050565b600081519050919050565b600081519050919050565b600081519050919050565b600081519050919050565b600081519050919050565b6000602082019050919050565b6000602082019050919050565b6000602082019050919050565b6000602082019050919050565b6000602082019050919050565b600082825260208201905092915050565b600082825260208201905092915050565b600082825260208201905092915050565b600082825260208201905092915050565b600082825260208201905092915050565b600082825260208201905092915050565b600082825260208201905092915050565b600081905092915050565b600061429c826142c1565b9050919050565b60006142ae826142c1565b9050919050565b60008115159050919050565b600073ffffffffffffffffffffffffffffffffffffffff82169050919050565b6000819050919050565b82818337600083830152505050565b60005b838110156143185780820151818401526020810190506142fd565b83811115614327576000848401525b50505050565b6000601f19601f8301169050919050565b61434781614291565b811461435257600080fd5b50565b61435e816142b5565b811461436957600080fd5b50565b614375816142e1565b811461438057600080fd5b5056fea365627a7a72315820c23da6b58e277fc6e701083b94d35a4173cc1bd919af11f57b6bb0b1ce25a2ae6c6578706572696d656e74616cf564736f6c634300050c0040",
  "source": "pragma solidity >=0.4.22 <0.6.0;\npragma experimental ABIEncoderV2;\n\ncontract Chainclub {\n\n    uint16 constant MAX_MEMBERS = 1000;\n    uint constant MEMBERSHIP_PRICE_IN_WEI = 1000000000;\n\n    struct Member {\n        address payable wallet;\n        string name;\n        bool paidPendencies;\n        bool isSellingMembership;\n    }\n\n    struct Visitor {\n        address wallet;\n        address memberResponsible;\n    }\n\n    struct BooleanPoll {\n        uint pollIndex;\n        string subject;     // Ex: Vamos investir em algo para o clube?\n    }\n\n    struct OptionsPoll {\n        uint pollIndex;\n        string subject;     // Ex: No que vamos investir?\n        string[] options;   // \"Piscina de ondas\", \"Pista de corrida\", \"Torre de bung jump\"\n    }\n\n    struct QuantityPoll {\n        uint pollIndex;\n        string subject;     // Ex: Quantos reais gastaremos no nosso novo investimento?\n        uint bottomLimit;   // R$   100.000,00\n        uint topLimit;      // R$ 5.000.000,00\n    }\n\n    struct BooleanVote {\n        address owner;\n        bool yesOrNo;\n    }\n\n    struct OptionVote {\n        address owner;\n        uint optionIndex;\n    }\n\n    struct QuantityVote {\n        address owner;\n        uint quantity;\n    }\n\n    modifier didNotVoteOnBooleanPoll(address memberAddress, uint pollIndex) {\n        require(!alreadyVotedOnBooleanPoll(memberAddress, pollIndex),\n        \"You already voted this poll.\"); _;\n    }\n\n    modifier didNotVoteOnQuantityPoll(address memberAddress, uint pollIndex) {\n        require(!alreadyVotedOnQuantityPoll(memberAddress, pollIndex),\n        \"You already voted this poll.\"); _;\n    }\n\n    modifier didNotVoteOnOptionsPoll(address memberAddress, uint pollIndex) {\n        require(!alreadyVotedOnOptionsPoll(memberAddress, pollIndex),\n        \"You already voted this poll.\"); _;\n    }\n\n    modifier isNotEmpty(string memory pollSubject) {\n        require(!stringsAreEqual(pollSubject, \"\"),\n        \"Poll subject is empty.\"); _;\n    }\n\n    modifier moneyIsEnough(uint value) {\n        require(value >= MEMBERSHIP_PRICE_IN_WEI,\n        \"You need 1000000000 wei to become a member.\"); _;\n    }\n\n    modifier clubIsAcceptingMembers() {\n        bool _someoneIsSelling = false;\n        for (uint i = 0; i < members.length; i++) {\n            if (members[i].isSellingMembership) {\n                _someoneIsSelling = true;\n            }\n        }\n        require(_someoneIsSelling || members.length < MAX_MEMBERS,\n        \"Sorry but we can't accept more members.\"); _;\n    }\n\n    modifier isOnLimit(uint pollIndex, uint quantity) {\n        require (quantityPolls[pollIndex].bottomLimit <= quantity && quantityPolls[pollIndex].topLimit >= quantity,\n        \"Value is out of bounds.\"); _;\n    }\n\n    modifier isMember(address addr) {\n        bool boolean = false;\n        for (uint i = 0; i < members.length; i++) {\n            if (members[i].wallet == msg.sender) {\n                boolean = true;\n            }\n        }\n        require(boolean,\n        \"You are not a member.\"); _;\n    }\n\n    address payable contractOwner;\n\n    Member[] members;   // guarda todos membros\n    Visitor[] visitors; // guarda todos visitantes\n\n    QuantityPoll[] quantityPolls;       // guarda todas enquetes de quantidade\n    OptionsPoll[] optionsPolls;         // guarda todas enquetes de opes\n    BooleanPoll[] booleanPolls;         // guarda todas enquetes de sim / nao\n\n    mapping (uint => QuantityVote[]) quantityPollsVotes;    // d o ndice da enquete e recebe um array de votos\n    mapping (uint => OptionVote[]) optionsPollsVotes;       // d o ndice da enquete e recebe um array de votos\n    mapping (uint => BooleanVote[]) booleanPollsVotes;      // d o ndice da enquete e recebe um array de votos\n\n    constructor(string memory yourFullName) public payable {\n        contractOwner = msg.sender;\n        members.push(\n            Member(\n                msg.sender, yourFullName, true, false\n            )\n        );\n    }\n\n    function startBooleanPoll (string memory pollSubject) public\n    isMember(msg.sender) isNotEmpty(pollSubject) {\n        booleanPolls.push(\n            BooleanPoll(\n                booleanPolls.length, pollSubject\n            )\n        );\n    }\n\n    function startQuantityPoll (string memory pollSubject, uint bottomLimit, uint topLimit) public\n    isMember(msg.sender) isNotEmpty(pollSubject) {\n        quantityPolls.push(\n            QuantityPoll(\n                quantityPolls.length, pollSubject, bottomLimit, topLimit\n            )\n        );\n    }\n\n    function startOptionsPoll (string memory pollSubject, string[] memory options) public\n    isMember(msg.sender) isNotEmpty(pollSubject) {\n        optionsPolls.push(\n            OptionsPoll(\n                optionsPolls.length, pollSubject, options\n            )\n        );\n    }\n\n    function voteOnBooleanPool(uint pollIndex, bool boolean) public\n    isMember(msg.sender) didNotVoteOnBooleanPoll(msg.sender, pollIndex) {\n        booleanPollsVotes[pollIndex].push(\n            BooleanVote(\n                msg.sender, boolean\n            )\n        );\n    }\n\n    function voteOnQuantityPool(uint pollIndex, uint quantity) public\n    isMember(msg.sender) isOnLimit(pollIndex, quantity) didNotVoteOnQuantityPoll(msg.sender, pollIndex) {\n        quantityPollsVotes[pollIndex].push(\n            QuantityVote(\n                msg.sender, quantity\n            )\n        );\n    }\n\n    function voteOnOptionPool(uint pollIndex, uint option) public\n    isMember(msg.sender) didNotVoteOnOptionsPoll(msg.sender, pollIndex) {\n        optionsPollsVotes[pollIndex].push(\n            OptionVote(\n                msg.sender, option\n            )\n        );\n    }\n\n    function buyMembership(string memory buyerName) public payable\n    clubIsAcceptingMembers() moneyIsEnough(msg.value) {\n        if (members.length < MAX_MEMBERS) {  // Dinheiro vai pro fundador\n            contractOwner.transfer(msg.value);\n            members.push(\n                Member(\n                    msg.sender, buyerName, true, false\n                )\n            );\n        }\n        else { // Procura membro que esteja vendendo\n            for (uint i = 0; i < members.length; i++) {\n                if (members[i].isSellingMembership && members[i].wallet != msg.sender) {\n                    members[i] = Member(\n                        msg.sender, buyerName, true, false\n                    );\n                    members[i].wallet.transfer(msg.value); // Dinheiro vai pro membro que ta vendendo\n                    delete members[i]; // Remove o membro que vendeu\n                    members.push(\n                        Member(\n                            msg.sender, buyerName, true, false\n                        )\n                    );\n                }\n            }\n        }\n    }\n\n    function sellMembership () public\n    isMember(msg.sender) {\n        for (uint i = 0; i < members.length; i++) {\n            if (members[i].wallet == msg.sender) {\n                members[i].isSellingMembership = true;\n            }\n        }\n    }\n\n    function enterInClub(address[3] memory newVisitors) public isMember(msg.sender)\n    isMember(msg.sender) {\n        Member memory _msgSender = getMember(msg.sender);\n        if (_msgSender.paidPendencies) {\n            for (uint8 i = 0; i < newVisitors.length; i++) {\n                visitors[visitors.length] = Visitor(newVisitors[i], msg.sender);\n            }\n        }\n    }\n\n    function leaveTheClub() public\n    isMember(msg.sender) {\n        for (uint i = 0; i < visitors.length; i++) {\n            if (visitors[i].memberResponsible == msg.sender) {\n                delete visitors[i];\n            }\n        }\n    }\n\n    //////////////// SIMPLE GETTERS ////////////////\n\n    function getQuantityPollBottomLimit (uint pollIndex) public view returns (uint) {\n        return quantityPolls[pollIndex].bottomLimit;\n    }\n\n    function getQuantityPollTopLimit (uint pollIndex) public view returns (uint) {\n        return quantityPolls[pollIndex].topLimit;\n    }\n\n    function getBooleanPoll (uint pollIndex) public view returns (BooleanPoll memory) {\n        return booleanPolls[pollIndex];\n    }\n\n    function getQuantityPoll (uint pollIndex) public view returns (QuantityPoll memory) {\n        return quantityPolls[pollIndex];\n    }\n\n    function getOptionsPoll (uint pollIndex) public view returns (OptionsPoll memory) {\n        return optionsPolls[pollIndex];\n    }\n\n    function getBooleanPollVotes (uint pollIndex) public view returns (BooleanVote[] memory) {\n        return booleanPollsVotes[pollIndex];\n    }\n\n    function getQuantityPollVotes (uint pollIndex) public view returns (QuantityVote[] memory) {\n        return quantityPollsVotes[pollIndex];\n    }\n\n    function getOptionsPollVotes (uint pollIndex) public view returns (OptionVote[] memory) {\n        return optionsPollsVotes[pollIndex];\n    }\n\n    function getMember (uint memberIndex) public view returns (Member memory) {\n        return members[memberIndex];\n    }\n\n    function getMember (address memberAddress) public view returns (Member memory) {\n        for (uint i = 0; i < members.length; i++) {\n            if (members[i].wallet == memberAddress) {\n                return members[i];\n            }\n        }\n    }\n\n    function getMembers () public view returns (Member[] memory) {\n        return members;\n    }\n\n    function getMembershipPrice() public pure returns (uint) {\n        return MEMBERSHIP_PRICE_IN_WEI;\n    }\n\n    function getBooleanPollSubject (uint pollIndex) public view returns (string memory) {\n        return booleanPolls[pollIndex].subject;\n    }\n\n    function getQuantityPollSubject (uint pollIndex) public view returns (string memory) {\n        return quantityPolls[pollIndex].subject;\n    }\n\n    function getOptionsPollSubject (uint pollIndex) public view returns (string memory) {\n        return optionsPolls[pollIndex].subject;\n    }\n\n    function getBooleanPollVotesCount (uint pollIndex) public view returns (uint) {\n        return booleanPollsVotes[pollIndex].length;\n    }\n\n    function getQuantityPollVotesCount (uint pollIndex) public view returns (uint) {\n        return quantityPollsVotes[pollIndex].length;\n    }\n\n    function getOptionsPollVotesCount (uint pollIndex) public view returns (uint) {\n        return optionsPollsVotes[pollIndex].length;\n    }\n\n    //////////////// PRIVATE FUNCTIONS ////////////////\n\n    function stringsAreEqual (string memory a, string memory b) private pure returns (bool) {\n        return (keccak256(abi.encodePacked((a))) == keccak256(abi.encodePacked((b))) );\n    }\n\n    function alreadyVotedOnBooleanPoll (address memberAddress, uint pollIndex) private view returns (bool) {\n        for (uint i = 0; i < booleanPollsVotes[pollIndex].length; i++) {\n            if (memberAddress == booleanPollsVotes[pollIndex][i].owner) {\n                return true;\n            }\n        }\n        return false;\n    }\n\n    function alreadyVotedOnQuantityPoll (address memberAddress, uint pollIndex) private view returns (bool) {\n        for (uint i = 0; i < quantityPollsVotes[pollIndex].length; i++) {\n            if (memberAddress == quantityPollsVotes[pollIndex][i].owner) {\n                return true;\n            }\n        }\n        return false;\n    }\n\n    function alreadyVotedOnOptionsPoll (address memberAddress, uint pollIndex) private view returns (bool) {\n        for (uint i = 0; i < optionsPollsVotes[pollIndex].length; i++) {\n            if (memberAddress == optionsPollsVotes[pollIndex][i].owner) {\n                return true;\n            }\n        }\n        return false;\n    }\n}",
  "sourcePath": "/home/rodrigo.pumar/Documents/faculdade/inf1305-dap/contracts/Chainclub.sol",
  "compiler": {
    "name": "solc",
    "version": "0.5.12+commit.7709ece9.Emscripten.clang"
  },
  "schemaVersion": "3.0.19",
  "updatedAt": "2019-12-11T17:16:50.746Z",
  "networkType": "ethereum",
  "devdoc": {
    "methods": {}
  },
  "userdoc": {
    "methods": {
      "getQuantityPollBottomLimit(uint256)": {
        "notice": "///////////// SIMPLE GETTERS ////////////////"
      }
    }
  }
}