{
  "contractName": "Chainclub",
  "abi": [
    {
      "inputs": [
        {
          "internalType": "uint8",
          "name": "administratorsCount",
          "type": "uint8"
        },
        {
          "components": [
            {
              "internalType": "uint256",
              "name": "index",
              "type": "uint256"
            },
            {
              "internalType": "string",
              "name": "cpf",
              "type": "string"
            },
            {
              "internalType": "string",
              "name": "firstName",
              "type": "string"
            },
            {
              "internalType": "string",
              "name": "lastName",
              "type": "string"
            },
            {
              "internalType": "address",
              "name": "wallet",
              "type": "address"
            },
            {
              "internalType": "uint8",
              "name": "access",
              "type": "uint8"
            }
          ],
          "internalType": "struct Chainclub.Member[]",
          "name": "admins",
          "type": "tuple[]"
        }
      ],
      "payable": false,
      "stateMutability": "nonpayable",
      "type": "constructor"
    },
    {
      "constant": false,
      "inputs": [
        {
          "internalType": "uint256",
          "name": "index",
          "type": "uint256"
        },
        {
          "internalType": "uint256",
          "name": "starterIndex",
          "type": "uint256"
        },
        {
          "internalType": "string",
          "name": "pollSubject",
          "type": "string"
        },
        {
          "internalType": "uint256",
          "name": "durationInVotes",
          "type": "uint256"
        },
        {
          "internalType": "uint8",
          "name": "accessNeededToVote",
          "type": "uint8"
        }
      ],
      "name": "startPoll",
      "outputs": [],
      "payable": false,
      "stateMutability": "nonpayable",
      "type": "function"
    },
    {
      "constant": false,
      "inputs": [
        {
          "internalType": "uint256",
          "name": "pollIndex",
          "type": "uint256"
        },
        {
          "internalType": "string",
          "name": "stringParameter",
          "type": "string"
        },
        {
          "internalType": "uint256",
          "name": "numberParameter",
          "type": "uint256"
        }
      ],
      "name": "voteOnPoll",
      "outputs": [],
      "payable": false,
      "stateMutability": "nonpayable",
      "type": "function"
    },
    {
      "constant": false,
      "inputs": [],
      "name": "buyMembership",
      "outputs": [],
      "payable": false,
      "stateMutability": "nonpayable",
      "type": "function"
    },
    {
      "constant": false,
      "inputs": [],
      "name": "sellMembership",
      "outputs": [],
      "payable": false,
      "stateMutability": "nonpayable",
      "type": "function"
    },
    {
      "constant": true,
      "inputs": [
        {
          "internalType": "uint256",
          "name": "pollIndex",
          "type": "uint256"
        }
      ],
      "name": "getPoll",
      "outputs": [
        {
          "components": [
            {
              "internalType": "uint256",
              "name": "index",
              "type": "uint256"
            },
            {
              "internalType": "uint256",
              "name": "starterIndex",
              "type": "uint256"
            },
            {
              "internalType": "string",
              "name": "subject",
              "type": "string"
            },
            {
              "internalType": "uint8",
              "name": "accessNeededToVote",
              "type": "uint8"
            },
            {
              "internalType": "uint256",
              "name": "endInVotesCount",
              "type": "uint256"
            }
          ],
          "internalType": "struct Chainclub.Poll",
          "name": "",
          "type": "tuple"
        }
      ],
      "payable": false,
      "stateMutability": "view",
      "type": "function"
    },
    {
      "constant": true,
      "inputs": [
        {
          "internalType": "uint256",
          "name": "index",
          "type": "uint256"
        }
      ],
      "name": "getPollSubject",
      "outputs": [
        {
          "internalType": "string",
          "name": "",
          "type": "string"
        }
      ],
      "payable": false,
      "stateMutability": "view",
      "type": "function"
    },
    {
      "constant": true,
      "inputs": [
        {
          "internalType": "uint256",
          "name": "pollIndex",
          "type": "uint256"
        }
      ],
      "name": "getPollVotes",
      "outputs": [
        {
          "components": [
            {
              "internalType": "address",
              "name": "ownerAddress",
              "type": "address"
            },
            {
              "internalType": "string",
              "name": "stringParameter",
              "type": "string"
            },
            {
              "internalType": "uint256",
              "name": "numberParameter",
              "type": "uint256"
            }
          ],
          "internalType": "struct Chainclub.Vote[]",
          "name": "",
          "type": "tuple[]"
        }
      ],
      "payable": false,
      "stateMutability": "view",
      "type": "function"
    },
    {
      "constant": true,
      "inputs": [],
      "name": "getPolls",
      "outputs": [
        {
          "components": [
            {
              "internalType": "uint256",
              "name": "index",
              "type": "uint256"
            },
            {
              "internalType": "uint256",
              "name": "starterIndex",
              "type": "uint256"
            },
            {
              "internalType": "string",
              "name": "subject",
              "type": "string"
            },
            {
              "internalType": "uint8",
              "name": "accessNeededToVote",
              "type": "uint8"
            },
            {
              "internalType": "uint256",
              "name": "endInVotesCount",
              "type": "uint256"
            }
          ],
          "internalType": "struct Chainclub.Poll[]",
          "name": "",
          "type": "tuple[]"
        }
      ],
      "payable": false,
      "stateMutability": "view",
      "type": "function"
    },
    {
      "constant": true,
      "inputs": [
        {
          "internalType": "address",
          "name": "memberAddress",
          "type": "address"
        }
      ],
      "name": "getMember",
      "outputs": [
        {
          "components": [
            {
              "internalType": "uint256",
              "name": "index",
              "type": "uint256"
            },
            {
              "internalType": "string",
              "name": "cpf",
              "type": "string"
            },
            {
              "internalType": "string",
              "name": "firstName",
              "type": "string"
            },
            {
              "internalType": "string",
              "name": "lastName",
              "type": "string"
            },
            {
              "internalType": "address",
              "name": "wallet",
              "type": "address"
            },
            {
              "internalType": "uint8",
              "name": "access",
              "type": "uint8"
            }
          ],
          "internalType": "struct Chainclub.Member",
          "name": "",
          "type": "tuple"
        }
      ],
      "payable": false,
      "stateMutability": "view",
      "type": "function"
    },
    {
      "constant": true,
      "inputs": [
        {
          "internalType": "uint256",
          "name": "memberIndex",
          "type": "uint256"
        }
      ],
      "name": "getMember",
      "outputs": [
        {
          "components": [
            {
              "internalType": "uint256",
              "name": "index",
              "type": "uint256"
            },
            {
              "internalType": "string",
              "name": "cpf",
              "type": "string"
            },
            {
              "internalType": "string",
              "name": "firstName",
              "type": "string"
            },
            {
              "internalType": "string",
              "name": "lastName",
              "type": "string"
            },
            {
              "internalType": "address",
              "name": "wallet",
              "type": "address"
            },
            {
              "internalType": "uint8",
              "name": "access",
              "type": "uint8"
            }
          ],
          "internalType": "struct Chainclub.Member",
          "name": "",
          "type": "tuple"
        }
      ],
      "payable": false,
      "stateMutability": "view",
      "type": "function"
    },
    {
      "constant": true,
      "inputs": [],
      "name": "getMembers",
      "outputs": [
        {
          "components": [
            {
              "internalType": "uint256",
              "name": "index",
              "type": "uint256"
            },
            {
              "internalType": "string",
              "name": "cpf",
              "type": "string"
            },
            {
              "internalType": "string",
              "name": "firstName",
              "type": "string"
            },
            {
              "internalType": "string",
              "name": "lastName",
              "type": "string"
            },
            {
              "internalType": "address",
              "name": "wallet",
              "type": "address"
            },
            {
              "internalType": "uint8",
              "name": "access",
              "type": "uint8"
            }
          ],
          "internalType": "struct Chainclub.Member[]",
          "name": "",
          "type": "tuple[]"
        }
      ],
      "payable": false,
      "stateMutability": "view",
      "type": "function"
    },
    {
      "constant": true,
      "inputs": [],
      "name": "getAdmins",
      "outputs": [
        {
          "components": [
            {
              "internalType": "uint256",
              "name": "index",
              "type": "uint256"
            },
            {
              "internalType": "string",
              "name": "cpf",
              "type": "string"
            },
            {
              "internalType": "string",
              "name": "firstName",
              "type": "string"
            },
            {
              "internalType": "string",
              "name": "lastName",
              "type": "string"
            },
            {
              "internalType": "address",
              "name": "wallet",
              "type": "address"
            },
            {
              "internalType": "uint8",
              "name": "access",
              "type": "uint8"
            }
          ],
          "internalType": "struct Chainclub.Member[]",
          "name": "",
          "type": "tuple[]"
        }
      ],
      "payable": false,
      "stateMutability": "view",
      "type": "function"
    },
    {
      "constant": true,
      "inputs": [],
      "name": "getAdminsCount",
      "outputs": [
        {
          "internalType": "uint256",
          "name": "",
          "type": "uint256"
        }
      ],
      "payable": false,
      "stateMutability": "view",
      "type": "function"
    },
    {
      "constant": true,
      "inputs": [],
      "name": "getPollCount",
      "outputs": [
        {
          "internalType": "uint256",
          "name": "",
          "type": "uint256"
        }
      ],
      "payable": false,
      "stateMutability": "view",
      "type": "function"
    }
  ],
  "bytecode": "0x60806040523480156200001157600080fd5b5060405162002a7138038062002a7183398181016040526200003791908101906200060b565b8160ff1660008190555060008090505b600054811015620001745760018282815181106200006157fe5b602002602001015190806001815401808255809150509060018203906000526020600020906005020160009091929091909150600082015181600001556020820151816001019080519060200190620000bc92919062000348565b506040820151816002019080519060200190620000db92919062000348565b506060820151816003019080519060200190620000fa92919062000348565b5060808201518160040160006101000a81548173ffffffffffffffffffffffffffffffffffffffff021916908373ffffffffffffffffffffffffffffffffffffffff16021790555060a08201518160040160146101000a81548160ff021916908360ff160217905550505050808060010191505062000047565b50620001a760008060405180606001604052806036815260200162002a3b603691396000546001620001fe60201b60201c565b620001f6600160006040518060400160405280601c81526020017f44656369646520746865206d656d626572736869702070726963652e000000008152506000546001620001fe60201b60201c565b50506200081e565b82620002208160405180602001604052806000815250620002eb60201b60201c565b156200022b57600080fd5b60026040518060a001604052808881526020018781526020018681526020018460ff168152602001858152509080600181540180825580915050906001820390600052602060002090600502016000909192909190915060008201518160000155602082015181600101556040820151816002019080519060200190620002b492919062000348565b5060608201518160030160006101000a81548160ff021916908360ff16021790555060808201518160040155505050505050505050565b6000816040516020016200030091906200069c565b60405160208183030381529060405280519060200120836040516020016200032991906200069c565b6040516020818303038152906040528051906020012014905092915050565b828054600181600116156101000203166002900490600052602060002090601f016020900481019282601f106200038b57805160ff1916838001178555620003bc565b82800160010185558215620003bc579182015b82811115620003bb5782518255916020019190600101906200039e565b5b509050620003cb9190620003cf565b5090565b620003f491905b80821115620003f0576000816000905550600101620003d6565b5090565b90565b6000815190506200040881620007d0565b92915050565b600082601f8301126200042057600080fd5b8151620004376200043182620006e3565b620006b5565b9150818183526020840193506020810190508360005b83811015620004815781518601620004668882620004e7565b8452602084019350602083019250506001810190506200044d565b5050505092915050565b600082601f8301126200049d57600080fd5b8151620004b4620004ae826200070c565b620006b5565b91508082526020830160208301858383011115620004d157600080fd5b620004de8382846200079a565b50505092915050565b600060c08284031215620004fa57600080fd5b6200050660c0620006b5565b905060006200051884828501620005dd565b600083015250602082015167ffffffffffffffff8111156200053957600080fd5b62000547848285016200048b565b602083015250604082015167ffffffffffffffff8111156200056857600080fd5b62000576848285016200048b565b604083015250606082015167ffffffffffffffff8111156200059757600080fd5b620005a5848285016200048b565b6060830152506080620005bb84828501620003f7565b60808301525060a0620005d184828501620005f4565b60a08301525092915050565b600081519050620005ee81620007ea565b92915050565b600081519050620006058162000804565b92915050565b600080604083850312156200061f57600080fd5b60006200062f85828601620005f4565b925050602083015167ffffffffffffffff8111156200064d57600080fd5b6200065b858286016200040e565b9150509250929050565b6000620006728262000739565b6200067e818562000744565b9350620006908185602086016200079a565b80840191505092915050565b6000620006aa828462000665565b915081905092915050565b6000604051905081810181811067ffffffffffffffff82111715620006d957600080fd5b8060405250919050565b600067ffffffffffffffff821115620006fb57600080fd5b602082029050602081019050919050565b600067ffffffffffffffff8211156200072457600080fd5b601f19601f8301169050602081019050919050565b600081519050919050565b600081905092915050565b60006200075c8262000763565b9050919050565b600073ffffffffffffffffffffffffffffffffffffffff82169050919050565b6000819050919050565b600060ff82169050919050565b60005b83811015620007ba5780820151818401526020810190506200079d565b83811115620007ca576000848401525b50505050565b620007db816200074f565b8114620007e757600080fd5b50565b620007f58162000783565b81146200080157600080fd5b50565b6200080f816200078d565b81146200081b57600080fd5b50565b61220d806200082e6000396000f3fe608060405234801561001057600080fd5b50600436106100ea5760003560e01c8063911c81071161008c578063bbff716611610066578063bbff71661461023b578063c30d71251461026b578063c3fc4b8214610287578063e8041522146102a3576100ea565b8063911c8107146101e35780639eab5253146101ed578063ab3545e51461020b576100ea565b80632ada2596116100c85780632ada25961461015b57806331ae450b1461018b57806347c9779f146101a95780635c581119146101d9576100ea565b806311a52746146100ef578063120fe89b1461010d5780631a8cbcaa1461012b575b600080fd5b6100f76102c1565b6040516101049190611f87565b60405180910390f35b6101156102ce565b6040516101229190611edd565b60405180910390f35b610145600480360361014091908101906118a1565b61040a565b6040516101529190611f65565b60405180910390f35b61017560048036036101709190810190611878565b61051c565b6040516101829190611f43565b60405180910390f35b61019361084e565b6040516101a09190611ebb565b60405180910390f35b6101c360048036036101be91908101906118a1565b610b8f565b6040516101d09190611f21565b60405180910390f35b6101e1610c4f565b005b6101eb610c51565b005b6101f5610c53565b6040516102029190611ebb565b60405180910390f35b610225600480360361022091908101906118a1565b610f15565b6040516102329190611f43565b60405180910390f35b610255600480360361025091908101906118a1565b6111ad565b6040516102629190611eff565b60405180910390f35b61028560048036036102809190810190611931565b611321565b005b6102a1600480360361029c91908101906118ca565b611403565b005b6102ab611542565b6040516102b89190611f87565b60405180910390f35b6000600280549050905090565b60606002805480602002602001604051908101604052809291908181526020016000905b8282101561040157838290600052602060002090600502016040518060a00160405290816000820154815260200160018201548152602001600282018054600181600116156101000203166002900480601f0160208091040260200160405190810160405280929190818152602001828054600181600116156101000203166002900480156103c25780601f10610397576101008083540402835291602001916103c2565b820191906000526020600020905b8154815290600101906020018083116103a557829003601f168201915b505050505081526020016003820160009054906101000a900460ff1660ff1660ff168152602001600482015481525050815260200190600101906102f2565b50505050905090565b610412611670565b6002828154811061041f57fe5b90600052602060002090600502016040518060a00160405290816000820154815260200160018201548152602001600282018054600181600116156101000203166002900480601f0160208091040260200160405190810160405280929190818152602001828054600181600116156101000203166002900480156104e55780601f106104ba576101008083540402835291602001916104e5565b820191906000526020600020905b8154815290600101906020018083116104c857829003601f168201915b505050505081526020016003820160009054906101000a900460ff1660ff1660ff1681526020016004820154815250509050919050565b6105246116a2565b60008090505b600180549050811015610847578273ffffffffffffffffffffffffffffffffffffffff166001828154811061055b57fe5b906000526020600020906005020160040160009054906101000a900473ffffffffffffffffffffffffffffffffffffffff1673ffffffffffffffffffffffffffffffffffffffff16141561083a57600181815481106105b657fe5b90600052602060002090600502016040518060c001604052908160008201548152602001600182018054600181600116156101000203166002900480601f0160208091040260200160405190810160405280929190818152602001828054600181600116156101000203166002900480156106725780601f1061064757610100808354040283529160200191610672565b820191906000526020600020905b81548152906001019060200180831161065557829003601f168201915b50505050508152602001600282018054600181600116156101000203166002900480601f0160208091040260200160405190810160405280929190818152602001828054600181600116156101000203166002900480156107145780601f106106e957610100808354040283529160200191610714565b820191906000526020600020905b8154815290600101906020018083116106f757829003601f168201915b50505050508152602001600382018054600181600116156101000203166002900480601f0160208091040260200160405190810160405280929190818152602001828054600181600116156101000203166002900480156107b65780601f1061078b576101008083540402835291602001916107b6565b820191906000526020600020905b81548152906001019060200180831161079957829003601f168201915b505050505081526020016004820160009054906101000a900473ffffffffffffffffffffffffffffffffffffffff1673ffffffffffffffffffffffffffffffffffffffff1673ffffffffffffffffffffffffffffffffffffffff1681526020016004820160149054906101000a900460ff1660ff1660ff1681525050915050610849565b808060010191505061052a565b505b919050565b60608060005460405190808252806020026020018201604052801561088d57816020015b61087a6116f1565b8152602001906001900390816108725790505b50905060008090505b600180549050811015610b875760018082815481106108b157fe5b906000526020600020906005020160040160149054906101000a900460ff1660ff161415610b7a57600181815481106108e657fe5b90600052602060002090600502016040518060c001604052908160008201548152602001600182018054600181600116156101000203166002900480601f0160208091040260200160405190810160405280929190818152602001828054600181600116156101000203166002900480156109a25780601f10610977576101008083540402835291602001916109a2565b820191906000526020600020905b81548152906001019060200180831161098557829003601f168201915b50505050508152602001600282018054600181600116156101000203166002900480601f016020809104026020016040519081016040528092919081815260200182805460018160011615610100020316600290048015610a445780601f10610a1957610100808354040283529160200191610a44565b820191906000526020600020905b815481529060010190602001808311610a2757829003601f168201915b50505050508152602001600382018054600181600116156101000203166002900480601f016020809104026020016040519081016040528092919081815260200182805460018160011615610100020316600290048015610ae65780601f10610abb57610100808354040283529160200191610ae6565b820191906000526020600020905b815481529060010190602001808311610ac957829003601f168201915b505050505081526020016004820160009054906101000a900473ffffffffffffffffffffffffffffffffffffffff1673ffffffffffffffffffffffffffffffffffffffff1673ffffffffffffffffffffffffffffffffffffffff1681526020016004820160149054906101000a900460ff1660ff1660ff1681525050828281518110610b6e57fe5b60200260200101819052505b8080600101915050610896565b508091505090565b606060028281548110610b9e57fe5b90600052602060002090600502016002018054600181600116156101000203166002900480601f016020809104026020016040519081016040528092919081815260200182805460018160011615610100020316600290048015610c435780601f10610c1857610100808354040283529160200191610c43565b820191906000526020600020905b815481529060010190602001808311610c2657829003601f168201915b50505050509050919050565b565b565b60606001805480602002602001604051908101604052809291908181526020016000905b82821015610f0c57838290600052602060002090600502016040518060c001604052908160008201548152602001600182018054600181600116156101000203166002900480601f016020809104026020016040519081016040528092919081815260200182805460018160011615610100020316600290048015610d3d5780601f10610d1257610100808354040283529160200191610d3d565b820191906000526020600020905b815481529060010190602001808311610d2057829003601f168201915b50505050508152602001600282018054600181600116156101000203166002900480601f016020809104026020016040519081016040528092919081815260200182805460018160011615610100020316600290048015610ddf5780601f10610db457610100808354040283529160200191610ddf565b820191906000526020600020905b815481529060010190602001808311610dc257829003601f168201915b50505050508152602001600382018054600181600116156101000203166002900480601f016020809104026020016040519081016040528092919081815260200182805460018160011615610100020316600290048015610e815780601f10610e5657610100808354040283529160200191610e81565b820191906000526020600020905b815481529060010190602001808311610e6457829003601f168201915b505050505081526020016004820160009054906101000a900473ffffffffffffffffffffffffffffffffffffffff1673ffffffffffffffffffffffffffffffffffffffff1673ffffffffffffffffffffffffffffffffffffffff1681526020016004820160149054906101000a900460ff1660ff1660ff168152505081526020019060010190610c77565b50505050905090565b610f1d6116a2565b60018281548110610f2a57fe5b90600052602060002090600502016040518060c001604052908160008201548152602001600182018054600181600116156101000203166002900480601f016020809104026020016040519081016040528092919081815260200182805460018160011615610100020316600290048015610fe65780601f10610fbb57610100808354040283529160200191610fe6565b820191906000526020600020905b815481529060010190602001808311610fc957829003601f168201915b50505050508152602001600282018054600181600116156101000203166002900480601f0160208091040260200160405190810160405280929190818152602001828054600181600116156101000203166002900480156110885780601f1061105d57610100808354040283529160200191611088565b820191906000526020600020905b81548152906001019060200180831161106b57829003601f168201915b50505050508152602001600382018054600181600116156101000203166002900480601f01602080910402602001604051908101604052809291908181526020018280546001816001161561010002031660029004801561112a5780601f106110ff5761010080835404028352916020019161112a565b820191906000526020600020905b81548152906001019060200180831161110d57829003601f168201915b505050505081526020016004820160009054906101000a900473ffffffffffffffffffffffffffffffffffffffff1673ffffffffffffffffffffffffffffffffffffffff1673ffffffffffffffffffffffffffffffffffffffff1681526020016004820160149054906101000a900460ff1660ff1660ff16815250509050919050565b606060036000838152602001908152602001600020805480602002602001604051908101604052809291908181526020016000905b8282101561131657838290600052602060002090600302016040518060600160405290816000820160009054906101000a900473ffffffffffffffffffffffffffffffffffffffff1673ffffffffffffffffffffffffffffffffffffffff1673ffffffffffffffffffffffffffffffffffffffff168152602001600182018054600181600116156101000203166002900480601f0160208091040260200160405190810160405280929190818152602001828054600181600116156101000203166002900480156112f45780601f106112c9576101008083540402835291602001916112f4565b820191906000526020600020905b8154815290600101906020018083116112d757829003601f168201915b50505050508152602001600282015481525050815260200190600101906111e2565b505050509050919050565b8261133b816040518060200160405280600081525061154b565b1561134557600080fd5b60026040518060a001604052808881526020018781526020018681526020018460ff1681526020018581525090806001815401808255809150509060018203906000526020600020906005020160009091929091909150600082015181600001556020820151816001015560408201518160020190805190602001906113cc929190611740565b5060608201518160030160006101000a81548160ff021916908360ff16021790555060808201518160040155505050505050505050565b826002818154811061141157fe5b90600052602060002090600502016004015460036000838152602001908152602001600020805490501061144457600080fd5b338461145082826115a4565b1561145a57600080fd5b6003600087815260200190815260200160002060405180606001604052803373ffffffffffffffffffffffffffffffffffffffff168152602001878152602001868152509080600181540180825580915050906001820390600052602060002090600302016000909192909190915060008201518160000160006101000a81548173ffffffffffffffffffffffffffffffffffffffff021916908373ffffffffffffffffffffffffffffffffffffffff160217905550602082015181600101908051906020019061152c929190611740565b5060408201518160020155505050505050505050565b60008054905090565b60008160405160200161155e9190611ea4565b60405160208183030381529060405280519060200120836040516020016115859190611ea4565b6040516020818303038152906040528051906020012014905092915050565b600080600090505b6003600084815260200190815260200160002080549050811015611664576003600084815260200190815260200160002081815481106115e857fe5b906000526020600020906003020160000160009054906101000a900473ffffffffffffffffffffffffffffffffffffffff1673ffffffffffffffffffffffffffffffffffffffff168473ffffffffffffffffffffffffffffffffffffffff16141561165757600191505061166a565b80806001019150506115ac565b50600090505b92915050565b6040518060a00160405280600081526020016000815260200160608152602001600060ff168152602001600081525090565b6040518060c0016040528060008152602001606081526020016060815260200160608152602001600073ffffffffffffffffffffffffffffffffffffffff168152602001600060ff1681525090565b6040518060c0016040528060008152602001606081526020016060815260200160608152602001600073ffffffffffffffffffffffffffffffffffffffff168152602001600060ff1681525090565b828054600181600116156101000203166002900490600052602060002090601f016020900481019282601f1061178157805160ff19168380011785556117af565b828001600101855582156117af579182015b828111156117ae578251825591602001919060010190611793565b5b5090506117bc91906117c0565b5090565b6117e291905b808211156117de5760008160009055506001016117c6565b5090565b90565b6000813590506117f481612185565b92915050565b600082601f83011261180b57600080fd5b813561181e61181982611fcf565b611fa2565b9150808252602083016020830185838301111561183a57600080fd5b611845838284612132565b50505092915050565b60008135905061185d8161219c565b92915050565b600081359050611872816121b3565b92915050565b60006020828403121561188a57600080fd5b6000611898848285016117e5565b91505092915050565b6000602082840312156118b357600080fd5b60006118c18482850161184e565b91505092915050565b6000806000606084860312156118df57600080fd5b60006118ed8682870161184e565b935050602084013567ffffffffffffffff81111561190a57600080fd5b611916868287016117fa565b92505060406119278682870161184e565b9150509250925092565b600080600080600060a0868803121561194957600080fd5b60006119578882890161184e565b95505060206119688882890161184e565b945050604086013567ffffffffffffffff81111561198557600080fd5b611991888289016117fa565b93505060606119a28882890161184e565b92505060806119b388828901611863565b9150509295509295909350565b60006119cc8383611ca4565b905092915050565b60006119e08383611db1565b905092915050565b60006119f48383611e27565b905092915050565b611a05816120e9565b82525050565b6000611a168261202b565b611a208185612089565b935083602082028501611a3285611ffb565b8060005b85811015611a6e5784840389528151611a4f85826119c0565b9450611a5a83612062565b925060208a01995050600181019050611a36565b50829750879550505050505092915050565b6000611a8b82612036565b611a95818561209a565b935083602082028501611aa78561200b565b8060005b85811015611ae35784840389528151611ac485826119d4565b9450611acf8361206f565b925060208a01995050600181019050611aab565b50829750879550505050505092915050565b6000611b0082612041565b611b0a81856120ab565b935083602082028501611b1c8561201b565b8060005b85811015611b585784840389528151611b3985826119e8565b9450611b448361207c565b925060208a01995050600181019050611b20565b50829750879550505050505092915050565b6000611b7582612057565b611b7f81856120cd565b9350611b8f818560208601612141565b611b9881612174565b840191505092915050565b6000611bae82612057565b611bb881856120de565b9350611bc8818560208601612141565b80840191505092915050565b6000611bdf8261204c565b611be981856120bc565b9350611bf9818560208601612141565b611c0281612174565b840191505092915050565b600060c083016000830151611c256000860182611e77565b5060208301518482036020860152611c3d8282611bd4565b91505060408301518482036040860152611c578282611bd4565b91505060608301518482036060860152611c718282611bd4565b9150506080830151611c8660808601826119fc565b5060a0830151611c9960a0860182611e95565b508091505092915050565b600060c083016000830151611cbc6000860182611e77565b5060208301518482036020860152611cd48282611bd4565b91505060408301518482036040860152611cee8282611bd4565b91505060608301518482036060860152611d088282611bd4565b9150506080830151611d1d60808601826119fc565b5060a0830151611d3060a0860182611e95565b508091505092915050565b600060a083016000830151611d536000860182611e77565b506020830151611d666020860182611e77565b5060408301518482036040860152611d7e8282611bd4565b9150506060830151611d936060860182611e95565b506080830151611da66080860182611e77565b508091505092915050565b600060a083016000830151611dc96000860182611e77565b506020830151611ddc6020860182611e77565b5060408301518482036040860152611df48282611bd4565b9150506060830151611e096060860182611e95565b506080830151611e1c6080860182611e77565b508091505092915050565b6000606083016000830151611e3f60008601826119fc565b5060208301518482036020860152611e578282611bd4565b9150506040830151611e6c6040860182611e77565b508091505092915050565b611e808161211b565b82525050565b611e8f8161211b565b82525050565b611e9e81612125565b82525050565b6000611eb08284611ba3565b915081905092915050565b60006020820190508181036000830152611ed58184611a0b565b905092915050565b60006020820190508181036000830152611ef78184611a80565b905092915050565b60006020820190508181036000830152611f198184611af5565b905092915050565b60006020820190508181036000830152611f3b8184611b6a565b905092915050565b60006020820190508181036000830152611f5d8184611c0d565b905092915050565b60006020820190508181036000830152611f7f8184611d3b565b905092915050565b6000602082019050611f9c6000830184611e86565b92915050565b6000604051905081810181811067ffffffffffffffff82111715611fc557600080fd5b8060405250919050565b600067ffffffffffffffff821115611fe657600080fd5b601f19601f8301169050602081019050919050565b6000819050602082019050919050565b6000819050602082019050919050565b6000819050602082019050919050565b600081519050919050565b600081519050919050565b600081519050919050565b600081519050919050565b600081519050919050565b6000602082019050919050565b6000602082019050919050565b6000602082019050919050565b600082825260208201905092915050565b600082825260208201905092915050565b600082825260208201905092915050565b600082825260208201905092915050565b600082825260208201905092915050565b600081905092915050565b60006120f4826120fb565b9050919050565b600073ffffffffffffffffffffffffffffffffffffffff82169050919050565b6000819050919050565b600060ff82169050919050565b82818337600083830152505050565b60005b8381101561215f578082015181840152602081019050612144565b8381111561216e576000848401525b50505050565b6000601f19601f8301169050919050565b61218e816120e9565b811461219957600080fd5b50565b6121a58161211b565b81146121b057600080fd5b50565b6121bc81612125565b81146121c757600080fd5b5056fea365627a7a72315820e598cf194a1fca3a1370fdb34cb32cea2223f725d68d492607322aaf858e351b6c6578706572696d656e74616cf564736f6c634300050c004044656369646520746865206d6178696d756d206e756d626572206f66206d656d62657273206f66206f757220636861696e636c75622e",
  "source": "pragma solidity >=0.4.22 <0.6.0;\npragma experimental ABIEncoderV2;\n\n/*contract DateTimeAPI {\n    function isLeapYear(uint16 year) public view returns (bool);\n    function getYear(uint timestamp) public view returns (uint16);\n    function getMonth(uint timestamp) public view returns (uint8);\n    function getDay(uint timestamp) public view returns (uint8);\n    function getHour(uint timestamp) public view returns (uint8);\n    function getMinute(uint timestamp) public view returns (uint8);\n    function getSecond(uint timestamp) public view returns (uint8);\n    function getWeekday(uint timestamp) public view returns (uint8);\n    function toTimestamp(uint16 year, uint8 month, uint8 day) public view returns (uint timestamp);\n    function toTimestamp(uint16 year, uint8 month, uint8 day, uint8 hour) public view returns (uint timestamp);\n    function toTimestamp(uint16 year, uint8 month, uint8 day, uint8 hour, uint8 minute) public view returns (uint timestamp);\n    function toTimestamp(uint16 year, uint8 month, uint8 day, uint8 hour, uint8 minute, uint8 second) public view returns (uint timestamp);\n    function currentTimeIsBeforeEndTime(uint currentTime, uint endTime) public pure returns (bool);\n}*/\n\ncontract Chainclub {\n    constructor(uint8 administratorsCount, Member[] memory admins) public {\n        adminsCount = administratorsCount;\n\n        for (uint i = 0; i < adminsCount; i++) {\n            members.push(admins[i]);\n        }\n        \n        startPoll(0, 0, \"Decide the maximum number of members of our chainclub.\", adminsCount, 1);\n        startPoll(1, 0, \"Decide the membership price.\", adminsCount, 1);\n    }\n\n    struct Member {\n        uint index;\n        string cpf;\n        string firstName;\n        string lastName;\n        address wallet;\n        uint8 access; // 0 == membro, 1 == admin\n    }\n    \n    struct Poll {\n        uint index;\n        uint starterIndex; // 0 se a votao foi criada pela administrao\n        string subject;\n        uint8 accessNeededToVote;\n        uint endInVotesCount;\n    }\n    \n    struct Vote {\n        address ownerAddress;\n        string stringParameter;\n        uint numberParameter;\n    }\n    \n    // Enums\n    uint8 constant CREATED_BY_ADMIN = 0;\n    uint8 constant CREATED_BY_MEMBER = 1;\n    \n    // Checks if the poll is not ended by votes count\n    modifier isNotEndedByVotes(uint pollIndex) { \n        require(pollVotes[pollIndex].length < polls[pollIndex].endInVotesCount); \n        _; \n    }\n    \n    // Checks if the member did not vote in this poll\n    modifier didNotVote(address memberAddress, uint pollIndex) {\n        require(!alreadyVoted(memberAddress, pollIndex));\n        _;\n    }\n    \n    // Checks if the poll subject is not empty\n    modifier isNotEmpty(string memory pollSubject) { \n        require(!stringsAreEqual(pollSubject, \"\")); \n        _; \n    }\n    \n    uint adminsCount; // guarda a quantidade de admins\n    Member[] members; // guarda todos membros (incluindo admins)\n    Poll[] polls; // guarda todas polls criadas\n    mapping (uint => Vote[]) pollVotes; // guarda os votos de uma poll\n    \n    function startPoll (uint index, uint starterIndex, string memory pollSubject, uint durationInVotes, \n    uint8 accessNeededToVote) public isNotEmpty(pollSubject) \n    {\n        polls.push(Poll(index, starterIndex, pollSubject, accessNeededToVote, durationInVotes));\n    }\n    \n    function voteOnPoll (uint pollIndex, string memory stringParameter, uint numberParameter) \n    public isNotEndedByVotes(pollIndex) didNotVote(msg.sender, pollIndex) {\n        pollVotes[pollIndex].push(Vote(msg.sender, stringParameter, numberParameter));\n    }\n    \n    /// Entering the chainclub\n    function buyMembership () public {\n        \n    }\n    \n    /// Leaving the chainclub\n    function sellMembership () public {\n        \n    }\n    \n    //////////////// SIMPLE GETTERS ////////////////\n    \n    function getPoll (uint pollIndex) public view returns (Poll memory) {\n        return polls[pollIndex];\n    }\n    function getPollSubject(uint index)\n        public view returns (string memory) {\n        return polls[index].subject;\n    }\n    \n    function getPollVotes (uint pollIndex) public view returns (Vote[] memory) {\n        return pollVotes[pollIndex];\n    }\n    \n    function getPolls () public view returns (Poll[] memory) {\n        return polls;\n    }\n    \n    function getMember (uint memberIndex) public view returns (Member memory) {\n        return members[memberIndex];\n    }\n    \n    function getMember (address memberAddress) public view returns (Member memory) {\n        for (uint i = 0; i < members.length; i++) {\n            if (members[i].wallet == memberAddress) {\n                return members[i];\n            }\n        }\n    }\n    \n    function getMembers () public view returns (Member[] memory) {\n        return members;\n    }\n    \n    function getAdmins () public view returns (Member[] memory) {\n        Member[] memory admins = new Member[](adminsCount);\n        for (uint i = 0; i < members.length; i++) {\n            if (members[i].access == 1) {\n                admins[i] = members[i];\n            }\n        }\n        return admins;\n    }\n    \n    function getAdminsCount () public view returns (uint) {\n        return adminsCount;\n    }\n    \n    //////////////// PRIVATE FUNCTIONS ////////////////\n    \n    function stringsAreEqual (string memory a, string memory b) private pure returns (bool) {\n        return (keccak256(abi.encodePacked((a))) == keccak256(abi.encodePacked((b))) );\n    }\n    \n    function alreadyVoted (address memberAddress, uint pollIndex) private view returns (bool) {\n        for (uint i = 0; i < pollVotes[pollIndex].length; i++) {\n            if (memberAddress == pollVotes[pollIndex][i].ownerAddress) {\n                return true;\n            }\n        }\n        return false;\n    }\n    function getPollCount()\n        public view returns (uint) {\n        return polls.length;\n    }\n}",
  "sourcePath": "/home/rodrigo.pumar/Documents/faculdade/inf1305-dap/contracts/Chainclub.sol",
  "compiler": {
    "name": "solc",
    "version": "0.5.12+commit.7709ece9.Emscripten.clang"
  },
  "schemaVersion": "3.0.19",
  "updatedAt": "2019-12-05T19:50:02.739Z",
  "networkType": "ethereum",
  "devdoc": {
    "methods": {}
  },
  "userdoc": {
    "methods": {
      "buyMembership()": {
        "notice": "Entering the chainclub"
      },
      "getPoll(uint256)": {
        "notice": "///////////// SIMPLE GETTERS ////////////////"
      },
      "sellMembership()": {
        "notice": "Leaving the chainclub"
      }
    }
  }
}