{
  "contractName": "Dao",
  "abi": [
    {
      "constant": true,
      "inputs": [],
      "name": "sayHello",
      "outputs": [
        {
          "name": "",
          "type": "string"
        }
      ],
      "payable": false,
      "stateMutability": "pure",
      "type": "function"
    }
  ],
  "bytecode": "0x608060405234801561001057600080fd5b50610114806100206000396000f3fe6080604052348015600f57600080fd5b506004361060285760003560e01c8063ef5fb05b14602d575b600080fd5b603360ab565b6040518080602001828103825283818151815260200191508051906020019080838360005b8381101560715780820151818401526020810190506058565b50505050905090810190601f168015609d5780820380516001836020036101000a031916815260200191505b509250505060405180910390f35b60606040518060400160405280600b81526020017f68656c6c6f20776f726c6400000000000000000000000000000000000000000081525090509056fea165627a7a723058204cd45769832c553e5c21991e9feb8f90ee20d665ea8c6900f1559fc861ef9ee00029",
  "source": "pragma solidity ^0.5.8;\ncontract Dao {\n    function sayHello() public pure returns(string memory) {\n        return \"hello world\";\n    }\n}",
  "sourcePath": "/home/vabows/Documents/DAO/contracts/Dao.sol",
  "compiler": {
    "name": "solc",
    "version": "0.5.8+commit.23d335f2.Emscripten.clang"
  },
  "schemaVersion": "3.0.16",
  "updatedAt": "2019-11-23T15:57:09.655Z",
  "devdoc": {
    "methods": {}
  },
  "userdoc": {
    "methods": {}
  }
}