{
  "contractName": "DateTime",
  "abi": [
    {
      "constant": true,
      "inputs": [
        {
          "internalType": "uint16",
          "name": "year",
          "type": "uint16"
        }
      ],
      "name": "isLeapYear",
      "outputs": [
        {
          "internalType": "bool",
          "name": "",
          "type": "bool"
        }
      ],
      "payable": false,
      "stateMutability": "pure",
      "type": "function"
    },
    {
      "constant": true,
      "inputs": [
        {
          "internalType": "uint256",
          "name": "year",
          "type": "uint256"
        }
      ],
      "name": "leapYearsBefore",
      "outputs": [
        {
          "internalType": "uint256",
          "name": "",
          "type": "uint256"
        }
      ],
      "payable": false,
      "stateMutability": "pure",
      "type": "function"
    },
    {
      "constant": true,
      "inputs": [
        {
          "internalType": "uint8",
          "name": "month",
          "type": "uint8"
        },
        {
          "internalType": "uint16",
          "name": "year",
          "type": "uint16"
        }
      ],
      "name": "getDaysInMonth",
      "outputs": [
        {
          "internalType": "uint8",
          "name": "",
          "type": "uint8"
        }
      ],
      "payable": false,
      "stateMutability": "pure",
      "type": "function"
    },
    {
      "constant": true,
      "inputs": [
        {
          "internalType": "uint256",
          "name": "timestamp",
          "type": "uint256"
        }
      ],
      "name": "getYear",
      "outputs": [
        {
          "internalType": "uint16",
          "name": "",
          "type": "uint16"
        }
      ],
      "payable": false,
      "stateMutability": "pure",
      "type": "function"
    },
    {
      "constant": true,
      "inputs": [
        {
          "internalType": "uint256",
          "name": "timestamp",
          "type": "uint256"
        }
      ],
      "name": "getMonth",
      "outputs": [
        {
          "internalType": "uint8",
          "name": "",
          "type": "uint8"
        }
      ],
      "payable": false,
      "stateMutability": "pure",
      "type": "function"
    },
    {
      "constant": true,
      "inputs": [
        {
          "internalType": "uint256",
          "name": "timestamp",
          "type": "uint256"
        }
      ],
      "name": "getDay",
      "outputs": [
        {
          "internalType": "uint8",
          "name": "",
          "type": "uint8"
        }
      ],
      "payable": false,
      "stateMutability": "pure",
      "type": "function"
    },
    {
      "constant": true,
      "inputs": [
        {
          "internalType": "uint256",
          "name": "timestamp",
          "type": "uint256"
        }
      ],
      "name": "getHour",
      "outputs": [
        {
          "internalType": "uint8",
          "name": "",
          "type": "uint8"
        }
      ],
      "payable": false,
      "stateMutability": "pure",
      "type": "function"
    },
    {
      "constant": true,
      "inputs": [
        {
          "internalType": "uint256",
          "name": "timestamp",
          "type": "uint256"
        }
      ],
      "name": "getMinute",
      "outputs": [
        {
          "internalType": "uint8",
          "name": "",
          "type": "uint8"
        }
      ],
      "payable": false,
      "stateMutability": "pure",
      "type": "function"
    },
    {
      "constant": true,
      "inputs": [
        {
          "internalType": "uint256",
          "name": "timestamp",
          "type": "uint256"
        }
      ],
      "name": "getSecond",
      "outputs": [
        {
          "internalType": "uint8",
          "name": "",
          "type": "uint8"
        }
      ],
      "payable": false,
      "stateMutability": "pure",
      "type": "function"
    },
    {
      "constant": true,
      "inputs": [
        {
          "internalType": "uint256",
          "name": "timestamp",
          "type": "uint256"
        }
      ],
      "name": "getWeekday",
      "outputs": [
        {
          "internalType": "uint8",
          "name": "",
          "type": "uint8"
        }
      ],
      "payable": false,
      "stateMutability": "pure",
      "type": "function"
    },
    {
      "constant": true,
      "inputs": [
        {
          "internalType": "uint16",
          "name": "year",
          "type": "uint16"
        },
        {
          "internalType": "uint8",
          "name": "month",
          "type": "uint8"
        },
        {
          "internalType": "uint8",
          "name": "day",
          "type": "uint8"
        },
        {
          "internalType": "uint8",
          "name": "hour",
          "type": "uint8"
        },
        {
          "internalType": "uint8",
          "name": "minute",
          "type": "uint8"
        }
      ],
      "name": "toTimestamp",
      "outputs": [
        {
          "internalType": "uint256",
          "name": "timestamp",
          "type": "uint256"
        }
      ],
      "payable": false,
      "stateMutability": "pure",
      "type": "function"
    },
    {
      "constant": true,
      "inputs": [
        {
          "internalType": "uint16",
          "name": "year",
          "type": "uint16"
        },
        {
          "internalType": "uint8",
          "name": "month",
          "type": "uint8"
        },
        {
          "internalType": "uint8",
          "name": "day",
          "type": "uint8"
        },
        {
          "internalType": "uint8",
          "name": "hour",
          "type": "uint8"
        }
      ],
      "name": "toTimestamp",
      "outputs": [
        {
          "internalType": "uint256",
          "name": "timestamp",
          "type": "uint256"
        }
      ],
      "payable": false,
      "stateMutability": "pure",
      "type": "function"
    },
    {
      "constant": true,
      "inputs": [
        {
          "internalType": "uint16",
          "name": "year",
          "type": "uint16"
        },
        {
          "internalType": "uint8",
          "name": "month",
          "type": "uint8"
        },
        {
          "internalType": "uint8",
          "name": "day",
          "type": "uint8"
        }
      ],
      "name": "toTimestamp",
      "outputs": [
        {
          "internalType": "uint256",
          "name": "timestamp",
          "type": "uint256"
        }
      ],
      "payable": false,
      "stateMutability": "pure",
      "type": "function"
    },
    {
      "constant": true,
      "inputs": [
        {
          "internalType": "uint16",
          "name": "year",
          "type": "uint16"
        },
        {
          "internalType": "uint8",
          "name": "month",
          "type": "uint8"
        },
        {
          "internalType": "uint8",
          "name": "day",
          "type": "uint8"
        },
        {
          "internalType": "uint8",
          "name": "hour",
          "type": "uint8"
        },
        {
          "internalType": "uint8",
          "name": "minute",
          "type": "uint8"
        },
        {
          "internalType": "uint8",
          "name": "second",
          "type": "uint8"
        }
      ],
      "name": "toTimestamp",
      "outputs": [
        {
          "internalType": "uint256",
          "name": "timestamp",
          "type": "uint256"
        }
      ],
      "payable": false,
      "stateMutability": "pure",
      "type": "function"
    },
    {
      "constant": true,
      "inputs": [
        {
          "internalType": "uint256",
          "name": "currentTime",
          "type": "uint256"
        },
        {
          "internalType": "uint256",
          "name": "endTime",
          "type": "uint256"
        }
      ],
      "name": "currentTimeIsBeforeEndTime",
      "outputs": [
        {
          "internalType": "bool",
          "name": "",
          "type": "bool"
        }
      ],
      "payable": false,
      "stateMutability": "pure",
      "type": "function"
    }
  ],
  "bytecode": "0x608060405234801561001057600080fd5b50610f68806100206000396000f3fe608060405234801561001057600080fd5b50600436106100f55760003560e01c80638c8d98a011610097578063a6f0e57711610066578063a6f0e577146104ca578063b199993714610514578063b238ad0e14610556578063fa93f883146105af576100f5565b80638c8d98a0146103515780639054bdec146103b157806392d6631314610438578063a324ad2414610482576100f5565b806362ba9687116100d357806362ba9687146101da57806365c72840146102545780637f7918331461029c5780638aa001fc14610309576100f5565b80633d3b1feb146100fa5780633e239e1a1461014a5780634ac1ad7814610192575b600080fd5b6101306004803603604081101561011057600080fd5b8101908080359060200190929190803590602001909291905050506105f7565b604051808215151515815260200191505060405180910390f35b6101766004803603602081101561016057600080fd5b810190808035906020019092919050505061077f565b604051808260ff1660ff16815260200191505060405180910390f35b6101be600480360360208110156101a857600080fd5b81019080803590602001909291905050506107a6565b604051808260ff1660ff16815260200191505060405180910390f35b61023e600480360360a08110156101f057600080fd5b81019080803561ffff169060200190929190803560ff169060200190929190803560ff169060200190929190803560ff169060200190929190803560ff1690602001909291905050506107c9565b6040518082815260200191505060405180910390f35b6102806004803603602081101561026a57600080fd5b81019080803590602001909291905050506107e5565b604051808260ff1660ff16815260200191505060405180910390f35b6102f3600480360360808110156102b257600080fd5b81019080803561ffff169060200190929190803560ff169060200190929190803560ff169060200190929190803560ff1690602001909291905050506107fb565b6040518082815260200191505060405180910390f35b6103356004803603602081101561031f57600080fd5b8101908080359060200190929190505050610816565b604051808260ff1660ff16815260200191505060405180910390f35b61039b6004803603606081101561036757600080fd5b81019080803561ffff169060200190929190803560ff169060200190929190803560ff16906020019092919050505061082a565b6040518082815260200191505060405180910390f35b610422600480360360c08110156103c757600080fd5b81019080803561ffff169060200190929190803560ff169060200190929190803560ff169060200190929190803560ff169060200190929190803560ff169060200190929190803560ff169060200190929190505050610845565b6040518082815260200191505060405180910390f35b6104646004803603602081101561044e57600080fd5b8101908080359060200190929190505050610ad0565b604051808261ffff1661ffff16815260200191505060405180910390f35b6104ae6004803603602081101561049857600080fd5b8101908080359060200190929190505050610b79565b604051808260ff1660ff16815260200191505060405180910390f35b6104fa600480360360208110156104e057600080fd5b81019080803561ffff169060200190929190505050610b8f565b604051808215151515815260200191505060405180910390f35b6105406004803603602081101561052a57600080fd5b8101908080359060200190929190505050610c04565b6040518082815260200191505060405180910390f35b6105936004803603604081101561056c57600080fd5b81019080803560ff169060200190929190803561ffff169060200190929190505050610c37565b604051808260ff1660ff16815260200191505060405180910390f35b6105db600480360360208110156105c557600080fd5b8101908080359060200190929190505050610d03565b604051808260ff1660ff16815260200191505060405180910390f35b60008061060384610ad0565b9050600061061085610b79565b9050600061061d866107e5565b9050600061062a8761077f565b9050600061063788610d03565b9050600061064489610816565b9050600061065189610ad0565b9050600061065e8a610b79565b9050600061066b8b6107e5565b905060006106788c61077f565b905060006106858d610d03565b905060006106928e610816565b90508561ffff168c61ffff1611156106b95760009c50505050505050505050505050610779565b8460ff168b60ff1611156106dc5760009c50505050505050505050505050610779565b8360ff168a60ff1611156106ff5760009c50505050505050505050505050610779565b8260ff168960ff1611156107225760009c50505050505050505050505050610779565b8160ff168860ff1611156107455760009c50505050505050505050505050610779565b8060ff168760ff1611156107685760009c50505050505050505050505050610779565b60019c505050505050505050505050505b92915050565b60006018603c80848161078e57fe5b048161079657fe5b048161079e57fe5b069050919050565b6000600760046201518084816107b857fe5b0401816107c157fe5b069050919050565b60006107da86868686866000610845565b905095945050505050565b60006107f082610d20565b604001519050919050565b600061080c85858585600080610845565b9050949350505050565b6000603c828161082257fe5b069050919050565b600061083c8484846000806000610845565b90509392505050565b6000806107b290505b8761ffff168161ffff1610156108915761086781610b8f565b1561087a576301e2850082019150610884565b6301e13380820191505b808060010191505061084e565b610899610ebd565b601f816000600c81106108a857fe5b602002019060ff16908160ff16815250506108c289610b8f565b156108ec57601d816001600c81106108d657fe5b602002019060ff16908160ff168152505061090d565b601c816001600c81106108fb57fe5b602002019060ff16908160ff16815250505b601f816002600c811061091c57fe5b602002019060ff16908160ff1681525050601e816003600c811061093c57fe5b602002019060ff16908160ff1681525050601f816004600c811061095c57fe5b602002019060ff16908160ff1681525050601e816005600c811061097c57fe5b602002019060ff16908160ff1681525050601f816006600c811061099c57fe5b602002019060ff16908160ff1681525050601f816007600c81106109bc57fe5b602002019060ff16908160ff1681525050601e816008600c81106109dc57fe5b602002019060ff16908160ff1681525050601f816009600c81106109fc57fe5b602002019060ff16908160ff1681525050601e81600a600c8110610a1c57fe5b602002019060ff16908160ff1681525050601f81600b600c8110610a3c57fe5b602002019060ff16908160ff1681525050600191505b8760ff168261ffff161015610a9257806001830361ffff16600c8110610a7457fe5b602002015160ff166201518002830192508180600101925050610a52565b6001870360ff166201518002830192508560ff16610e1002830192508460ff16603c02830192508360ff168301925082925050509695505050505050565b600080600090506000806301e133808581610ae757fe5b046107b261ffff16019150610b016107b261ffff16610c04565b610b0e8361ffff16610c04565b039050806301e285000283019250806107b2830361ffff16036301e1338002830192505b84831115610b6e57610b4660018303610b8f565b15610b59576301e2850083039250610b63565b6301e13380830392505b600182039150610b32565b819350505050919050565b6000610b8482610d20565b602001519050919050565b60008060048361ffff1681610ba057fe5b0661ffff1614610bb35760009050610bff565b600060648361ffff1681610bc357fe5b0661ffff1614610bd65760019050610bff565b60006101908361ffff1681610be757fe5b0661ffff1614610bfa5760009050610bff565b600190505b919050565b60006001820391506101908281610c1757fe5b0460648381610c2257fe5b0460048481610c2d57fe5b0403019050919050565b600060018360ff161480610c4e575060038360ff16145b80610c5c575060058360ff16145b80610c6a575060078360ff16145b80610c78575060088360ff16145b80610c865750600a8360ff16145b80610c945750600c8360ff16145b15610ca257601f9050610cfd565b60048360ff161480610cb7575060068360ff16145b80610cc5575060098360ff16145b80610cd35750600b8360ff16145b15610ce157601e9050610cfd565b610cea82610b8f565b15610cf857601d9050610cfd565b601c90505b92915050565b6000603c808381610d1057fe5b0481610d1857fe5b069050919050565b610d28610ee0565b6000809050600080610d3985610ad0565b846000019061ffff16908161ffff1681525050610d5b6107b261ffff16610c04565b610d6c856000015161ffff16610c04565b039150816301e285000283019250816107b285600001510361ffff16036301e1338002830192506000600191505b600c8260ff1611610df057610db3828660000151610c37565b60ff1662015180029050858482011115610dde5781856020019060ff16908160ff1681525050610df0565b80840193508180600101925050610d9a565b600191505b610e0785602001518660000151610c37565b60ff168260ff1611610e4c57858462015180011115610e375781856040019060ff16908160ff1681525050610e4c565b62015180840193508180600101925050610df5565b610e558661077f565b856060019060ff16908160ff1681525050610e6f86610d03565b856080019060ff16908160ff1681525050610e8986610816565b8560a0019060ff16908160ff1681525050610ea3866107a6565b8560c0019060ff16908160ff168152505050505050919050565b604051806101800160405280600c90602082028038833980820191505090505090565b6040518060e00160405280600061ffff168152602001600060ff168152602001600060ff168152602001600060ff168152602001600060ff168152602001600060ff168152602001600060ff168152509056fea265627a7a72315820449fd5809b7f53721f9701e5638a9af06f0be118399fae73528e2f8e2855813c64736f6c634300050c0032",
  "source": "pragma solidity >=0.4.22 <0.6.0;\n\ncontract DateTime {\n\n    struct _DateTime {\n        uint16 year;\n        uint8 month;\n        uint8 day;\n        uint8 hour;\n        uint8 minute;\n        uint8 second;\n        uint8 weekday;\n    }\n\n    uint constant DAY_IN_SECONDS = 86400;\n    uint constant YEAR_IN_SECONDS = 31536000;\n    uint constant LEAP_YEAR_IN_SECONDS = 31622400;\n\n    uint constant HOUR_IN_SECONDS = 3600;\n    uint constant MINUTE_IN_SECONDS = 60;\n\n    uint16 constant ORIGIN_YEAR = 1970;\n\n    function isLeapYear(uint16 year) public pure returns (bool) {\n        if (year % 4 != 0) {\n            return false;\n        }\n        if (year % 100 != 0) {\n            return true;\n        }\n        if (year % 400 != 0) {\n            return false;\n        }\n        return true;\n    }\n\n    function leapYearsBefore(uint year) public pure returns (uint) {\n        year -= 1;\n        return year / 4 - year / 100 + year / 400;\n    }\n\n    function getDaysInMonth(uint8 month, uint16 year) public pure returns (uint8) {\n        if (month == 1 || month == 3 || month == 5 || month == 7 || month == 8 || month == 10 || month == 12) {\n            return 31;\n        }\n        else if (month == 4 || month == 6 || month == 9 || month == 11) {\n            return 30;\n        }\n        else if (isLeapYear(year)) {\n            return 29;\n        }\n        else {\n            return 28;\n        }\n    }\n\n    function parseTimestamp(uint timestamp) internal pure returns (_DateTime memory dt) {\n        uint secondsAccountedFor = 0;\n        uint buf;\n        uint8 i;\n\n        // Year\n        dt.year = getYear(timestamp);\n        buf = leapYearsBefore(dt.year) - leapYearsBefore(ORIGIN_YEAR);\n\n        secondsAccountedFor += LEAP_YEAR_IN_SECONDS * buf;\n        secondsAccountedFor += YEAR_IN_SECONDS * (dt.year - ORIGIN_YEAR - buf);\n\n        // Month\n        uint secondsInMonth;\n        for (i = 1; i <= 12; i++) {\n            secondsInMonth = DAY_IN_SECONDS * getDaysInMonth(i, dt.year);\n            if (secondsInMonth + secondsAccountedFor > timestamp) {\n                    dt.month = i;\n                    break;\n            }\n            secondsAccountedFor += secondsInMonth;\n        }\n\n        // Day\n        for (i = 1; i <= getDaysInMonth(dt.month, dt.year); i++) {\n            if (DAY_IN_SECONDS + secondsAccountedFor > timestamp) {\n                    dt.day = i;\n                    break;\n            }\n            secondsAccountedFor += DAY_IN_SECONDS;\n        }\n\n        // Hour\n        dt.hour = getHour(timestamp);\n\n        // Minute\n        dt.minute = getMinute(timestamp);\n\n        // Second\n        dt.second = getSecond(timestamp);\n\n        // Day of week.\n        dt.weekday = getWeekday(timestamp);\n    }\n\n    function getYear(uint timestamp) public pure returns (uint16) {\n        uint secondsAccountedFor = 0;\n        uint16 year;\n        uint numLeapYears;\n\n        // Year\n        year = uint16(ORIGIN_YEAR + timestamp / YEAR_IN_SECONDS);\n        numLeapYears = leapYearsBefore(year) - leapYearsBefore(ORIGIN_YEAR);\n\n        secondsAccountedFor += LEAP_YEAR_IN_SECONDS * numLeapYears;\n        secondsAccountedFor += YEAR_IN_SECONDS * (year - ORIGIN_YEAR - numLeapYears);\n\n        while (secondsAccountedFor > timestamp) {\n            if (isLeapYear(uint16(year - 1))) {\n                    secondsAccountedFor -= LEAP_YEAR_IN_SECONDS;\n            }\n            else {\n                    secondsAccountedFor -= YEAR_IN_SECONDS;\n            }\n            year -= 1;\n        }\n        return year;\n    }\n\n    function getMonth(uint timestamp) public pure returns (uint8) {\n        return parseTimestamp(timestamp).month;\n    }\n\n    function getDay(uint timestamp) public pure returns (uint8) {\n        return parseTimestamp(timestamp).day;\n    }\n\n    function getHour(uint timestamp) public pure returns (uint8) {\n        return uint8((timestamp / 60 / 60) % 24);\n    }\n\n    function getMinute(uint timestamp) public pure returns (uint8) {\n        return uint8((timestamp / 60) % 60);\n    }\n\n    function getSecond(uint timestamp) public pure returns (uint8) {\n        return uint8(timestamp % 60);\n    }\n\n    function getWeekday(uint timestamp) public pure returns (uint8) {\n       return uint8((timestamp / DAY_IN_SECONDS + 4) % 7);\n    }\n\n    function toTimestamp(uint16 year, uint8 month, uint8 day) public pure returns (uint timestamp) {\n        return toTimestamp(year, month, day, 0, 0, 0);\n    }\n\n    function toTimestamp(uint16 year, uint8 month, uint8 day, uint8 hour) public pure returns (uint timestamp) {\n        return toTimestamp(year, month, day, hour, 0, 0);\n    }\n\n    function toTimestamp(uint16 year, uint8 month, uint8 day, uint8 hour, uint8 minute) public pure returns (uint timestamp) {\n        return toTimestamp(year, month, day, hour, minute, 0);\n    }\n\n    function toTimestamp(uint16 year, uint8 month, uint8 day, uint8 hour, uint8 minute, uint8 second) public pure returns (uint timestamp) {\n        uint16 i;\n\n        // Year\n        for (i = ORIGIN_YEAR; i < year; i++) {\n                if (isLeapYear(i)) {\n                        timestamp += LEAP_YEAR_IN_SECONDS;\n                }\n                else {\n                        timestamp += YEAR_IN_SECONDS;\n                }\n        }\n\n        // Month\n        uint8[12] memory monthDayCounts;\n        monthDayCounts[0] = 31;\n        if (isLeapYear(year)) {\n                monthDayCounts[1] = 29;\n        }\n        else {\n                monthDayCounts[1] = 28;\n        }\n        monthDayCounts[2] = 31;\n        monthDayCounts[3] = 30;\n        monthDayCounts[4] = 31;\n        monthDayCounts[5] = 30;\n        monthDayCounts[6] = 31;\n        monthDayCounts[7] = 31;\n        monthDayCounts[8] = 30;\n        monthDayCounts[9] = 31;\n        monthDayCounts[10] = 30;\n        monthDayCounts[11] = 31;\n\n        for (i = 1; i < month; i++) {\n                timestamp += DAY_IN_SECONDS * monthDayCounts[i - 1];\n        }\n\n        // Day\n        timestamp += DAY_IN_SECONDS * (day - 1);\n\n        // Hour\n        timestamp += HOUR_IN_SECONDS * (hour);\n\n        // Minute\n        timestamp += MINUTE_IN_SECONDS * (minute);\n\n        // Second\n        timestamp += second;\n\n        return timestamp;\n    }\n    \n    function currentTimeIsBeforeEndTime(uint currentTime, uint endTime) public pure returns (bool) {\n        \n        uint16 currentYear = getYear(currentTime);\n        uint8 currentMonth = getMonth(currentTime);\n        uint8 currentDay = getDay(currentTime);\n        uint8 currentHour = getHour(currentTime);\n        uint8 currentMinute = getMinute(currentTime);\n        uint8 currentSecond = getSecond(currentTime);\n        \n        uint16 endYear = getYear(endTime);\n        uint8 endtMonth = getMonth(endTime);\n        uint8 endDay = getDay(endTime);\n        uint8 endHour = getHour(endTime);\n        uint8 endMinute = getMinute(endTime);\n        uint8 endSecond = getSecond(endTime); \n        \n        if (currentYear > endYear) { return false; }\n        if (currentMonth > endtMonth) { return false; }\n        if (currentDay > endDay) { return false; }\n        if (currentHour > endHour) { return false; }\n        if (currentMinute > endMinute) { return false; }\n        if (currentSecond > endSecond) { return false; }\n        \n        return true;\n    }\n}",
  "sourcePath": "/Users/rlveiga/projects/DAO/contracts/Datetime.sol",
  "compiler": {
    "name": "solc",
    "version": "0.5.12+commit.7709ece9.Emscripten.clang"
  },
  "schemaVersion": "3.0.19",
  "updatedAt": "2019-12-06T04:41:31.041Z",
  "devdoc": {
    "methods": {}
  },
  "userdoc": {
    "methods": {}
  }
}